:020000040800F2
:10000000980C002001010008FD4C00083D4B000841
:10001000F94C0008751400089963000800000000FE
:100020000000000000000000000000001D5E00084D
:10003000E51F000800000000ED5A000805600008F8
:100040001B0100081B0100081B0100081B01000820
:100050001B0100081B0100081B0100081B01000810
:100060001B0100081B0100081B01000815180008EF
:100070001B0100081B0100081B0100081B010008F0
:100080001B0100081B010008650F00081B01000888
:100090001B0100081B0100081B0100081B010008D0
:1000A0001B0100081B0100081B0100081B010008C0
:1000B0001B0100081B0100081B0100081B010008B0
:1000C0001B0100081B0100081B0100081B010008A0
:1000D0001B0100088D6300081B0100081B010008BC
:1000E0001B0100081B0100081B010008DFF80CD0F1
:1000F00000F02AFD00480047BD630008980C00206E
:100100000648804706480047FEE7FEE7FEE7FEE7B1
:10011000FEE7FEE7FEE7FEE7FEE7FEE7ED6000082C
:10012000ED000008D2B201E000F8012B491EFBD21D
:1001300070470022F6E710B513460A4604461946F2
:10014000FFF7F0FF204610BD10B5044604E00B7821
:1001500000F8013B03B1491C521EF8D2204610BDE5
:10016000CAB2401E10F8011F8A4202D00029F9D1FC
:1001700000207047421C10F8011B0029FBD1801A97
:10018000704710B5002200E0521C835C8C5CA342D7
:1001900001D1002BF8D1D8B2E1B2401A10BD30B570
:1001A00004460020034600E05B1C934203D2E05C5F
:1001B000CD5C401BF8D030BDF0B480EA0102D40F12
:1001C0004200B2EB410F02D20246084611464A00F5
:1001D00042D0C30DDDB2C1F3C752AD1A202D35DABE
:1001E000C1F3160141F4000204B15242C5F12006E8
:1001F00002FA06F12A411044B3EBD05F23D0C4B118
:10020000012DA0EBC35009DCF0BC4FF0004202EA24
:10021000C352DBB200F5000000F0B1BB400000F1BA
:10022000807000EBC350A0F1807040EAD1704900AB
:1002300009E0490841EAC071A0EBC35000F5000095
:10024000400800EBC350F0BC00F090BB61420122BB
:1002500002EB4101001BF6E7F0BC704781F0004162
:10026000AAE780F00040A7E780EA010210B502F09B
:100270000043400022D04A001FD0010E01EB126162
:10028000C0F35600C2F3560240F4000042F40002EC
:10029000A0FB022000047F39140400D0401C50EA67
:1002A000124001D44000491EC2B20C0604EBD0102B
:1002B000401C4008802A02D003E0002010BD20F03E
:1002C0000100002900DA0020184310BD30B480EA94
:1002D000010202F0004530F0004221F0004013D04E
:1002E00090B1C30DD40DC2F31601C0F31600E41A89
:1002F00041F4000140F400027D34914201D3641CBA
:1003000000E04900002C02DA30BC002070474FF4B6
:1003100000000023914201D3891A034340084FEAA9
:100320004101F7D151B1914202D14FF0004105E0B6
:1003300002D24FF0010101E06FF0010103EBC45064
:10034000284430BC00F012BB2DE9FE4F804681EA04
:100350000300C00F0C46009021F0004123F000453F
:10036000B8EB0200A94105D24046214690461C4602
:100370000B46024623F00040104347D0270DC7F339
:100380000A00C3F30A510290401A019040286BDA28
:10039000C3F3130040F4801B0098924620B1002361
:1003A000D2EB030A63EB0B0B01985946C0F14002F4
:1003B000504600F056FA06460D4650465946019AF8
:1003C00000F06EFA10EB08006141002487EA115238
:1003D00084EAE7731A4340D0009A62B3019A012A73
:1003E0004FEA075215DC001B61EB02014FF000429F
:1003F00002EA0752CDE90042001C41F58011324665
:100400002B4600F023FB03B0BDE8F08F40462146A9
:10041000F9E7001B61EB0201001C41F58013001895
:100420005B412018A2F5001747EB030140EAD570A5
:10043000B6196D4111E06D084FEA360645EAC07500
:100440004FEA0752001B61EB0201001C41F58011CD
:1004500049084FEA30000019514132462B4603B09B
:10046000BDE8F04F00F0E3BA0098012240000023FD
:10047000D0EB020263EBE073009821464FEAE07490
:10048000B8EB000061EB0401E9E783F000435BE7B0
:1004900081F0004158E72DE9FE4F81EA030404F0A2
:1004A000004421F0004100944FF0000B23F0004382
:1004B00050EA01045ED052EA03045BD0C3F30A544D
:1004C000C1F30A552C44A4F2F3340194A0FB025466
:1004D000C1F3130141F48011C3F3130343F48013F8
:1004E00001FB024400FB034E840A970A44EA81544C
:1004F00047EA8357A4FB076802958D0A05FB078529
:100500004FEA932C04FB0C542705029D4FEA065832
:1005100047EA1637B5EB08056EEB070C870E920E0F
:1005200047EA811742EA8312A7FB0201B6EB0B01EF
:1005300064EB00042B0D43EA0C335E1844EB1C50B3
:10054000DA465146E7FB0201C5F313044FEA0B33C9
:1005500043EA14534FEA0432019C43EA0603A4F130
:100560000C040294009CCDE900B400F06FFA03B0D3
:10057000BDE8F08F00200146F9E72DE9F04D81EA52
:10058000030404F0004B21F0004514464FF0000A2C
:1005900023F0004150EA050220D054EA01021DD0A8
:1005A000C5F30A570246C5F31303C1F31300C1F3A1
:1005B0000A5640F4801543F48013A7EB0608101B7D
:1005C000D64608F2FD3873EB050002D308F10108A6
:1005D00001E092185B41B8F1000F03DA00200146F8
:1005E000BDE8F08D00204FF48011064684460EE0F1
:1005F000171B73EB050705D3121B63EB05030643BB
:100600004CEA010C49084FEA300092185B4150EA6D
:100610000107EDD152EA030012D082EA040083EA16
:100620000501084305D0101BAB4106D2012200236F
:1006300006E000224FF0004302E06FF00102531089
:100640001AEB06004CEB085110EB0A0041EB0B01D2
:10065000BDE8F04D00F0EBB9002801DBC0F100402F
:10066000002901DBC1F10041814201D8012070471E
:1006700000207047002801DBC0F10040002901DBA9
:10068000C1F10041814201D2012070470020704732
:10069000002801DBC0F10040002901DBC1F100416D
:1006A000814201D30120704700207047002801DB00
:1006B000C0F10040002901DBC1F10041814201D9B4
:1006C0000120704700207047C10F80EAE0700844A5
:1006D000CA079623002100F052B996230022114642
:1006E00000F04DB90EB5C10F80EAE0700844CA07AA
:1006F000002140F233438DE80E000A460B4600F01D
:10070000A5F903B000BD00F0004220F00040C10D8B
:10071000C0F3160040F400007F2901DA0020704782
:10072000962903DCC1F19601C84001E09639884062
:10073000002AF4D04042704770B5C1F30A5201F06C
:1007400000450024C1F3130140F2FF3341F480114E
:100750009A4201DA002070BD40F233439A42A2F27D
:10076000334203DC524200F08BF800E090402C430F
:10077000F1D0404270BD00F0004230F000400AD09D
:10078000C10D01F56071C0F3160042EA0151C208C3
:1007900040071143704700200146704701F00043B5
:1007A00030B421F0004150EA010206D00A0DA2F552
:1007B0006072C1F31301002A02DC30BC00207047D4
:1007C000440F44EAC104C100E01830BC00EBC25041
:1007D00000F0CCB830B50B460146002020220124A1
:1007E00009E021FA02F59D4205D303FA02F5491BFF
:1007F00004FA02F52844151EA2F10102F1DC30BD15
:100800002DE9F05F0546002092469B468846064645
:10081000814640241BE0284641464746224600F0D8
:100820002FF853465A46C01A914110D31146184624
:10083000224600F016F82D1A67EB01084F462246B3
:100840000120002100F00DF817EB00094E41201E99
:10085000A4F10104DFDC484631462A464346BDE8A0
:10086000F09F202A04DB203A00FA02F100207047B2
:100870009140C2F1200320FA03F3194390407047DE
:10088000202A04DB203A21FA02F00021704721FAE5
:1008900002F3D040C2F1200291400843194670474C
:1008A000202A06DBCB17203A41FA02F043EAE07334
:1008B00006E041FA02F3D040C2F120029140084321
:1008C000194670470FB40B0010B58AB00FA90091FC
:1008D0000E994FF00004234ACC60214CCDE906422A
:1008E00000D004236FF00042CDE901321E4A089285
:1008F00002466B46002000F0D9F90AB010BC5DF842
:1009000014FBF0B585B007464FF0FF300091CDE9FC
:1009100001011E46002015460C4604903B466A46DF
:10092000314604A8FFF7CEFF04990346601825B1AD
:1009300009B1024600E022462A6000290ED0002BB1
:1009400002DD0099814209D00094001BCDE9010429
:100950003B466A46314604A8FFF7B4FF05B0F0BD38
:10096000E50E0008030F0008790B00080029A8BF56
:100970007047401C490008BF20F00100704710B4C8
:10098000B0FA80FC00FA0CF050EA010404BF10BC7D
:10099000704749B1CCF1200421FA04F411FA0CF1AA
:1009A00018BF012121430843A3EB0C01CB1D4FEAE3
:1009B00000614FEA102042BF002010BC704700EBDE
:1009C000C35010440029A4BF10BC7047401C49000C
:1009D00008BF20F0010010BC7047420005D0C0F3F2
:1009E000C7525242914201DC0020704700EBC150D7
:1009F000704710B541000CD0C0F3C751962908DCF0
:100A00007E2909DC06DB410204D000F0004040F002
:100A10007E5010BD002010BDC1F19604C4F120012C
:100A200000FA01F1E040FFF7A1FFA04010BD10B5B2
:100A3000141E73F1000408DA401C41F10001921801
:100A40005B411A4301D120F0010010BD2DE9F04DAA
:100A500092469B4611B1B1FA81F202E0B0FA80F2FF
:100A600020329046FFF7FDFE04460F4640EA0A009A
:100A700041EA0B0153465A46084313D0114653EA44
:100A8000010019D0C8F140025046FFF7F9FE0546B3
:100A90000E46504659464246FFF7E3FE084305D04E
:100AA000012004E020463946BDE8F08D00200543D2
:100AB00046EAE0762C4337430A986305E40AA0EB44
:100AC00008000022FD0A44EA47540A3002D50020FB
:100AD0000146E9E7010510196941DDE908450019FA
:100AE0006941BDE8F04DA2E7C1F30A52C1F3130119
:100AF00040F2FF3341F480119A4202DA00200146AD
:100B0000704740F233439A42A2F2334202DC52422F
:100B1000FFF7B6BEFFF7A5BE30B5041E71F10004A5
:100B200004DB4FF00044404264EB0101141E73F1FA
:100B3000000405DB1C464FF00043524263EB040304
:100B4000994208BF904230BD1CB509480090094841
:100B500001900546009C06E0E06840F0010394E83F
:100B6000070098471034AC42F6D3FFF7C3FA0000F1
:100B7000347C0008547C0008C0B24FF4F05100F0FF
:100B8000D1B900002DE9FF4F087883B09946FF28BE
:100B900005D0491C2D2804D00024002008E00020A6
:100BA0000BE00124F9E700EB800003EB4000491C57
:100BB0000B78FF2BF7D104B1404200230293147845
:100BC00019461D462D2C01D02B2C04D1521C2D2C46
:100BD00013D000240294AA461478FF2C0FD00A25C3
:100BE000A3FB057801FB05814FF0000C03FB0C1102
:100BF000521CE3194AEB0101EEE70124EAE78144C4
:100C000053EA010002D019F5C87F06DA03980021E3
:100C1000C0E9001107B0BDE8F08F0025AE4E2F46A9
:100C2000DFF8B882184600F091F9CDE90001B9F17A
:100C3000000002DAC9F1000400E004460023A74ADC
:100C40001AEB030B42EB045A12E0E00707D02A46E6
:100C5000334638464146FFF71EFC074688462A467B
:100C6000334610461946FFF716FC05460E4664103B
:100C7000002CEAD1DDE90001B9F1000F5A465346D4
:100C800006DAFFF77AFC3A464346FFF776FC05E0C2
:100C9000FFF701FC3A464346FFF7FDFB029A0AB113
:100CA00081F00041039AC2E90001B3E72DE9FF4F4B
:100CB0001F468DB0D7E901464FF0FF382E2045463C
:100CC0004FF000090B90B9696D1C0E988847396A7E
:100CD000824688470028F6D1BAF1FF3F0AD024F4B3
:100CE000D064002E11DDBAF12B0F08D0BAF12D0F10
:100CF0000BD102E0404611B08DE744F48064B9693D
:100D00006D1C0E9888478246761E6946600501D59F
:100D10002D2000E02B208DF8000001F1010B0DF1DA
:100D2000200809E0B9696D1C0E98884782460F9823
:100D300044F40074761E0560002E02DDBAF1300F17
:100D4000F0D00B998A453ED144F0800406E00F991B
:100D5000681CA9F1010944F400740860B9696D1CAC
:100D6000761E0E98884782463028F0D02BE00B99EB
:100D70008A4505D1200603D444F08004761E18E08D
:100D8000504605F027FD08B30DF11302761EAAF1B7
:100D9000300044F40074934506D20BF8010B200692
:100DA00007D5A9F1010003E0200602D409F10100F2
:100DB0008146A00502D50F99681C0860B9696D1CB1
:100DC0000E9888478246002ED1DC53E0002E51DD7C
:100DD000BAF1650F02D0BAF1450F4BD1A00549D544
:100DE000B9696D1C24F44074761E0E9888478246BB
:100DF000002E0CDD2B2804D0BAF12D0F07D144F4BE
:100E00008074B9696D1C0E9888478246761EE0058D
:100E100001D52D2100E02B2108F8011BCDF82C80F5
:100E200021E00DF12901761E44F4007488450CD2AE
:100E3000AAF1300010F0FF0088F8000002D10B99F1
:100E4000884509D908F1010806E0E00501D52448E4
:100E500001E042F20F708146B9696D1C0E98884717
:100E600082460F980560002E04DD504605F0B2FC66
:100E70000028D6D1F9690E988847FF208BF800002A
:100E800088F800000020069007904B466A4608A9A3
:100E900006A8FFF777FEA00502D46FF001002AE74D
:100EA00014F0240F0AD0E00714D1DDE906123868E7
:100EB000031D3B600068C0E900120BE0DDE906019C
:100EC000FFF76CFC0146E00704D13868021D3A6068
:100ED0000068016028460EE7000014400000F03F63
:100EE000F1D8FFFF426842B1016811F8013B23B11C
:100EF000521EC0E90012184670470121C160881EC9
:100F0000704742685AB1C368016843B983688B422D
:100F100005D0491E521CC0E90012002070474FF056
:100F2000FF3070477F2801D9002208E0064A02EB13
:100F30005002C007127800D1120902F00F020120FE
:100F40009040084070470000107100080EB540F254
:100F5000334202920022CDE900221346FFF776FDCC
:100F600003B000BD40F2A040C2F2000001F05CBF3F
:100F7000B0B5044600688168C90709D0816821F0CE
:100F80000101816002F074FC21688968C90701D100
:100F90000020B0BD054602E08068C007F8D002F02E
:100FA00067FC411B20680329F6D38168C907F3D089
:100FB000A06A40F01000A062E06A40F00100E06228
:100FC0000120B0BD0146406A826A12F0500F03D082
:100FD000006A026B084610470168826A42F4007298
:100FE0008262896801F46021B1F5602F01D1017B33
:100FF00011B101F001BF00BF816A21F480718162EB
:10100000816AC90448BF01F0F7BE816A41F001015D
:10101000816201F0F1BE0000406A816A41F0400146
:101020008162C16A41F00401C16201F0FBBE0000AF
:10103000406A01F0F5BE0000B0B582B00446002061
:10104000019021688A68D2074BD1886840F001007E
:10105000886040F21000C2F2000000684DF6836123
:10106000C4F21B31A0FB0101880C01900198A0B1D2
:10107000019801380190019878B1019801380190E8
:10108000019850B1019801380190019828B1019858
:101090000138019001980028EAD102F0E9FB2168AB
:1010A0008968C9071CD1054603E000BF8068C007F6
:1010B00016D102F0DDFB411B20680329F6D38168BD
:1010C000C907F3D1A06A40F01000A062E06A40F0C6
:1010D0000100E062002084F82400012002B0B0BDCD
:1010E000002002B0B0BD000010B540F284400021E5
:1010F000C2F20000C4F220210022002340F2000CC2
:1011000043F2333EC4F2A002C4F24823C4F2FA3CD4
:10111000C3F6337E4FF0013480E80E500121446164
:10112000018310BDF0B591B0014601A83F22FFF741
:101130000BF800243A218DF84340FFF711F80028FE
:1011400044D00546C7A101A8072205F8014BFFF7C7
:1011500026F8002846D0C5A101A80822FFF71FF8ED
:1011600000286BD0284605F0D9FEFFF717FB47F69D
:10117000DA110446C0F6000101A80522FFF70FF8B6
:10118000002800F08D8047F6CC11C0F6000101A8C0
:101190000622FFF704F8002800F0C08047F6D711B8
:1011A000C0F6000101A80322FEF7F9FF002800F0B5
:1011B000DB8047F6D211C0F6000101A80522FEF738
:1011C000EEFF002800F01C8100252DE101984BF670
:1011D000B921CFF6AB710844B0FA80F04509284632
:1011E00011B0F0BD47F6DA11C0F600012846FEF74F
:1011F000C8FF002800F08C8047F6CC11C0F6000133
:101200002846FEF7BEFF002800F0A08047F6D71161
:10121000C0F600012846FEF7B4FF002800F0BA80AF
:1012200047F6D211C0F600012846FEF7AAFF0028B3
:1012300000F0FE800025284611B0F0BD47F6DA1117
:10124000C0F600012846FEF79CFF002800F08480CD
:1012500047F6CC11C0F600012846FEF792FF0028A1
:1012600000F09E8047F6D711C0F600012846FEF731
:1012700088FF002800F0E48047F6D211C0F6000194
:101280002846FEF77EFF00284FF0000540F0CC8096
:1012900040F28440C2F20000018BC575D7E000BF68
:1012A00028462C21FEF75CFF002800F081800021F9
:1012B00000F8011B05F032FEFFF770FA05462046E4
:1012C0002946FFF7C9F900210646C4F21631204627
:1012D000FFF7ECF900210643CCF248212846FFF73E
:1012E000C9F9304318BF01200CD140F28441C2F249
:1012F00000010A8BC1E90045013292B2012A98BF70
:1013000001220A8380F00105284611B0F0BD00BF1C
:1013100040F28440C2F20000012122E02046002178
:101320000025FFF7A7F9002840F07E800021C4F2D5
:10133000C8212046FFF7BAF9002875D140F2844051
:10134000C2F20000018B846081E000BF40F2844063
:10135000C2F20000012128E040F28440C2F2000005
:101360000021017572E000BF204600210025FFF733
:1013700081F9002858D10021C4F27A412046FFF7B4
:1013800095F9002850D140F28440C2F20000018B50
:10139000C4605CE040F28440C2F20000012154E0ED
:1013A00040F28440C2F20000002141754EE000BFCF
:1013B00040F28447C2F200077D6821462846FFF7C5
:1013C00067F900210646C4F216312046FFF76EF990
:1013D00000210643CCF248212846FFF74BF9304361
:1013E00018BF012007D1398B3C60013189B2012936
:1013F00098BF0121398380F00105284611B0F0BD66
:10140000204600210025FFF735F968B920464FF046
:101410007E51FFF74BF938B940F28440C2F2000028
:10142000018B046113E000BF284611B0F0BD00BF7E
:1014300040F28440C2F200000121C17506E000BF05
:1014400040F28440C2F2000000218175018B01311D
:1014500089B20125012998BF29460183284611B088
:10146000F0BD00BF454E41424C4500004449534148
:10147000424C4500FEE700002DE9F04FB5B040F2C8
:101480005C58C2F2000898F8286340F21805032E51
:10149000C2F200050AD90FF2DC29042064240022DC
:1014A000012104262B79984272D1E9E0032E07D15D
:1014B0000FF2D829042603204FF4967463E000BF8E
:1014C00040F28444C2F2000427680021D5F80C9051
:1014D000C4F220113846FEF76FFE01464846FFF77A
:1014E000D7F800283ED1D4F808A00021D5F810B0D4
:1014F000C4F2A0115046FEF75FFE01465846FFF7C2
:10150000C7F8D8BBE46800216D69C4F248212046C1
:10151000FEF752FE01462846FFF7BAF8002840F0D1
:101520008F8048463946FFF7B3F8002840F08E8098
:1015300058465146FFF7ACF8002840F09180284605
:101540002146FFF7A5F8002840F0D080012E40F298
:10155000D78047F60A49C0F60009042602204FF456
:10156000FA7483E00FF23829012104206424002258
:1015700001262B7998420BD182E000BF0FF234296B
:10158000022604206424002201212B79984277D07E
:1015900000292871E97045D047F25011C0F60001CA
:1015A00051F820000C940B90D5E903076C690A965A
:1015B000FFF7E1F8834638460D46FFF7DCF80746AB
:1015C00020468A46FFF7D7F80446D8F82403884611
:1015D000FFF7D1F80E46CDE9064847F699210DAC44
:1015E000DDE90A32CDE902B540F218050890C0F6EF
:1015F00000012046C2F20005CDE9047ACDF8009042
:10160000099604F0D5FF2046FEF7B4FD82B240F201
:101610001450C2F2000021460C9C642303F0D0F960
:101620002EE000BF22B177A0494604F0B1FF27E0C9
:1016300047F68F30C0F6000005F040FD20E000BF07
:101640000FF284190326042064240FE00FF2881996
:10165000012103204FF496740022012608E000BF08
:101660000FF28419022603204FF496740022012100
:1016700040F21805C2F200052B7998427FF488AF3A
:10168000A879012806D140F60040C4F201002021CB
:10169000002226E0E878D8B102F0EAF8696A401A38
:1016A000A04220D96A792021B2FA82F04009002AAA
:1016B00018BF0122687140F60040C4F2010002F038
:1016C000D1F802F0D5F8686235B0BDE8F08F00BF00
:1016D00000206871686240F60040C4F201002021D9
:1016E000012202F0BFF835B0BDE8F08F0FF2081903
:1016F00003204FF49674002201210326B8E700BFAF
:101700000021CCF2A00138460C95FEF755FD0146AC
:101710004846FEF7BDFF00210546CCF22011504699
:10172000FEF74AFDD5B901465846FEF7B1FFA8B904
:101730000021CCF220112046FEF73EFD76B901468D
:101740000C98FEF797FF48B147F63149C0F60009FB
:1017500000214FF4FA740022002008E047F61F49E8
:10176000C0F60009002101224FF4FA74012000267E
:101770007EE700BF4149E9A284E6B58BE7B4A7E65E
:1017800080A5E9A38EE999A9000000004149E9A2DA
:1017900084E6B58BE9AB98E9A38EE999A90000002E
:1017A000E6B8A9E5BAA6E4B8A5E9878DE8B685E666
:1017B000A0870000E7839FE99BBEE4B8A5E9878D79
:1017C000E8B685E6A0870000434FE4B8A5E9878D19
:1017D000E8B685E6A0870000E6B8A9E5BAA6E8B6AF
:1017E00085E6A08700000000E7839FE99BBEE8B67E
:1017F00085E6A08700000000434FE8B685E6A08795
:10180000000000005B4E4F544943455D2025730D99
:101810000A00000040F2D040C2F2000001F094BD86
:101820002DE9F04F85B0202040F6000A01900020FD
:10183000C4F2010A02900120039001A9504601F070
:10184000FBFE5046202101F0FFFF002850D04EF64D
:10185000FC5B41F2040540F2800640F210044DF6B4
:101860008367CEF2000BCEF20005C2F20006C2F290
:101870000004C4F21B374FF0000900BF3078C8469F
:1018800078B9DBF8000040F08070CBF80000002051
:10189000286055F8040C40F0010045F8040C0120C4
:1018A00030702868216808F10109A1FB0712910C2A
:1018B0002A68121A8A420BD22A68121A8A4207D25E
:1018C0002A68121A8A4203D22A68121A8A42EFD36D
:1018D0005046202101F0B8FF10B1B8F1C70FCDD3A9
:1018E000B8F1C60F04D90125284605B0BDE8F08F30
:1018F0005046202101F0A8FF00284FF00005F3D149
:1019000041F2040740F2800640F210094DF683646C
:10191000CEF20007C2F20006C2F20009C4F21B3484
:101920004FF000083078C34680B94EF6FC51CEF235
:101930000001086840F0807008603D6057F8040CB2
:1019400040F0010047F8040C012030703868D9F8E5
:1019500000100BF10108A1FB0412910C3A68121A55
:101960008A420BD23A68121A8A4207D23A68121A8D
:101970008A4203D23A68121A8A42EFD35046202193
:1019800001F062FF10B9BBF1EF0FCBD30020BBF128
:10199000EE0F88BF01204500284605B0BDE8F08F56
:1019A0002DE9F04F81B000F095F9FFF739FFCC2019
:1019B00000F01EFA442000F01BFA40F2EE2001F085
:1019C00027FE00F087F9FFF72BFF28B14FF61940EB
:1019D00000B201B0BDE8F08FCC2000F009FABE20C3
:1019E00000F006FA00F0AEF8044600F0ABF84FF055
:1019F000400808EA841141EAC01400F0A3F84FF04F
:101A0000600909EA540141EAC01400F09BF84FF064
:101A1000700A0AEA540141EAC01400F093F84FF04A
:101A2000780B0BEA540141EAC01400F08BF87C25D6
:101A300005EA540141EAC01400F084F87E2707EA61
:101A4000540141EAC01400F07DF8C4F3460141EAB4
:101A5000C01600F077F8044600F074F808EA841124
:101A600041EAC01400F06EF809EA540141EAC014DA
:101A700000F068F80AEA540141EAC01400F062F884
:101A80000BEA540141EAC01400F05CF805EA540185
:101A900041EAC01400F056F807EA540141EAC014C4
:101AA00000F050F8C4F3460141EAC010C1B2002270
:101AB000702988BF4FF0FF3286EA02015040C9B258
:101AC00041EA002000B2FEF70DFE0023C3F6E473E6
:101AD0000022FEF7E0FCFEF72FFE00B201B0BDE8E9
:101AE000F08F000010B584B02020009003200390F8
:101AF00040F600000124C4F201006946CDE901442A
:101B000001F09AFD40F28000C2F20000017891B924
:101B10004EF6FC51CEF200010A6842F080720A6073
:101B200041F20001CEF2000100224A600A6842F050
:101B300001020A60047000F0CDF8FFF771FE04B0F6
:101B400010BD00002DE9F04F85B0202040F60004C4
:101B500001901120C4F20104029003204EF6FC58BB
:101B600041F204050126049001A92046CEF20008A6
:101B7000CEF20005039601F05FFD204620210022F1
:101B8000002701F06FFE40F2800BC2F2000B9BF8C1
:101B9000000070B9D8F8000040F08070C8F800006C
:101BA0002F6055F8040C40F0010045F8040C8BF848
:101BB000006040F21009C2F200092868D9F800104C
:101BC0004DF6836AC4F21B3AA1FB0A126FF00101C1
:101BD00001EA52412A68121A8A420BD22A68121A62
:101BE0008A4207D22A68121A8A4203D22A68121A33
:101BF0008A42EFD32046202101222027012601F02E
:101C000031FE0197002701A92046CDE9027601F0B7
:101C100013FD9BF8000070B9D8F8000040F0807008
:101C2000C8F800002F6055F8040C40F0010045F89A
:101C3000040C8BF800602868D9F80010A1FB0A1288
:101C4000910C01EB410189002A68121A8A420BD2D9
:101C50002A68121A8A4207D22A68121A8A4203D2C2
:101C60002A68121A8A42EFD32046202101F0ECFDA7
:101C70009BF8001081B9D8F8001041F08071C8F8C5
:101C800000100021296055F8041C41F0010145F8BD
:101C9000041C01218BF800102968D9F80020A2FB50
:101CA0000A239A0C32235A432B685B1A93420BD2B5
:101CB0002B685B1A934207D22B685B1A934203D2BC
:101CC0002B685B1A9342EFD3002818BF012005B0A0
:101CD000BDE8F08F2DE9F04784B0202040F6000ADF
:101CE00000901120C4F2010A019003204EF6FC5826
:101CF00041F204050126039069465046CEF20008E1
:101D0000CEF20005029601F097FC504620210022F9
:101D1000002401F0A7FD40F28007C2F200073878E6
:101D200068B9D8F8000040F08070C8F800002C6056
:101D300055F8040C40F0010045F8040C3E7040F2E8
:101D40001009C2F200092868D9F800104DF6836620
:101D5000C4F21B36A1FB0612910C0901A1EB9241C2
:101D6000490100BF2A68121A8A420BD22A68121A45
:101D70008A4207D22A68121A8A4203D22A68121AA1
:101D80008A42EFD3504620210122012401F06AFD4E
:101D9000387870B9D8F8000040F08070C8F80000BA
:101DA0000020286055F8040C40F0010045F8040CB0
:101DB0003C702868D9F80010A1FB0612910C0901AB
:101DC000A1EB9241890000BF2A68121A8A420BD205
:101DD0002A68121A8A4207D22A68121A8A4203D241
:101DE0002A68121A8A42EFD304B0BDE8F0870000D7
:101DF0002DE9F04F85B0044620200190112040F6D7
:101E0000000B02900120C4F2010B039003204EF658
:101E1000FC5A41F20407049001A95846CEF2000A88
:101E2000CEF2000701F008FC40F2800640F21005F7
:101E30004DF68368C2F20006C2F20005C4F21B38F8
:101E40004FF0010907E000BF6408B9F1080F09F17C
:101E5000010980F0C38058462021002201F002FDD4
:101E60003078E1075CD178B9DAF8000040F0807092
:101E7000CAF800000020386057F8040C40F0010058
:101E800047F8040C0120307038682968A1FB08125B
:101E9000910C0901A1EB9241890000BF3A68121A26
:101EA0008A420BD23A68121A8A4207D23A68121A48
:101EB0008A4203D23A68121A8A42EFD35846202146
:101EC000012201F0CFFC307878B9DAF8000040F058
:101ED0008070CAF800000020386057F8040C40F009
:101EE000010047F8040C0120307038682968A1FB14
:101EF00008126FF0010101EA524100BF3A68121A5C
:101F00008A42A1D23A68121A8A429DD23A68121ABB
:101F10008A4299D23A68121A8A42EFD394E700BFF4
:101F200078B9DAF8000040F08070CAF800000020AC
:101F3000386057F8040C40F0010047F8040C012009
:101F4000307038682968A1FB08126FF0010101EABE
:101F5000524100BF3A68121A8A420BD23A68121AEA
:101F60008A4207D23A68121A8A4203D23A68121A8F
:101F70008A42EFD358462021012201F073FC3078C9
:101F800078B9DAF8000040F08070CAF8000000204C
:101F9000386057F8040C40F0010047F8040C0120A9
:101FA000307038682968A1FB0812910C0901A1EB77
:101FB000924189003A68121A8A42BFF445AF3A68E2
:101FC000121A8A42BFF440AF3A68121A8A42BFF42A
:101FD0003BAF3A68121A8A42ECD335E705B0BDE848
:101FE000F08F0000704700002DE9F0478EB040F2FE
:101FF000180AC2F2000A9AF80200012810D1DAF891
:102000000C4000212046FEF727FB48B92046FEF78A
:10201000B2FB02460B4646A106A804F0C9FA0FE03F
:1020200046F67270C0F27200CDF81F0044F23A50CA
:10203000C7F27220079046F25450C7F26D00069026
:1020400006AC002000212246062303F0B9FBDAF893
:102050001000FEF790FB02460B4638A1204604F024
:10206000A7FA002010212246062303F0A9FBDAF884
:102070001400FEF780FB02460B4633A1204604F015
:1020800097FA002020212246062303F099FB40F214
:102090005C55C2F20005D5F82403FEF76CFB02463E
:1020A0000B462CA1204604F083FA00203021224662
:1020B000062303F085FB9AF8030029A12AA2002831
:1020C00008BF0A4600203821062303F079FB03F0FD
:1020D000D7FB01F0CDFBDAF82010401AB0F5FA6F0B
:1020E00023D90AF10C07C1CFFEF745FB80463046E5
:1020F0008946FEF740FB064638460C46FEF73BFB9A
:102100000746D5F824030D46FEF735FB04901AA0C8
:1021100042464B46CDE90064CDE90275059104F0D5
:1021200037FA01F0A5FBCAF820000EB0BDE8F08731
:1021300054656D703A252E3166430000536D6F670C
:102140003A252E3066252500434F3A252E306670FD
:10215000706D00005269736B3A252E3266000000E4
:102160004E6F726D616C000021212120414C415263
:102170004D20212121000000543A252E31662053A4
:102180003A252E3066252520434F3A252E3066709D
:10219000706D205269736B3A252E32660D0A00006D
:1021A00047F6F520C0F6000004F088FF40F6004432
:1021B000C4F20104EFF3108072B600BF2046202164
:1021C00001F048FBC82001F023FAF7E7B1F8222319
:1021D0000A2A4FF00002C0E90022C0E9022202618F
:1021E00038BF70472DE9F04F9FB0B1F8202305901C
:1021F00092B202F128074BF65202C0F21E52A7FB20
:102200000223322203FB12736FF02A0401EB031046
:102210001590180151F800C0581CB0F13202CDF8E9
:1022200050C018BF024610010858302B17906FF0AD
:102230002F0038BF0220184401EB00180001085895
:102240002F2B1B906FF02E0038BF032003EB0009EB
:102250006FF02D002E2B38BF042003EB000A6FF027
:102260002C002D2B01EB021E38BF05206FF02B0236
:102270002C2B38BF06222B2B38BF07246FF02907E1
:102280002A2B6FF02806184438BF0827292B38BF9F
:1022900009264FEA09151A441C441F44334401EB34
:1022A000091651F805B001EB0A194FEA0A1501EBBE
:1022B000001A000108584D591D9001EB021012013F
:1022C0008A581E951C9201EB041224010C593D0101
:1022D0001A9401EB071401EB03171B014D59C95860
:1022E000199518911599D1E9013102930B91DEE905
:1022F00001310A91D8E9015101930C91D6E90131DC
:10230000179E0D91D9F80810D9F804900E91DAF8BB
:102310000810DAF804A00F91D0E90110039304919A
:102320001090D2E9011006911190D4E901100791A3
:102330001290D7E901100891139060463146FDF7DD
:102340003BFF1B9C2146FDF737FF074620462146F1
:10235000FDF732FF3146FDF72FFF804638465946DC
:10236000CDF858B0FDF728FF00210746C4F2400120
:102370005846FDF779FF4146FDF71EFF1E9C0646B5
:1023800038462146FDF718FF074620464FF08141A9
:10239000FDF76AFF3146FDF70FFF1D9C06463846E4
:1023A0002146FDF709FF00210746C4F2A00120469F
:1023B0008846FDF759FF3146FDF7FEFE1C9C064698
:1023C00038462146FDF7F8FE00210746C4F2C00159
:1023D0002046FDF749FF3146FDF7EEFE1A9C064602
:1023E00038462146FDF7E8FE00210746C4F2E00129
:1023F0002046FDF739FF3146FDF7DEFE199C064603
:1024000038462146FDF7D8FE074620464FF0824168
:10241000FDF72AFF3146FDF7CFFE189C06463846E9
:102420002146FDF7C9FE002107460990C4F21011AC
:102430002046FDF719FF3146FDF7BEFE0021064696
:10244000CCF234213846FDF70FFF00210746C4F2D5
:1024500020113046FDF708FF3946FDF7ADFE44F286
:10246000000BC4F24E4B5946FDF730FF059C15900A
:102470002060DDE901703946FDF79EFE2946FDF733
:102480009BFE064628462946FDF796FE3946FDF78F
:1024900093FE039F054630463946FDF78DFE002129
:1024A00006463846C4F24001FDF7DEFE2946FDF738
:1024B00083FE054630464946FDF77EFE0646484601
:1024C0004FF08141FDF7D0FE2946FDF775FE054628
:1024D00030465146FDF770FE064650464146C1461D
:1024E000FDF7C2FE2946FDF767FE049F054630460C
:1024F0003946FDF761FE002106463846C4F2C001A8
:10250000FDF7B2FE2946FDF757FE069F0546304609
:102510003946FDF751FE002106463846C4F2E00177
:10252000FDF7A2FE2946FDF747FE079F0546304608
:102530003946FDF741FE064638464FF08241FDF729
:1025400093FE2946FDF738FEDDF82080054630462B
:102550004146FDF731FE002106464046C4F2101107
:10256000FDF782FE2946FDF727FE0021054630468D
:10257000CCF23421FDF778FE002106462846C4F24D
:102580002011FDF771FE3146FDF716FE5946FDF7A5
:102590009DFE8246A060DDE90A603146FDF70CFE33
:1025A0000C9F3946FDF708FE054638463946FDF7CB
:1025B00003FE3146FDF700FE0D9F064628463946CC
:1025C000FDF7FAFD002105463846C4F24001FDF74B
:1025D0004BFE3146FDF7F0FD0E9F06462846394674
:1025E000FDF7EAFD054638464FF08141FDF73CFE18
:1025F0003146FDF7E1FD0F9F064628463946FDF7B7
:10260000DBFD054638464946FDF72EFE3146FDF70F
:10261000D3FD109F064628463946FDF7CDFD002123
:1026200005463846C4F2C001FDF71EFE3146FDF7EF
:10263000C3FD119F064628463946FDF7BDFD002122
:1026400005463846C4F2E001FDF70EFE3146FDF7BF
:10265000B3FD129F064628463946FDF7ADFD0546F7
:1026600038464FF08241FDF7FFFD3146FDF7A4FDEE
:10267000139F064628463946FDF79EFD0021054674
:102680003846C4F21011FDF7EFFD3146FDF794FD19
:10269000002106462846CCF23421FDF7E5FD05462B
:1026A00030460026C4F220163146FDF7DDFD2946EE
:1026B000FDF782FD5946FDF709FE8046E060099866
:1026C00031463546FDF702FE064614983146FDF7C1
:1026D000C5FD0146FDF7C8FD074617983146FDF7D1
:1026E000BDFD0146FDF7C0FD3946FDF765FD074616
:1026F0001B983146FDF7B2FD0146FDF7B5FD3946A1
:10270000FDF75AFD074616983146FDF7A7FD01462D
:10271000FDF7AAFD3946FDF74FFD07461E983146E5
:10272000FDF79CFD0146FDF79FFD3946FDF744FD91
:1027300007461D983146FDF791FD0146FDF794FDD2
:102740003946FDF739FD07461C983146FDF786FDF1
:102750000146FDF789FD3946FDF72EFD07461A981B
:102760003146FDF77BFD0146FDF77EFD3946FDF75D
:1027700023FD074619983146FDF770FD0146FDF728
:1027800073FD3946FDF718FD074618983146FDF7E9
:1027900065FD0146FDF768FD3946FDF70DFD29464B
:1027A000FDF794FD606015980021FDF77FFF064658
:1027B00050460021FDF77AFF07460546002818BF5E
:1027C0004FF07C5740460021002E08BF3746FDF7EA
:1027D0006DFF064638464FF07C51FDF7EDFC002EAC
:1027E00008BF3846002D08BF384620611FB0BDE83D
:1027F000F04F70472DE9F04F89B00746B0F822033B
:102800000A2805D20027384609B0BDE8F08F00BF7E
:1028100004A83946FFF7DAFCB7F820034BF652015B
:102820003130C0F21E51A0FB0112322102FB110116
:1028300040F28440C2F200000A01D0F800B0D0E9B2
:102840000254B85807EB011A59460392FDF706FDEA
:1028500049F69A11CBF69961FDF706FD04F074FB79
:102860004FF07E51FDF7A8FC01464FF07E50FDF77A
:102870002DFDD14659F8041F0290084629460195BE
:10288000FDF7ECFC4CF6CD41CBF64C61FDF7ECFCD2
:1028900004F05AFB4FF07E51FDF78EFC01464FF0DD
:1028A0007E50FDF713FD5AF8081F054608462146DD
:1028B0000094FDF7D3FC4CF6CD41CBF6CC51FDF79F
:1028C000D3FC04F041FB4FF07E51FDF775FC01464F
:1028D0004FF07E50FDF7FAFC049C0646204600218E
:1028E000FDF7C8FE002818BF002420464FF04041E5
:1028F000FDF762FC4FF04041FDF7B6FC04F024FB0D
:102900004FF07E51FDF758FC01464FF07E50FDF729
:10291000DDFC43F233310446C3F6B3612846FDF7CC
:10292000A3FC4CF6CD480546C3F64C6802984146D8
:10293000FDF79AFC2946FDF73FFC054630464FF06F
:102940007A51FDF791FC2946FDF736FC05462046F5
:102950004146FDF789FC2946FDF72EFC03997C587A
:1029600000210746C4F2A0015846FDF725FC0146A8
:102970002046FDF771FE28BB019E4CF6CD41D9F8EB
:102980000050C3F64C613046FDF76EFC0146284608
:10299000FDF77EFEB8B94CF6CD410098DAF800504C
:1029A000C3F6CC51FDF760FC01462846FDF770FEEA
:1029B00048B94CF6CD41C3F6CC613846FDF754FC1E
:1029C000074600E0019E20465946FDF745FE18BB2C
:1029D0004CF6CD41D9F80040C3F6CC613046FDF746
:1029E00043FC01462046FDF737FEA8B94DF20A71B7
:1029F0000098DAF80040C3F6A351FDF735FC014614
:102A00002046FDF729FE38B946F26661C3F6A67185
:102A10003846FDF729FC074638464FF07E51FDF752
:102A200045FE002818BF4FF07E5738460021FDF7BD
:102A300021FE002818BF0027384609B0BDE8F08FF6
:102A400080B54FF44D71FDF774FB80BDF0B581B0DA
:102A50001D4616460F46044600F00AFFB4F8201340
:102A60004BF652030A01A750B4F82023C0F21E53BC
:102A70000132A2FB0337322307FB132204EB0113BD
:102A8000B4F82213C3E90165D8603129A4F82023E2
:102A90009CBF481CA4F822032046FFF7ABFED4F8E5
:102AA00024130546FDF7D8FD40B994F830130120F2
:102AB00084F82903481C84F830030DE049F69A1184
:102AC0000026C3F69961284684F82963FDF7E0FDE6
:102AD000002808BF84F8306340F28440C2F200004E
:102AE000066949F69A11C3F699613046C4F8245331
:102AF000FDF7BAFB2946FDF7D9FD28B1002184F87E
:102B0000281301B0F0BD00BF49F69A11C3F6197140
:102B10003046FDF7A9FB2946FDF7C8FD20B101218C
:102B200084F8281301B0F0BD30462946FDF7BEFDFC
:102B300020B1022184F8281301B0F0BD4FF07E507F
:102B40003146FDF78BFB4FF07C51FDF78DFB314695
:102B5000FDF732FB2946FDF7A9FD0421002818BF27
:102B6000032184F8281301B0F0BD000070B582B0D5
:102B700004460020019094F82400012804D1022585
:102B8000284602B070BD00BF012084F82400204612
:102B9000FEF7EEF92046FEF74FFA0546002867D10A
:102BA000A06A41F2021188430230A06240F2100094
:102BB000C2F200000668022000F016FFB6FBF0F03B
:102BC000400001900198A0B101980138019001984E
:102BD00078B1019801380190019850B101980138FD
:102BE0000190019828B101980138019001980028BE
:102BF000EAD12068816841F00801816000F038FE68
:102C000021688A6812070DD4886840F00400886043
:102C100000F02EFE21688968490713D401206FF067
:102C2000030121E0064602E088680007ECD500F0C9
:102C30001FFE801B21680B28F6D388680007F3D598
:102C40000EE000BF064602E080684007E6D500F0CF
:102C50000FFE811B20680B29F6D381684907F3D545
:102C6000012510206FF01201A26A11400843A062F2
:102C7000002084F82400284602B070BD7047000090
:102C800010B581B00022009290F82420012A03D1CF
:102C90000221084601B010BD4B680122062B80F8C6
:102CA000242033D8D0F800C003EB83035A1F1F231E
:102CB000DCF834E003FA02F40B682EEA040403FAA9
:102CC00002F22243CCF83420092B03EB430249D90A
:102CD000DCF80CE01E3A0724896894402EEA0404CC
:102CE000914023F001022143102ACCF80C1043D16B
:102CF00042F20841C4F20101A1F10802944543D017
:102D0000816A41F020018162012136E0D0F800C0E3
:102D10000C2B03EB830213D8233A1F23DCF830E09B
:102D200003FA02F40B682EEA040403FA02F22243C7
:102D3000CCF83020092B03EB4302C9D812E000BFC6
:102D4000413A1F23DCF82CE003FA02F40B682EEA68
:102D5000040403FA02F22243CCF82C20092B03EBE3
:102D60004302B5D8DCF81030072489689440A343A7
:102D700091401943CCF810100021002280F8242043
:102D8000084601B010BD00BF0A681202F4D40A68F8
:102D9000102B42F400020A60EED140F21001C2F2A0
:102DA000000109684DF68362C4F21B32A1FB0212D6
:102DB000910C01EB81014900009100990029DBD0C1
:102DC00000990139009100990029D5D00099013965
:102DD000009100990029CFD0009901390091009904
:102DE0000029C9D0009901390091009900294FF0BC
:102DF0000001E5D1C1E7000040F2A041C2F20001AC
:102E0000884218BF704740F21800C2F2000000F17B
:102E1000080140F2A040C2F20000022200F088B98E
:102E2000704700007047000070B5044600680568F0
:102E30004668B10627D515F0020124D0A16AC9065B
:102E400003D4A16A41F40071A162816801F4602198
:102E5000B1F5602F10D1217B71B9416821F02001BB
:102E60004160A06A20F48070A062A06AC00403D40C
:102E7000A06A40F00100A0622046FFF7BDFF206875
:102E80006FF012010160310633D515F0040130D026
:102E9000A16AC90603D4A16A41F40051A162816804
:102EA00001F4E041B1F5E04F10D1416821F080011B
:102EB0004160A06A20F48050A062A06AC00511D4CD
:102EC000A06A40F00100A0620CE000BF4168490523
:102ED00008D4816801F46021B1F5602F02D1217B13
:102EE0000029E2D02046FFF7C9FE20686FF00C01F0
:102EF000016070060ED515F0010008BF70BDA06A14
:102F000040F48030A062204600F0B6F820686FF0F0
:102F10000101016070BD0000002804BF012070475E
:102F2000B0B50446806A28B121688868C0070CD112
:102F300015E000BF0020E06284F82400204600F085
:102F40009DF821688868C00709D0886820F00100D2
:102F5000886000F08DFC21688A68D20726D1A06ABB
:102F6000C0063AD4A06A41F2021290430230A06235
:102F7000E069D4E9013240EA030C531EB3FA83F34B
:102F80005D091346B2F5807F18BF2B02207D257B9B
:102F900001284CEA450030D135B3A56A45F020053B
:102FA000A562E56A45F00105E56226E0054602E016
:102FB0008868C007D3D000F05BFC401B2168032861
:102FC000F6D38868C007F3D0A06A40F01000A06272
:102FD000E06A40F00100E062A06AA06A40F01000E0
:102FE000A0620120B0BD00BFD4F818C04EF60005A5
:102FF000CFF6FF7505EB4C352B434D68B2F5807F5E
:1030000025F4694543EA05034B608B684FF2FD7573
:10301000CFF6E17503EA050343EA00038B6001D0B4
:10302000012A07D122690023CFF6F07303EB025285
:1030300001E000BF0022CB6A23F470031A43CA6286
:10304000896840F6FE62CFF61F721140814207D1B7
:103050000020E062A16A012262F30101A162B0BD19
:10306000A06A40F0100020F00200A062E06A40F088
:103070000100E0620120B0BD7047000070B586B06D
:10308000044640F60000C4F20100216800F5E05259
:10309000002691420596049602D006B070BD00BF8E
:1030A00041F21801C4F202010A6842F400720A6097
:1030B0000A6802F400720192019A0A6842F004025E
:1030C0000A60096801F0040101910199442102910B
:1030D0000321039102A900F0AFFA40F2D045082085
:1030E000C2F20005C4F202004FF48072C5E9000686
:1030F00005F1100080214FF480634FF0200C80E830
:103100000C102846C5E90261EE6100F0EDF90028D7
:1031100018BFFFF745F812200021002225626C62DB
:1031200000F026FC122000F011FC06B070BD00007B
:1031300070B515460446006842F60002C4F201026A
:1031400090420E4605D042F20041C4F2010188428D
:103150000AD142F20440C4F20100006810F4702F5A
:1031600002D0012070BD00BF94F82400012804BFE4
:10317000022070BD012084F824002046FDF75CFF8A
:1031800020B1002084F82400012070BD42F20440E8
:103190002168A26AC4F2010040F601739A4300F567
:1031A0007F7302F580729942A26243D0A06A20F434
:1031B0008010A0624868400504D5A06A012262F32D
:1031C0000D30A062A26A0020D2044FF0000244BF7A
:1031D000E26A22F00602E26284F82400206A40F6E5
:1031E000C572C0F6000241F2310341F2190C00F140
:1031F000280EC0F60003C0F6000C8EE80C106FF02D
:1032000002020A608A682B4642F480728A604C315E
:10321000324600F0ADF92068816801F460228168CF
:10322000B2F5602F0CBF41F4A00141F48011816020
:10323000002070BD026812F4702FB7D0A26A42F469
:103240008012A26200684005B7D4BBE7014690F83F
:103250002100022816D10868D1E90FC3026822F0C4
:103260000E020260026822F001020260012000FAF0
:1032700003F2CCF8042081F821000020002281F81C
:1032800020207047042088630120002281F820203C
:103290007047000090F82110022923D102681168BC
:1032A00021F00E0111602F211368C4F202018A423D
:1032B00040F20401C4F2020123F00103136015DDA2
:1032C0003023C4F202039A421CD04423C4F2020306
:1032D0009A421BD05823C4F202039A421CD14FF4E5
:1032E000803321E004218163012070470823C4F268
:1032F00002039A420ED01C23C4F202039A420BD15D
:10330000102311E04FF480730EE000BF4FF48053A0
:103310000AE000BF012307E001F1680C4FF0807361
:10332000624508BF4FF480130B60012180F8211023
:10333000426B002180F8201022B180B59047002117
:10334000BDE880400846704710B5D0E90FCE01684F
:10335000DCF800300A6823FA0EF35C072AD512F075
:10336000040427D00A68920603D40A6822F00402F3
:103370000A602F22C4F20202914240F20402C4F217
:1033800002025BDD3023C4F20203994272D044236F
:10339000C4F20203994273D05823C4F20203994243
:1033A00040F07A804FF480231360C16A002940F016
:1033B00098806FE09C0727D512F0020424D00A6899
:1033C000920606D40A6822F00A020A60012280F8F6
:1033D00021202F22C4F20202914240F20402C4F2E0
:1033E00002023BDD3023C4F20203994260D0442341
:1033F000C4F2020399425FD05823C4F202039942F7
:1034000060D14FF4003365E01B0743D512F008028A
:1034100008BF10BD0A6822F00E020A60012101FAFD
:103420000EF2CCF80420816380F82110016B002299
:10343000002980F8202054D12CE000BF0823C4F2DA
:103440000203994222D01C23C4F20203994223D1E1
:1034500040231360C16A002943D11BE00823C4F252
:10346000020399422CD01C23C4F20203994229D1B1
:1034700020232FE04FF480631360C16A89BB09E009
:103480004FF480431360C16A59BB03E00423136007
:10349000C16A31BB10BD00BF02F168044FF0806308
:1034A000A14208BF4FF480031360C16AC9B9F1E7B4
:1034B0004FF400730EE000BF4FF400530AE000BF6A
:1034C000022307E002F168044FF00073A14208BF35
:1034D0004FF400131360816A0022002980F8202035
:1034E000D8D0BDE810400847014600284FF0010041
:1034F00008BF70472DE9F0470A684FF6F873CBF61E
:10350000FD7302EB030C4CF6CD43CCF6CC43ACFB85
:10351000033C6FF00307002607EA9C07C4F202068B
:1035200001F10C0AC1E90F670227D1E9013E9AE8CF
:103530003004D1E9069881F82170176843F6F076D7
:10354000B7433B4343EA0E0323432B4343EA0A03B7
:1035500043EA090343EA0803136000228A6381F8FF
:10356000210081F820200020BDE8F04770470000CE
:1035700090F820C0BCF1010F04BF02207047F0B5E5
:103580004FF0010E80F820E090F821C0BCF1010F4F
:1035900026D14FF0020C80F821C04FF0000CC0F88B
:1035A00038C0D0E900C4C56AC66BDCF80070102CC6
:1035B00027F00107CCF80070006C0EFA00F0706084
:1035C0000846CCF8043004BF10460A46CCF8080080
:1035D000CCF80C20DCF8000045B140F00E000DE006
:1035E000002180F820100220F0BD00BF20F0040070
:1035F000CCF80000DCF8000040F00A00CCF8000035
:10360000DCF8000040F00100CCF800000020F0BD24
:10361000B0B5044600F02CF9054640F20800C2F2AD
:1036200000000078611C18BF044400BF00F020F9BE
:10363000401BA042FAD3B0BD2DE9F04F82B00E6816
:10364000002E00F0FD8041F20042C4F2010204238A
:1036500040F2004E904208BF03234FF6FF7CC4F2B5
:10366000010E009300240123C1F2100C4FF0000A58
:103670004FF0000944E000BF012704F00C030F22C3
:103680009A402BEA020207FA03F34FEA9A051A431B
:1036900046F825204E6840F20C45F202DEF808207C
:1036A00054BF22EA080242EA0802C4F20105CEF839
:1036B00008202A68B30254BF22EA080242EA08023C
:1036C0002A60B303DEF8042054BF22EA080242EA6B
:1036D0000802F303CEF80420DEF800204FF00103C7
:1036E00054BF22EA080242EA0802CEF800200E681F
:1036F0000AF1010A36FA0AF204F1040400F0A0808B
:1037000003FA0AFB16EA0B08F1D04E68664511DC95
:10371000122E55D8DFE806F0340A44485454545465
:103720005454545454545454544C5000D1F80C90A4
:1037300046E000BF4FF6FF72C1F2210296420FDC55
:103740000022C1F2110296421AD00022C1F21202E6
:10375000964215D00022C1F22102964210D02FE0ED
:103760000022C1F2220296420AD00022C1F23102A6
:10377000964205D00022C1F23202964220D100BF0B
:103780008A684AB1012A14BFC0F814B0C0F810B05A
:103790004FF0080914E000BF4FF0040910E000BF2B
:1037A000CA6802F108090BE04FF0000908E000BF09
:1037B000CA6802F1040903E0CA6802F10C0900BFFB
:1037C00022460646B8F5807F24BF203A0436376883
:1037D0000F25954027EA050509FA02F22A433260CF
:1037E000CA79D2067FF583AF41F21803C4F202030F
:1037F0001A68AEF57E7642F001021A601A6802F08D
:1038000001020192019A2AF0030256F802B040F632
:103810000002C4F20102904210D040F60042C4F20D
:10382000010290423FF428AF41F20002C4F20102CB
:10383000009F904208BF02271FE700BF00271CE738
:1038400002B0BDE8F08F00008068084018BF01207A
:1038500070470000C26802EA0103914341EA034154
:1038600001617047002A08BF090401617047000028
:1038700040F69000C2F200000068704740F2080075
:1038800040F69001C2F20000C2F2000100780A681E
:10389000104408607047000080B542F20000C4F296
:1038A0000200016841F010010160032000F08CF873
:1038B0000F2000F005F800F027F8002080BD000080
:1038C00070B540F20806C2F2000640F210013278EC
:1038D000C2F200014FF47A730968B3FBF2F20446B6
:1038E000B1FBF2F1084600F087FC0F2C4FF0010508
:1038F00008D838B94FF0FF3021460022002500F0EB
:1039000037F87460284670BD82B041F21800C4F2E6
:1039100002000168022241F001010160016801F02A
:10392000010101910199416841F080514160406875
:1039300000F08050009000980420C4F2010001685B
:1039400062F31A61016002B070470000002848BFAE
:10395000704700F01F01012202FA01F11C2202EA65
:10396000D0004EF20012CEF20002815070470000EB
:1039700010B54EF60C5CCEF2000CDCF80030C3F350
:10398000022E8EF00704042C28BF0424BEF103038A
:103990004FF0FF3E0EFA04F438BF0023A1439940D4
:1039A0000EFA03F39A43114300F00F0200F1604353
:1039B0000901043A03F564436244002848BF02F158
:1039C0000C03197010BD00004EF60C51CEF2000130
:1039D0000A684FF6FF031A4060F30A2242F0806043
:1039E00040F0FD700860704701280FD002282DD0EC
:1039F000102808D141F20401C4F202010A6851F80A
:103A0000040CC00134D40020704700BF41F2040010
:103A1000C4F20200C16940F202320A40B2F5817F6D
:103A200004BF4FF40040704701F44071B1F5407F8E
:103A30002AD0B1F5007F1CBF00207047006A49F60C
:103A40004041800701EAE070704700BF80B500F098
:103A5000BFF941F20401C4F2020109680222C1F374
:103A6000813102EB4101B0FBF1F0BDE880407047CD
:103A7000C2F3834015A3185CD2030DD440F60012A4
:103A8000C0F23D02504313E050F8040C4FF22441C1
:103A9000800301EAE07070470A6810A3C2F3404255
:103AA0009A5C41F20023C0F27A03B3FBF2F2504376
:103AB0000968490248BF70474AF6AB214000CAF680
:103AC000AA21A0FB01014808704700BF02030405BA
:103AD000060708090A0B0C0D0E0F1010010200005A
:103AE0002DE9F04182B00446007841F21C06C0077F
:103AF000C4F202064AD030685FEAC00808D43068D1
:103B000040F080503060306800F0805001900198A3
:103B100047F20007C4F200073868C00512D43868BD
:103B200040F480703860FFF7A3FE05463868C00592
:103B300008D4FFF79DFE401B6428F7D9032002B08C
:103B4000BDE8F081706810F4407012D0616801F433
:103B5000407188420DD0706840F24042C4F2422267
:103B6000012320F4407113600023C00713607160CB
:103B700026D17068616820F440700843B8F1000FE6
:103B8000706003D4306820F0805030602068810776
:103B900007D556F8181CA26821F44041114346F895
:103BA000181CC00607D556F8180CE16820F48000F0
:103BB000084346F8180C002002B0BDE8F08100BFB1
:103BC000FFF756FE054641F2883700BF7068800750
:103BD000CFD4FFF74DFE401BB8424FF00300F5D99C
:103BE000EAE70000002804BF012070472DE9F043F8
:103BF00081B042F20008C4F202080446D8F800007E
:103C00000D4600F0070088420CD2D8F8000020F0E2
:103C100007002843C8F80000D8F8000000F00700AB
:103C2000A8426CD1206841F204098107C4F202095C
:103C300017D5410705D5D9F8001041F4E061C9F85E
:103C40000010010705D5D9F8001041F46051C9F8FA
:103C50000010D9F80010A26821F0F0011143C9F852
:103C60000010C00742D1D8F8000000F00700A842B9
:103C70000CD9D8F8000020F007002843C8F800004D
:103C8000D8F8000000F00700A84238D120684107AA
:103C900007D5D9F80010E26821F4E0611143C9F8B2
:103CA0000010000708D5D9F80000216920F4605001
:103CB00040EAC100C9F80000D9F8002002F00C0069
:103CC000082841F20020C0F27A0051D147F6BC1317
:103CD000C2F38341C0F60003595CD2033CD440F6E2
:103CE0000010C0F23D00484342E000BF6068022877
:103CF0000AD001282AD159F8041C890308D40120CC
:103D000001B0BDE8F08300BF59F8041C8901F6D565
:103D1000D9F8001021F003010843C9F80000FFF7AB
:103D2000A7FD064641F28837D9F80000616800F027
:103D30000C00B0EB810F96D0FFF79AFD801BB842C4
:103D4000F2D9032001B0BDE8F08300BF59F8041C8C
:103D50008907D4D5DCE700BFD9F8002047F29013DB
:103D6000C2F34042C0F600039A5C4843B0FBF2F055
:103D7000D9F8001047F27812C1F30311C0F600021F
:103D8000515C40F2100220FA01F140F20C00C2F244
:103D900000000068C2F200021160FFF791FD0020F0
:103DA00001B0BDE8F083000040F2100041F20401D0
:103DB000C2F20000C4F202010068096847F28812EA
:103DC000C1F30221C0F60002515CC84070470000F8
:103DD00040F2100041F20401C2F20000C4F20201FC
:103DE0000068096847F28812C1F3C221C0F60002D8
:103DF000515CC84070470000002804BF0120704794
:103E00002DE9F04182B00446007841F20006C00777
:103E1000C4F202060CD0706800F00C00042840F0D8
:103E200081803068800303D56068002800F04E81EF
:103E3000207880071BD5706810F00C0F09D07068CF
:103E400000F00C00082840F08B807068C00300F17F
:103E500087803068800703D52069012840F03681CB
:103E60003068616920F0F80040EAC10030602078D5
:103E7000000713D4207840072CD4E569002D00F00A
:103E80002081706800F00C00082840F0AF80012D00
:103E900040F00C81012002B0BDE8F081A06900284B
:103EA00000F08C800020C4F242200121C0F8801470
:103EB000FFF7DEFC054600BF706A800700F1BA809C
:103EC000FFF7D6FC401B0228F6D9032002B0BDE85C
:103ED000F08100BFF0695FEAC00808D4F06940F0E3
:103EE0008050F061F06900F080500090009847F237
:103EF0000007C4F200073868C0054DD4386840F4A4
:103F000080703860FFF7B4FC054600BF3868C00514
:103F100042D4FFF7ADFC401B6428F7D9032002B060
:103F2000BDE8F081706800F00C00082803D17068CB
:103F3000C0033FF576AF6068002800F00981B0F556
:103F4000A02F00F01D81B0F5803F00F01D8130688A
:103F500020F480303060306820F4802017E100BF0A
:103F60002069002840F20000C4F2422000F08C805A
:103F700001210160FFF77CFC054600BF3068800727
:103F80003FF56EAFFFF774FC401B0228F6D9032003
:103F900002B0BDE8F08100BFE068002800F09A8020
:103FA000052800F0B180012800F0B280306A20F0CE
:103FB00001003062306A20F00400ACE00020C4F25E
:103FC00042200021C0F88014FFF752FC054600BFD4
:103FD000706A80077FF54EAFFFF74AFC401B02284E
:103FE000F6D9032002B0BDE8F08100BF0027C4F27B
:103FF000422700203866FFF73BFC022D05460DD115
:104000003068800140F1D680FFF732FC401B022867
:104010004FF00300F4D902B0BDE8F08130688001B0
:104020004FD5FFF725FC401B02284FF00300F5D9C0
:10403000F1E700BF40F21000C2F20000006844F651
:10404000D351C1F26201A0FB0101480A019000BFF7
:1040500000BF0198411E002801913FF40BAF00BF43
:104060000198411E002801913FF404AF00BF019860
:10407000411E002801913FF4FDAE00BF0198411E92
:1040800000280191E4D1F5E600210160FFF7F0FB83
:10409000054600BF306880077FF5E9AEFFF7E8FB13
:1040A000401B02284FF00300F4D9B4E77068216A7E
:1040B00000F480328A4209D1616A00F470108842AB
:1040C00004D1002002B0BDE8F08100BF012002B0A1
:1040D000BDE8F081306A20F001003062306A20F0E3
:1040E00004003062FFF7C4FB054641F2883700BF89
:1040F000306A800722D5FFF7BBFB401BB8424FF068
:104100000300F5D987E700BF306A40F00400306251
:10411000306A40F001003062FFF7AAFB054641F229
:10412000883700BF306A800708D4FFF7A1FB401B27
:10413000B842F7D9032002B0BDE8F081B8F1000F12
:104140003FF59BAEF06920F08050F06195E600BF2E
:10415000306820F480303060306820F48020306097
:10416000FFF786FB054600BF306880037FF560AE31
:10417000FFF77EFB401B64284FF00300F4D94AE7A9
:10418000306840F480203060306840F48030306027
:10419000FFF76EFB054600BF306880033FF548AE71
:1041A000FFF766FB401B6428F6D9032002B0BDE888
:1041B000F08100BF206AB0F5803F05D17168A26828
:1041C00021F40031114371607168626A21F4741145
:1041D00011430843706001203866FFF749FB04462D
:1041E000306880013FF56DAFFFF742FB001B0228EE
:1041F0004FF00300F4D90EE7411E0020B0EB116F21
:104200001CBF012070474EF21002CEF20002516036
:104210004EF62351CEF20001F0230B70072190607F
:10422000116070477047000070470000B0B582B061
:10423000044600680168C368426901F02F05202D1B
:1042400003F0200506D12DB1204602B0BDE8B040F4
:1042500002F01CB85FEA017C1EBF02F0010E03F4FD
:10426000907212EB0E0243D1226BCD0618D5012AB3
:1042700016D113F0100213D00021019101680191B1
:10428000416801910199406940063BD4A08DE18DC0
:10429000E28D002A18BF884240F0F28102B0B0BD22
:1042A0000A0640F1E78013F0800200F0E38094F802
:1042B00041102129F2D1A168B1F5805F03D12169B4
:1042C000002900F06382216A4A1C22620978416059
:1042D000E18C01390A04E184E0D1C16821F0800158
:1042E000C160C16841F04001C16002B0B0BD00BF13
:1042F000CA0718BF13F4807240F0D0804A0700F15B
:10430000D380D8E0E06B016849688AB2002AC5D042
:10431000A38D9A42C2D2E1858069202800F09E8058
:10432000206850E8030F216820F4807041E8030200
:10433000DAB1206850E8030F216820F4807041E86A
:10434000030292B1206850E8030F216820F48070C6
:1043500041E803024AB1206850E8030F216820F4C5
:10436000807041E80302002ADAD1206850E8050F86
:10437000216820F0010041E80502C2B3206850E83E
:10438000050F216820F0010041E805027AB320689A
:1043900050E8050F216820F0010041E8050232B322
:1043A000206850E8050F216820F0010041E805026F
:1043B000002ADAD11BE000BF206850E8050F216811
:1043C00020F0400041E80502DAB1206850E8050F0E
:1043D000216820F0400041E8050292B1206850E8D1
:1043E000050F216820F0400041E805024AB120682D
:1043F00050E8050F216820F0400041E80502002A3E
:10440000DAD1202084F8420000202063206850E8A0
:10441000030F216820F0100041E80302DAB12068A0
:1044200050E8030F216820F0100041E8030292B128
:10443000206850E8030F216820F0100041E80302D3
:104440004AB1206850E8030F216820F0100041E8CD
:104450000302002ADAD1E06BFEF7F8FE0220606367
:10446000A08DE18D401A81B2204602B0BDE8B04077
:10447000FFF7D8BE49067FF511AF13F040013FF4B6
:104480000DAFC16821F04001C1602021204684F8B1
:10449000411002B0BDE8B04000F04EBB626C42F08B
:1044A000010262644A0706D5BEF1000F03D0626CB8
:1044B00042F0020262648A0706D5BEF1000F03D003
:1044C000626C42F004026264BCF1000F06D55EEA41
:1044D000050203D0626C42F008026264626C002A3A
:1044E0003FF4DCAE890604D51DB1204601F0CEFEB6
:1044F00020684069616C00F0400001F0080140183C
:1045000000F0B680206850E8030F216820F4907016
:1045100041E80302BAB3206850E8030F216820F491
:10452000907041E8030272B3206850E8030F2168DD
:1045300020F4907041E803022AB3206850E8030F8A
:10454000216820F4907041E80302002ADAD11AE0D1
:10455000206850E8050F216820F0010041E80502BD
:10456000DAB1206850E8050F216820F0010041E829
:10457000050292B1206850E8050F216820F0010083
:1045800041E805024AB1206850E8050F216820F093
:10459000010041E80502002ADAD1206B012824D16C
:1045A000206850E8030F216820F0100041E8030262
:1045B000DAB1206850E8030F216820F0100041E8CC
:1045C000030292B1206850E8030F216820F0100028
:1045D00041E803024AB1206850E8030F216820F047
:1045E000100041E80302002ADAD1202084F84200BA
:1045F0000020206320684069400640F1C1802068A7
:1046000050E8050F216820F0400041E80502DAB1CA
:10461000206850E8050F216820F0400041E80502BD
:1046200092B1206850E8050F216820F0400041E871
:1046300005024AB1206850E8050F216820F04000CB
:1046400041E80502002ADAD1E06B002800F09880EA
:1046500046F28121C0F600014163FEF71BFE0028EF
:104660003FF41CAEE06B416B02B0BDE8B0400847C0
:104670002046FFF7D9FD0020606402B0B0BD00BF46
:10468000401A00BF216851E8031F226821F490718D
:1046900042E80313BBB3216851E8031F226821F4E9
:1046A000907142E8031373B3216851E8031F226835
:1046B00021F4907142E803132BB3216851E8031FE2
:1046C000226821F4907142E80313002BDAD11AE03A
:1046D000216851E8051F226821F0010142E8051315
:1046E000DBB1216851E8051F226821F0010142E891
:1046F000051393B1216851E8051F226821F00101DB
:1047000042E805134BB1216851E8051F226821F0EA
:10471000010142E80513002BDAD1202184F8421070
:1047200000212163216851E8031F226821F0100154
:1047300042E80313DBB1216851E8031F226821F02E
:10474000100142E8031393B1216851E8031F226866
:1047500021F0100142E803134BB1216851E8031F17
:10476000226821F0100142E80313002BDAD1022263
:1047700081B22046626302B0BDE8B040FFF752BD8F
:10478000204602B0BDE8B040FFF74EBD216A31F8C7
:10479000022B6FF35F224260216299E5002804BF7B
:1047A0000120704710B5044690F8410028B9002058
:1047B00084F84000204600F063F8242084F841008B
:1047C0002068D4E90212C36823F40053C36003696C
:1047D00023F440531A430261D4E904231143C2680D
:1047E000194341F20C639A431143C1604169A269C4
:1047F00021F44071114343F60002C4F201029042D9
:10480000416103D0FFF7D0FA02E000BFFFF7E0FA02
:10481000D4E90023192148439900B0FBF1F048F294
:104820001F5CC5F2EB1CA0FB0C314FF69C734909D1
:10483000C0F6FF7301FB0300322303EB0010A0FB63
:104840000C03F02000EA531000EB0110C3F34311F6
:10485000084490601069202120F490401061506954
:1048600020F02A005061D06840F40050D060002051
:10487000606484F8411084F84210606310BD000049
:1048800070B586B040F60004C4F20104006804F577
:10489000405100268842049602D006B070BD00BF89
:1048A00041F21800C4F20200016802AD41F48041F7
:1048B0000160016801F4804101910199016841F0B2
:1048C000040101600068294600F00400019001988D
:1048D0004FF40070029002200390032005902046C0
:1048E000FEF7AAFE4FF48060CDE902062046294675
:1048F0000496FEF7A1FE252000210022FFF738F8DC
:104900002520FFF723F806B070BD000090F8423074
:10491000202B07D100294FF0010318BF002A05D131
:104920001846704702231846704700BF00230363F0
:10493000816222218285C285436480F84210016928
:10494000006819B1C16841F48071C160416941F0EA
:1049500001014161C16841F02001C1601846704702
:1049600040F21451C2F20001884218BF704710B5DE
:1049700040F21804C2F2000460783E2806D80130E4
:104980006070204400F1280104E000BF002004F121
:104990002801607040F21450C2F200000122FFF7BB
:1049A000B5FF607840B1204490F827000D2801D071
:1049B0000A2801D101202070BDE810407047000096
:1049C0002DE9F041044690F8410020281CBF022048
:1049D000BDE8F0810D4600294FF0010000F0AA80EB
:1049E0001646002A08BFBDE8F0810020606421203F
:1049F000984684F84100FEF73BFFA684E684A16850
:104A00000646B1F5805F02D12069002862D02F46AA
:104A10000025E08C002861D018F1010018D0B8F111
:104A2000000F37D1216808E017F8010B4860E08CCF
:104A30000138E084E08C002851D00868000673D566
:104A4000002FF1D135F8020B00276FF35F20EDE75F
:104A5000216802E00868000609D40868000606D448
:104A6000086800065CBF08685FEA0060F2D51FB105
:104A700017F8010B05E000BF35F8020B00276FF3B4
:104A80005F204860E08C0138E084E08C0028E4D1AD
:104A900025E000BF216800BF0868000608D4FEF7C3
:104AA000E7FE801B404541D82168C868F4E700BF95
:104AB00017B117F8010B04E035F8020B00276FF36C
:104AC0005F204860E08C0138E084E08C0028E3D16E
:104AD00005E000BF0027E08C00289DD12168086810
:104AE00040061FD4B8F1000F1ED018F101000FD1FD
:104AF0000868400616D40868400613D408684006C3
:104B000010D4086840064FF00000F1D50FE000BF58
:104B1000FEF7AEFE801B404508D82068C1680068DB
:104B20004006F5D5002002E0FEF7A2FE032020217A
:104B300084F84110BDE8F08170470000FEE70000F6
:104B400010B584B040F2A04042F20041C2F2000031
:104B5000C4F201014FF4807C012400234FF4602251
:104B600080E80A10022104730375C2610161FEF737
:104B7000D3F9002818BFFDF713FB0620CDE9010487
:104B80000720039040F2A040C2F2000001A9FEF706
:104B900077F8002818BFFDF703FB0220CDE90100DC
:104BA0000020039040F2A040C2F2000001A9FEF7ED
:104BB00067F8002818BFFDF7F3FA04B010BD000035
:104BC00080B582B041F21400C4F2020001680022F4
:104BD00041F0010101600068002100F00100019036
:104BE00001980B20FEF7C4FE0B2002B0BDE8804008
:104BF000FEF7ACBE2DE9F04385B041F21800C4F2D7
:104C00000200016840F6000441F0100101600168F3
:104C1000C4F2010401F01001019101990168002220
:104C200041F0200101600168012601F0200101919D
:104C3000019901684FF0000941F004010160016829
:104C400001F0040101910199016841F0080101603E
:104C50000068012100F00800019001982046FEF74D
:104C600001FE2046022100224FF00208FEF7FAFD65
:104C70001120CDE90206032001AD0490204629460B
:104C80000196FEF7D9FC20462946CDF80480FEF7B0
:104C9000D3FC202720462946CDE90179CDF80C9098
:104CA000FEF7CAFC04F580602946CDE90176CDE91E
:104CB0000368FEF7C1FC05B0BDE8F08380B540F2A3
:104CC000145043F60001C2F20000C4F201010023B7
:104CD0004FF00C0C4FF4164280E80E00C0E903338D
:104CE000C0E905C3C361FFF759FD002808BF80BDB7
:104CF000BDE88040FDF754BAFEE70000FEE7000083
:104D000080B540F28400C2F200004FF48061FBF7EE
:104D100010FA80BD70B586B041F21800C4F20200EE
:104D2000016840F6000441F0100101600168C4F21E
:104D3000010401F0100101910199016801AD41F0F8
:104D4000040101600068012600F004000190019850
:104D50001120029003200490022001902046294651
:104D60000396FEF769FC204629460196FEF764FC8F
:104D7000204601210122FEF775FD0025ADF81650F1
:104D8000BDF81600022823D8BDF816000130ADF892
:104D90001600BDF8160002281AD8BDF8160001301A
:104DA000ADF81600BDF81600022811D8BDF816009F
:104DB0000130ADF81600BDF81600022808D8BDF87D
:104DC00016000130ADF81600BDF816000328DBD33D
:104DD000204602210122FEF745FDADF81650BDF830
:104DE0001600022824D800BFBDF816000130ADF827
:104DF0001600BDF8160002281AD8BDF816000130BA
:104E0000ADF81600BDF81600022811D8BDF816003E
:104E10000130ADF81600BDF81600022808D8BDF81C
:104E200016000130ADF81600BDF816000328DBD3DC
:104E300006B070BDF0B583B040F600040546C4F27C
:104E400001040026002703E00137082F00F09680B8
:104E500005FA07F0C0B2C20920460221FEF702FDA2
:104E6000ADF80260BDF80200022823D8BDF80200A8
:104E70000130ADF80200BDF8020002281AD8BDF8D2
:104E800002000130ADF80200BDF80200022811D87E
:104E9000BDF802000130ADF80200BDF802000228A2
:104EA00008D8BDF802000130ADF80200BDF80200DC
:104EB0000328DBD3204601210122FEF7D3FCADF805
:104EC0000460BDF80400022824D800BFBDF8040027
:104ED0000130ADF80400BDF8040002281AD8BDF86E
:104EE00004000130ADF80400BDF80400022811D818
:104EF000BDF804000130ADF80400BDF8040002283C
:104F000008D8BDF804000130ADF80400BDF8040075
:104F10000328DBD3204601210022FEF7A3FCADF8D5
:104F20000660BDF8060002288ED800BFBDF8060056
:104F30000130ADF80600BDF8060002283FF684AF48
:104F4000BDF806000130ADF80600BDF806000228E5
:104F50003FF67AAFBDF806000130ADF80600BDF8A7
:104F6000060002283FF670AFBDF806000130ADF82C
:104F70000600BDF806000328D8D365E720460121C6
:104F80000122FEF76FFC0025ADF80850BDF80800BF
:104F9000022823D8BDF808000130ADF80800BDF89C
:104FA000080002281AD8BDF808000130ADF8080042
:104FB000BDF80800022811D8BDF808000130ADF88E
:104FC0000800BDF80800022808D8BDF80800013024
:104FD000ADF80800BDF808000328DBD32046012106
:104FE0000022FEF73FFCADF80A50BDF80A00022887
:104FF00024D800BFBDF80A000130ADF80A00BDF8A2
:105000000A0002281AD8BDF80A000130ADF80A00DB
:10501000BDF80A00022811D8BDF80A000130ADF829
:105020000A00BDF80A00022808D8BDF80A000130BD
:10503000ADF80A00BDF80A000328DBD303B0F0BDC9
:10504000B0B582B040F60004C4F20104204602214B
:105050000122FEF707FC0025ADF80050BDF8000066
:10506000022823D8BDF800000130ADF80000BDF8DB
:10507000000002281AD8BDF800000130ADF8000089
:10508000BDF80000022811D8BDF800000130ADF8CD
:105090000000BDF80000022808D8BDF8000001306B
:1050A000ADF80000BDF800000328DBD32046012145
:1050B0000122FEF7D7FBADF80250BDF8020002282E
:1050C00024D800BFBDF802000130ADF80200BDF8E1
:1050D000020002281AD8BDF802000130ADF8020023
:1050E000BDF80200022811D8BDF802000130ADF869
:1050F0000200BDF80200022808D8BDF80200013005
:10510000ADF80200BDF802000328DBD320460221DF
:1051100000220025FEF7A6FBADF80450BDF8040000
:10512000022823D8BDF804000130ADF80400BDF812
:10513000040002281AD8BDF804000130ADF80400BC
:10514000BDF80400022811D8BDF804000130ADF804
:105150000400BDF80400022808D8BDF8040001309E
:10516000ADF80400BDF804000328DBD3204601217C
:105170000022FEF777FBADF80650BDF806000228C6
:1051800024D800BFBDF806000130ADF80600BDF818
:10519000060002281AD8BDF806000130ADF8060056
:1051A000BDF80600022811D8BDF806000130ADF8A0
:1051B0000600BDF80600022808D8BDF80600013038
:1051C000ADF80600BDF806000328DBD302B0B0BD81
:1051D000B0B582B040F60004C4F2010420460221BA
:1051E00000220025FEF73EFBADF80250BDF802009C
:1051F000022823D8BDF802000130ADF80200BDF846
:10520000020002281AD8BDF802000130ADF80200F1
:10521000BDF80200022811D8BDF802000130ADF837
:105220000200BDF80200022808D8BDF802000130D3
:10523000ADF80200BDF802000328DBD320460121AF
:105240000122FEF70FFBADF80450BDF80400022860
:1052500024D800BFBDF804000130ADF80400BDF84B
:10526000040002281AD8BDF804000130ADF804008B
:10527000BDF80400022811D8BDF804000130ADF8D3
:105280000400BDF80400022808D8BDF8040001306D
:10529000ADF80400BDF804000328DBD3204602214A
:1052A0000122FEF7DFFA0020ADF80600BDF8060087
:1052B000022823D8BDF806000130ADF80600BDF87D
:1052C000060002281AD8BDF806000130ADF8060025
:1052D000BDF80600022811D8BDF806000130ADF86F
:1052E0000600BDF80600022808D8BDF80600013007
:1052F000ADF80600BDF806000328DBD302B0B0BD50
:1053000080B5FFF707FDFFF79BFE7820FFF792FDC2
:105310000020FFF78FFDAE20FFF78CFDFFF758FF51
:10532000FFF78EFE7820FFF785FD0020FFF782FD56
:10533000D520FFF77FFDFFF74BFFFFF781FE7820B9
:10534000FFF778FD0020FFF775FD8020FFF772FD65
:10535000FFF73EFFFFF774FE7820FFF76BFD00209C
:10536000FFF768FDA820FFF765FDFFF731FFFFF7A6
:1053700067FE7820FFF75EFD0020FFF75BFD3F2012
:10538000FFF758FDFFF724FFFFF75AFE7820FFF7DD
:1053900051FD0020FFF74EFDD320FFF74BFDFFF737
:1053A00017FFFFF74DFE7820FFF744FD0020FFF7C1
:1053B00041FD0020FFF73EFDFFF70AFFFFF740FE2B
:1053C0007820FFF737FD0020FFF734FD4020FFF77E
:1053D00031FDFFF7FDFEFFF733FE7820FFF72AFDD2
:1053E0000020FFF727FDA120FFF724FDFFF7F0FEC7
:1053F000FFF726FE7820FFF71DFD0020FFF71AFDBE
:10540000C820FFF717FDFFF7E3FEFFF719FE78202E
:10541000FFF710FD0020FFF70DFDDA20FFF70AFD72
:10542000FFF7D6FEFFF70CFE7820FFF703FD002004
:10543000FFF700FD1220FFF7FDFCFFF7C9FEFFF7A5
:10544000FFFD7820FFF7F6FC0020FFF7F3FC81203A
:10545000FFF7F0FCFFF7BCFEFFF7F2FD7820FFF747
:10546000E9FC0020FFF7E6FCCF20FFF7E3FCFFF7A5
:10547000AFFEFFF7E5FD7820FFF7DCFC0020FFF72B
:10548000D9FCD920FFF7D6FCFFF7A2FEFFF7D8FD25
:105490007820FFF7CFFC0020FFF7CCFCF120FFF7CE
:1054A000C9FCFFF795FEFFF7CBFD7820FFF7C2FCA4
:1054B0000020FFF7BFFCDB20FFF7BCFCFFF788FEF6
:1054C000FFF7BEFD7820FFF7B5FC0020FFF7B2FC28
:1054D0003020FFF7AFFCFFF77BFEFFF7B1FD782030
:1054E000FFF7A8FC0020FFF7A5FCA420FFF7A2FC13
:1054F000FFF76EFEFFF7A4FD7820FFF79BFC00206E
:10550000FFF798FCA620FFF795FCFFF761FEFFF779
:1055100097FD7820FFF78EFC0020FFF78BFC8D2095
:10552000FFF788FCFFF754FEFFF78AFD7820FFF7AE
:1055300081FC0020FFF77EFC1420FFF77BFCFFF7C7
:1055400047FEFFF77DFD7820FFF774FC0020FFF792
:1055500071FCAF20FFF76EFCFFF73AFE40F28400CB
:10556000C2F200004FF48061FAF7E3FDBDE880402D
:1055700000F086B9B0B50C4640F0B005FFF760FD0D
:105580007820FFF757FC0020FFF754FC2846FFF770
:1055900051FCFFF71DFE200900F11005FFF750FD3B
:1055A0007820FFF747FC0020FFF744FC2846FFF770
:1055B00041FCFFF70DFEFFF743FD7820FFF73AFCB3
:1055C0000020FFF737FC04F00F00FFF733FCBDE8C5
:1055D000B040FFF7FDBD00002DE9F04F83B047B2AA
:1055E000002F01D43F2903D903B0BDE8F08F00BFDD
:1055F0005F18402FCDE9013188BFC1F14003DBB214
:10560000002B5BD01118802911466FF07F0788BFEF
:10561000391ADDF80890C9B203EB090EE1B340F284
:10562000840801EB000BC2F200084C4606E000BF04
:1056300009F101095FFA89F4A6453FD909F007038A
:10564000012101FA03F3DD434FEAD40A0746064677
:1056500008EBCA14E35D03EA0501731CDBB29B454A
:10566000E155E5D9E15CB71CFFB22940BB45E154E7
:10567000DED9E15DF31C5FFA83FC2940E345E15587
:10568000D6D914F80C100436F7B22940BB4504F8FB
:105690000C10DDD8CCE700BF4F4600BF791CC9B263
:1056A0008E450BD9B91CC9B28E4507D9F91CC9B2B0
:1056B0008E4503D90437F9B28E45EFD80199002AF7
:1056C000A1F101018BB201EB53314FEAE10B5DD047
:1056D00003460299802828BF8023803B029340F232
:1056E0008403C2F2000318444FEAD10E01F007010F
:1056F00000F1800300F56070C1F1080900900020FE
:105700004FF0000A019306E00AF1010A5FFA8AF0FD
:105710008345FFF469AF704407283FF665AF0C98E6
:105720005FFA8AF302FB030010D1009D029E13462C
:10573000002EE9D010F8017B2C788F40274305F824
:10574000017B013B06F10106F2D1DDE7019F7344C5
:1057500007EBC316029B1546002BD5D090F800C06E
:1057600016F8808C0CFA01F444EA080406F8804C20
:1057700010F8014B377824FA09F4274306F8017B27
:10578000013D03F10103E7D1BEE700BF002000BFE8
:1057900040F00101C9B28B45FFF426AF40F0020191
:1057A000C9B28B45FFF420AF40F00301C9B28B456D
:1057B000FFF41AAF0430C1B28B45E9D214E7000000
:1057C0002DE9F04381B014461278DAB389460646D3
:1057D000082B1FD0062B39D147F292180027C0F6AC
:1057E000000800BF07EB470002EB420106EB400058
:1057F00008EB4101A1F1C005C0B2494606220823C9
:105800000095FFF7E9FE0137F8B2225C002AE9D1E2
:1058100018E000BF47F2CC380027C0F6000800BFF0
:1058200006EBC70008EB0211A1F50075C0B24946AE
:10583000082210230095FFF7CFFE0137F8B2225C53
:10584000002AEDD101B0BDE8F08300BF002000BF09
:1058500040F00101C9B2615C0029F3D040F00201BF
:10586000C9B2615C0029EDD040F00301C9B2615CAE
:105870000029E7D00430C1B2615C0029E8D1E1E73A
:105880002DE9F04F83B040F6000440F28408C4F2E2
:1058900001040025C2F200084FF0000908E000BF33
:1058A000FFF796FC09F10109B9F1080F00F01A8120
:1058B0005FFA89F000214FF0000BFFF75BFE08EB69
:1058C000C91AFFF7BDFB7820FFF7B4FA4020FFF7B5
:1058D000B1FA04E00BF1010BBBF1800FE0D01AF834
:1058E0000B70002604E000BF0136082E00F0968001
:1058F00007FA06F0C0B2C20920460221FDF7B2FF46
:10590000ADF80250BDF80200022823D8BDF802000D
:105910000130ADF80200BDF8020002281AD8BDF827
:1059200002000130ADF80200BDF80200022811D8D3
:10593000BDF802000130ADF80200BDF802000228F7
:1059400008D8BDF802000130ADF80200BDF8020031
:105950000328DBD3204601210122FDF783FFADF8A8
:105960000450BDF80400022824D800BFBDF804008C
:105970000130ADF80400BDF8040002281AD8BDF8C3
:1059800004000130ADF80400BDF80400022811D86D
:10599000BDF804000130ADF80400BDF80400022891
:1059A00008D8BDF804000130ADF80400BDF80400CB
:1059B0000328DBD3204601210022FDF753FFADF879
:1059C0000650BDF8060002288ED800BFBDF80600BC
:1059D0000130ADF80600BDF8060002283FF684AF9E
:1059E000BDF806000130ADF80600BDF8060002283B
:1059F0003FF67AAFBDF806000130ADF80600BDF8FD
:105A0000060002283FF670AFBDF806000130ADF881
:105A10000600BDF806000328D8D365E7204601211B
:105A20000122FDF71FFFADF80850BDF8080002285D
:105A300024D800BFBDF808000130ADF80800BDF85B
:105A4000080002281AD8BDF808000130ADF8080097
:105A5000BDF80800022811D8BDF808000130ADF8E3
:105A60000800BDF80800022808D8BDF80800013079
:105A7000ADF80800BDF808000328DBD3204601215B
:105A80000022FDF7EFFEADF80A50BDF80A0002282B
:105A90003FF620AFBDF80A000130ADF80A00BDF8AE
:105AA0000A0002283FF616AFBDF80A000130ADF833
:105AB0000A00BDF80A0002283FF60CAFBDF80A0044
:105AC0000130ADF80A00BDF80A0002283FF602AF27
:105AD000BDF80A000130ADF80A00BDF80A0003283D
