:020000040800F2
:10000000800C00200101000815430008554100083C
:1000100011430008411400089D550008000000002D
:10002000000000000000000000000000095100086E
:100030009D18000800000000055100085D520008EE
:100040001B0100081B0100081B0100081B01000820
:100050001B0100081B0100081B0100081B01000810
:100060001B0100081B0100081B01000845140008C3
:100070001B0100081B0100081B0100081B010008F0
:100080001B0100081B010008B10E00081B0100083D
:100090001B0100081B0100081B0100081B010008D0
:1000A0001B0100081B0100081B0100081B010008C0
:1000B0001B0100081B0100081B0100081B010008B0
:1000C0001B0100081B0100081B0100081B010008A0
:1000D0001B010008915500081B0100081B010008C6
:1000E0001B0100081B0100081B010008DFF80CD0F1
:1000F00000F0D0FC00480047C1550008800C0020EB
:100100000648804706480047FEE7FEE7FEE7FEE7B1
:10011000FEE7FEE7FEE7FEE7FEE7FEE745530008E1
:10012000ED000008D2B201E000F8012B491EFBD21D
:1001300070470022F6E710B513460A4604461946F2
:10014000FFF7F0FF204610BD10B5044604E00B7821
:1001500000F8013B03B1491C521EF8D2204610BDE5
:10016000CAB2401E10F8011F8A4202D00029F9D1FC
:1001700000207047421C10F8011B0029FBD1801A97
:10018000704710B5002200E0521C835C8C5CA342D7
:1001900001D1002BF8D1D8B2E1B2401A10BD30B570
:1001A00004460020034600E05B1C934203D2E05C5F
:1001B000CD5C401BF8D030BDF0B480EA0102D40F12
:1001C0004200B2EB410F02D20246084611464A00F5
:1001D00042D0C30DDDB2C1F3C752AD1A202D35DABE
:1001E000C1F3160141F4000204B15242C5F12006E8
:1001F00002FA06F12A411044B3EBD05F23D0C4B118
:10020000012DA0EBC35009DCF0BC4FF0004202EA24
:10021000C352DBB200F5000000F081BB400000F1EA
:10022000807000EBC350A0F1807040EAD1704900AB
:1002300009E0490841EAC071A0EBC35000F5000095
:10024000400800EBC350F0BC00F060BB61420122EB
:1002500002EB4101001BF6E7F0BC704781F0004162
:10026000AAE780F00040A7E780EA010210B502F09B
:100270000043400022D04A001FD0010E01EB126162
:10028000C0F35600C2F3560240F4000042F40002EC
:10029000A0FB022000047F39140400D0401C50EA67
:1002A000124001D44000491EC2B20C0604EBD0102B
:1002B000401C4008802A02D003E0002010BD20F03E
:1002C0000100002900DA0020184310BD30B480EA94
:1002D000010202F0004530F0004221F0004013D04E
:1002E00090B1C30DD40DC2F31601C0F31600E41A89
:1002F00041F4000140F400027D34914201D3641CBA
:1003000000E04900002C02DA30BC002070474FF4B6
:1003100000000023914201D3891A034340084FEAA9
:100320004101F7D151B1914202D14FF0004105E0B6
:1003300002D24FF0010101E06FF0010103EBC45064
:10034000284430BC00F0E2BA2DE9FE4F804681EA35
:100350000300C00F0C46009021F0004123F000453F
:10036000B8EB0200A94105D24046214690461C4602
:100370000B46024623F00040104347D0270DC7F339
:100380000A00C3F30A510290401A019040286BDA28
:10039000C3F3130040F4801B0098924620B1002361
:1003A000D2EB030A63EB0B0B01985946C0F14002F4
:1003B000504600F026FA06460D4650465946019A28
:1003C00000F03EFA10EB08006141002487EA115268
:1003D00084EAE7731A4340D0009A62B3019A012A73
:1003E0004FEA075215DC001B61EB02014FF000429F
:1003F00002EA0752CDE90042001C41F58011324665
:100400002B4600F0C9FA03B0BDE8F08F4046214604
:10041000F9E7001B61EB0201001C41F58013001895
:100420005B412018A2F5001747EB030140EAD570A5
:10043000B6196D4111E06D084FEA360645EAC07500
:100440004FEA0752001B61EB0201001C41F58011CD
:1004500049084FEA30000019514132462B4603B09B
:10046000BDE8F04F00F089BA009801224000002357
:10047000D0EB020263EBE073009821464FEAE07490
:10048000B8EB000061EB0401E9E783F000435BE7B0
:1004900081F0004158E72DE9FE4F81EA030404F0A2
:1004A000004421F0004100944FF0000B23F0004382
:1004B00050EA01045ED052EA03045BD0C3F30A544D
:1004C000C1F30A552C44A4F2F3340194A0FB025466
:1004D000C1F3130141F48011C3F3130343F48013F8
:1004E00001FB024400FB034E840A970A44EA81544C
:1004F00047EA8357A4FB076802958D0A05FB078529
:100500004FEA932C04FB0C542705029D4FEA065832
:1005100047EA1637B5EB08056EEB070C870E920E0F
:1005200047EA811742EA8312A7FB0201B6EB0B01EF
:1005300064EB00042B0D43EA0C335E1844EB1C50B3
:10054000DA465146E7FB0201C5F313044FEA0B33C9
:1005500043EA14534FEA0432019C43EA0603A4F130
:100560000C040294009CCDE900B400F015FA03B02D
:10057000BDE8F08F00200146F9E72DE9F04D81EA52
:10058000030404F0004B21F0004514464FF0000A2C
:1005900023F0004150EA050220D054EA01021DD0A8
:1005A000C5F30A570246C5F31303C1F31300C1F3A1
:1005B0000A5640F4801543F48013A7EB0608101B7D
:1005C000D64608F2FD3873EB050002D308F10108A6
:1005D00001E092185B41B8F1000F03DA00200146F8
:1005E000BDE8F08D00204FF48011064684460EE0F1
:1005F000171B73EB050705D3121B63EB05030643BB
:100600004CEA010C49084FEA300092185B4150EA6D
:100610000107EDD152EA030012D082EA040083EA16
:100620000501084305D0101BAB4106D2012200236F
:1006300006E000224FF0004302E06FF00102531089
:100640001AEB06004CEB085110EB0A0041EB0B01D2
:10065000BDE8F04D00F091B9002801DBC0F1004089
:10066000002901DBC1F10041814201D8012070471E
:1006700000207047002801DBC0F10040002901DBA9
:10068000C1F10041814201D2012070470020704732
:10069000002801DBC0F10040002901DBC1F100416D
:1006A000814201D30120704700207047002801DB00
:1006B000C0F10040002901DBC1F10041814201D9B4
:1006C0000120704700207047C10F80EAE0700844A5
:1006D000CA079623002100F022B996230022114672
:1006E00000F01DB900F0004220F00040C10DC0F341
:1006F000160040F400007F2901DA00207047962997
:1007000003DCC1F19601C84001E096398840002A17
:10071000F4D04042704700F0004230F000400AD070
:10072000C10D01F56071C0F3160042EA0151C20823
:1007300040071143704700200146704701F0004315
:1007400030B421F0004150EA010206D00A0DA2F5B2
:100750006072C1F31301002A02DC30BC0020704734
:10076000440F44EAC104C100E01830BC00EBC250A1
:1007700000F0CCB830B50B46014600202022012401
:1007800009E021FA02F59D4205D303FA02F5491B5F
:1007900004FA02F52844151EA2F10102F1DC30BD75
:1007A0002DE9F05F0546002092469B4688460646A6
:1007B000814640241BE0284641464746224600F039
:1007C0002FF853465A46C01A914110D31146184685
:1007D000224600F016F82D1A67EB01084F46224614
:1007E0000120002100F00DF817EB00094E41201EFA
:1007F000A4F10104DFDC484631462A464346BDE801
:10080000F09F202A04DB203A00FA02F10020704712
:100810009140C2F1200320FA03F31943904070473E
:10082000202A04DB203A21FA02F00021704721FA45
:1008300002F3D040C2F120029140084319467047AC
:10084000202A06DBCB17203A41FA02F043EAE07394
:1008500006E041FA02F3D040C2F120029140084381
:10086000194670470FB40B0010B58AB00FA900915C
:100870000E994FF00004234ACC60214CCDE906428A
:1008800000D004236FF00042CDE901321E4A0892E5
:1008900002466B46002000F0AFF90AB010BC5DF8CC
:1008A00014FBF0B585B007464FF0FF300091CDE95D
:1008B00001011E46002015460C4604903B466A4640
:1008C000314604A8FFF7CEFF04990346601825B10E
:1008D00009B1024600E022462A6000290ED0002B12
:1008E00002DD0099814209D00094001BCDE901048A
:1008F0003B466A46314604A8FFF7B4FF05B0F0BD99
:10090000310E00084F0E0008C50A00080029A8BFD4
:100910007047401C490008BF20F00100704710B428
:10092000B0FA80FC00FA0CF050EA010404BF10BCDD
:10093000704749B1CCF1200421FA04F411FA0CF10A
:1009400018BF012121430843A3EB0C01CB1D4FEA43
:1009500000614FEA102042BF002010BC704700EB3E
:10096000C35010440029A4BF10BC7047401C49006C
:1009700008BF20F0010010BC704710B5141E73F1C1
:10098000000408DA401C41F1000192185B411A434F
:1009900001D120F0010010BD2DE9F04D92469B469B
:1009A00011B1B1FA81F202E0B0FA80F22032904641
:1009B000FFF727FF04460F4640EA0A0041EA0B0111
:1009C00053465A46084313D0114653EA010019D042
:1009D000C8F140025046FFF723FF05460E46504639
:1009E00059464246FFF70DFF084305D0012004E0B9
:1009F00020463946BDE8F08D0020054346EAE07602
:100A00002C4337430A986305E40AA0EB0800002250
:100A1000FD0A44EA47540A3002D500200146E9E7BE
:100A2000010510196941DDE9084500196941BDE872
:100A3000F04DA2E7C1F30A52C1F3130140F2FF33B4
:100A400041F480119A4202DA00200146704740F2D8
:100A500033439A42A2F2334202DC5242FFF7E0BE35
:100A6000FFF7CFBE30B5041E71F1000404DB4FF078
:100A70000044404264EB0101141E73F1000405DBE5
:100A80001C464FF00043524263EB0403994208BFF7
:100A9000904230BD1CB509480090094801900546B8
:100AA000009C06E0E06840F0010394E807009847E6
:100AB0001034AC42F6D3FFF71DFB0000206C000899
:100AC000406C0008C0B24FF4F05100F0D1B9000002
:100AD0002DE9FF4F087883B09946FF2805D0491CBF
:100AE0002D2804D00024002008E000200BE0012481
:100AF000F9E700EB800003EB4000491C0B78FF2B6B
:100B0000F7D104B1404200230293147819461D46E0
:100B10002D2C01D02B2C04D1521C2D2C13D00024B1
:100B20000294AA461478FF2C0FD00A25A3FB05785F
:100B300001FB05814FF0000C03FB0C11521CE31963
:100B40004AEB0101EEE70124EAE7814453EA0100A0
:100B500002D019F5C87F06DA03980021C0E9001118
:100B600007B0BDE8F08F0025AE4E2F46DFF8B88203
:100B7000184600F091F9CDE90001B9F1000002DA60
:100B8000C9F1000400E004460023A74A1AEB030B56
:100B900042EB045A12E0E00707D02A4633463846B3
:100BA0004146FFF778FC074688462A4633461046FA
:100BB0001946FFF770FC05460E466410002CEAD17A
:100BC000DDE90001B9F1000F5A46534606DAFFF796
:100BD000D4FC3A464346FFF7D0FC05E0FFF75BFC48
:100BE0003A464346FFF757FC029A0AB181F00041AA
:100BF000039AC2E90001B3E72DE9FF4F1F468DB00C
:100C0000D7E901464FF0FF382E2045464FF0000946
:100C10000B90B9696D1C0E988847396A82468847DF
:100C20000028F6D1BAF1FF3F0AD024F4D064002E98
:100C300011DDBAF12B0F08D0BAF12D0F0BD102E064
:100C4000404611B08DE744F48064B9696D1C0E987C
:100C500088478246761E6946600501D52D2000E052
:100C60002B208DF8000001F1010B0DF1200809E0A7
:100C7000B9696D1C0E98884782460F9844F4007439
:100C8000761E0560002E02DDBAF1300FF0D00B9910
:100C90008A453ED144F0800406E00F99681CA9F112
:100CA000010944F400740860B9696D1C761E0E9841
:100CB000884782463028F0D02BE00B998A4505D131
:100CC000200603D444F08004761E18E0504604F059
:100CD0002BFF08B30DF11302761EAAF1300044F485
:100CE0000074934506D20BF8010B200607D5A9F135
:100CF000010003E0200602D409F101008146A005AD
:100D000002D50F99681C0860B9696D1C0E98884758
:100D10008246002ED1DC53E0002E51DDBAF1650F82
:100D200002D0BAF1450F4BD1A00549D5B9696D1C68
:100D300024F44074761E0E9888478246002E0CDDFF
:100D40002B2804D0BAF12D0F07D144F48074B9696F
:100D50006D1C0E9888478246761EE00501D52D2130
:100D600000E02B2108F8011BCDF82C8021E00DF1CB
:100D70002901761E44F4007488450CD2AAF1300093
:100D800010F0FF0088F8000002D10B99884509D9BE
:100D900008F1010806E0E00501D5244801E042F22F
:100DA0000F708146B9696D1C0E98884782460F986E
:100DB0000560002E04DD504604F0B6FE0028D6D1B2
:100DC000F9690E988847FF208BF8000088F800002A
:100DD0000020069007904B466A4608A906A8FFF730
:100DE00077FEA00502D46FF001002AE714F0240F6B
:100DF0000AD0E00714D1DDE906123868031D3B6014
:100E00000068C0E900120BE0DDE90601FFF796FC7F
:100E10000146E00704D13868021D3A6000680160AD
:100E200028460EE7000014400000F03FF1D8FFFF15
:100E3000426842B1016811F8013B23B1521EC0E97A
:100E40000012184670470121C160881E7047426831
:100E50005AB1C368016843B983688B4205D0491E03
:100E6000521CC0E90012002070474FF0FF3070475D
:100E70007F2801D9002208E0064A02EB5002C00791
:100E8000127800D1120902F00F02012090400840B0
:100E900070470000D86200080EB540F2334202925B
:100EA0000022CDE900221346FFF776FD03B000BD16
:100EB00040F28C40C2F2000001F03CBB0146406AA7
:100EC000826A12F0500F03D0006A026B0846104786
:100ED0000168826A42F400728262896801F46021CA
:100EE000B1F5602F01D1017B11B101F00BBB00BF47
:100EF000816A21F480718162816AC90448BF01F06E
:100F000001BB816A41F00101816201F0FBBA00007E
:100F1000406A816A41F040018162C16A41F0040186
:100F2000C16201F005BB0000406A01F0FFBA000099
:100F3000B0B582B004460020019021688A68D207CB
:100F40004BD1886840F00100886040F21000C2F286
:100F5000000000684DF68361C4F21B31A0FB010163
:100F6000880C01900198A0B1019801380190019876
:100F700078B1019801380190019850B10198013879
:100F80000190019828B1019801380190019800283A
:100F9000EAD101F0F3FF21688968C9071CD1054631
:100FA00003E000BF8068C00716D101F0E7FF411BD6
:100FB00020680329F6D38168C907F3D1A06A40F0FD
:100FC0001000A062E06A40F00100E062002084F8B6
:100FD0002400012002B0B0BD002002B0B0BD00006E
:100FE00010B540F270400021C2F20000C4F2482166
:100FF0000022002340F2000C49F69A1EC4F2A0021F
:10100000C4F27023C4F2C82CC3F6197E4FF0013429
:1010100080E80E5001214461018310BDF0B591B00C
:10102000014601A83F22FFF78FF800243A218DF8EE
:101030004340FFF795F8002844D00546C7A101A812
:10104000072205F8014BFFF7AAF8002846D0C5A1F2
:1010500001A80822FFF7A3F800286BD0284605F066
:1010600012F9FFF76BFB46F67A310446C0F6000131
:1010700001A80522FFF793F8002800F08D8046F6BE
:101080006C31C0F6000101A80622FFF788F800289D
:1010900000F0C08046F67731C0F6000101A80322B7
:1010A000FFF77DF8002800F0DB8046F67231C0F6CD
:1010B000000101A80522FFF772F8002800F01C814A
:1010C00000252DE101984BF6B921CFF6AB7108440C
:1010D000B0FA80F04509284611B0F0BD46F67A31E5
:1010E000C0F600012846FFF74CF8002800F08C807D
:1010F00046F66C31C0F600012846FFF742F800289A
:1011000000F0A08046F67731C0F600012846FFF7D0
:1011100038F8002800F0BA8046F67231C0F60001B7
:101120002846FFF72EF8002800F0FE80002528460C
:1011300011B0F0BD46F67A31C0F600012846FFF73F
:1011400020F8002800F0848046F66C31C0F60001DB
:101150002846FFF716F8002800F09E8046F6773103
:10116000C0F600012846FFF70CF8002800F0E480E4
:1011700046F67231C0F600012846FFF702F8002853
:101180004FF0000540F0CC8040F27040C2F2000009
:10119000018BC575D7E000BF28462C21FEF7E0FF84
:1011A000002800F08180002100F8011B05F06BF899
:1011B000FFF7C4FA054620462946FFF74DFA0021FD
:1011C0000646C4F216312046FFF770FA00210643A6
:1011D000CCF248212846FFF74DFA304318BF0120D2
:1011E0000CD140F27041C2F200010A8BC1E9004506
:1011F000013292B2012A98BF01220A8380F00105D0
:10120000284611B0F0BD00BF40F27040C2F20000AD
:10121000012122E0204600210025FFF72BFA0028BB
:1012200040F07E800021C4F2C8212046FFF73EFA3C
:10123000002875D140F27040C2F20000018B84603A
:1012400081E000BF40F27040C2F20000012128E0BE
:1012500040F27040C2F200000021017572E000BF50
:10126000204600210025FFF705FA002858D100216B
:10127000C4F27A412046FFF719FA002850D140F213
:101280007040C2F20000018BC4605CE040F270402C
:10129000C2F20000012154E040F27040C2F20000AE
:1012A000002141754EE000BF40F27047C2F20007D6
:1012B0007D6821462846FFF7EBF900210646C4F277
:1012C00016312046FFF7F2F900210643CCF24821FF
:1012D0002846FFF7CFF9304318BF012007D1398BDB
:1012E0003C60013189B2012998BF0121398380F026
:1012F0000105284611B0F0BD204600210025FFF76A
:10130000B9F968B920464FF07E51FFF7CFF938B9E7
:1013100040F27040C2F20000018B046113E000BF94
:10132000284611B0F0BD00BF40F27040C2F200008C
:101330000121C17506E000BF40F27040C2F200001A
:1013400000218175018B013189B20125012998BFE6
:1013500029460183284611B0F0BD00BF454E4142E9
:101360004C45000044495341424C45002DE9F04FA3
:1013700095B040F2704BC2F2000BCDE913019BE82F
:101380005100DBF80C50FFF7C6F9CDE911102046EB
:10139000FFF7C1F9CDE90F103046FFF7BCF98246DF
:1013A00028460F46FFF7B7F98146DBF8100088465C
:1013B000FFF7B1F90DF1200CBBF818209BF81430A1
:1013C0009BF815508CE82F0012989BF8164000905F
:1013D00011989BF817600190109809A202900F983D
:1013E000CDE90D46CDE9030ADDE91301CDE9057923
:1013F000CDF81C8004F08CFA15B0BDE8F08F00BF6A
:1014000054454D503A252E31662F252E31662C53EA
:101410004D4F4B453A252E31662C434F3A252E3100
:10142000662C5249534B3A252E32662C5645523A79
:1014300025642C454E3A2564256425642564000006
:10144000FEE7000040F2BC40C2F2000001F002BB27
:1014500070B584B040F60004C4F20104202000906E
:10146000002669462046019601F06CFC20462021AA
:10147000354601F06FFD18B1C82D05F10106F5D311
:10148000C72D03D9012004B070BD00BF002000BFEC
:1014900005462046202101F05DFD18B9F02D05F12B
:1014A0000100F5D30020EF2D88BF0120400004B0DB
:1014B00070BD000010B500F06FF9FFF7C9FF70B9FB
:1014C000CC2000F085F9442000F082F940F2EE20B3
:1014D00001F024FC00F060F9FFF7BAFF20B14CF2F4
:1014E0000000CCF2794010BDCC2000F071F9BE2094
:1014F00000F06EF900F00EF8044600F00BF844EA34
:10150000002000B2FFF7E0F84FF07651FEF7ACFE96
:1015100010BD00002DE9F04F85B0012040F6000419
:1015200002900320C4F201040DF104082025049068
:101530002046414601954FF001094FF0030B01F0A1
:1015400001FC204620210022002601F011FD20464A
:101550002021012201F00CFDCDE9015601AE20460B
:1015600031464FF0000A01F0EDFB2046202101F04A
:10157000F1FC074600282046414618BF0127CDE967
:101580000159CDF810B04FF0030B01F0DBFB204602
:101590002021002201F0ECFC20462021012201F054
:1015A000E7FC20463146CDE9015A4FF0000A01F030
:1015B000C9FB2046202101F0CDFC002818BF0120E6
:1015C000C00140EA8719012002902046414601955A
:1015D000CDF810B04FF0030B01F0B4FB20462021F2
:1015E000002201F0C5FC20462021012201F0C0FCB0
:1015F00020463146CDE9015A4FF0000A01F0A2FB26
:101600002046202101F0A6FC074600284FF00100EB
:1016100018BF01270290204641460195CDF810B031
:101620004FF0030B01F08EFB20462021002201F039
:101630009FFC20462021012201F09AFC20463146E1
:10164000CDE9015AB24601F07DFB2046202101F090
:1016500081FC4FEA9901002818BF012041EA871157
:1016600041EAC01601272046414601950297CDF870
:1016700010B001F067FB20462021002201F078FC29
:1016800020462021012201F073FC4FF00009204682
:1016900051460195CDF8089001F054FB20462021D9
:1016A00001F058FC7821002818BF012001EA5601FA
:1016B00041EAC0160320049020464146CDE9015777
:1016C0004FF0010B01F03EFB20462021002201F0EB
:1016D0004FFC20462021012201F04AFC20465146C1
:1016E000CDE901594FF0000901F02CFB20462021E3
:1016F00001F030FC074600284FF0030018BF012717
:10170000049020464146CDE9015B01F01BFB2046D9
:101710002021002201F02CFC20462021012201F092
:1017200027FC20465146CDE901594FF0000B01F04E
:1017300009FB2046202101F00DFCB108002818BF4C
:10174000012041EA871141EAC016012002900320DE
:10175000049020464146019501F0F4FA20462021EC
:10176000002201F005FC20462021012201F000FCAE
:1017700020465146CDE9015B01F0E4FA20462021E4
:1017800001F0E8FB002818BF0120C6F3460141EA3A
:10179000C01005B0BDE8F08F10B584B020200090D7
:1017A000012040F6000401900320C4F201040390DC
:1017B0006946204601F0C6FA20462021002201F0A9
:1017C000D7FB20462021012201F0D2FB04B010BD3E
:1017D000002000F001B8000010B584B02020009077
:1017E000012040F6000401900320C4F2010403909C
:1017F0006946204601F0A6FA20462021002201F089
:10180000B7FB20462021012201F0B2FB2046202117
:10181000002201F0ADFB20462021012201F0A8FBAF
:1018200020462021002201F0A3FB20462021012296
:1018300001F09EFB20462021002201F099FB20466A
:101840002021012201F094FB20462021002201F0FA
:101850008FFB20462021012201F08AFB2046202117
:10186000002201F085FB20462021012201F080FBAF
:1018700020462021002201F07BFB2046202101226E
:1018800001F076FB20462021002201F071FB20466A
:101890002021012201F06CFB04B010BD7047000054
:1018A0002DE9F04790B040F2180AC2F2000ADAE9D6
:1018B0000204FEF730FF054620460E46FEF72BFFDA
:1018C0000DF1200804460F4632A140462A46334611
:1018D000CDE9004704F036F80020002142460C23F1
:1018E00003F07AFA40F24855C2F20005D5F8240315
:1018F000FEF711FF02460B462AA1404604F022F8EB
:101900000020022142460C2303F066FA9AF80200F6
:1019100027A129A2002818BF0A46002004210C2371
:1019200003F05AFA03F0B8FA01F028FBDAF81410C1
:10193000401AB0F5FA7F29D90AF10807C1CFFEF79E
:10194000EAFE804630468946FEF7E5FE0646384602
:101950000C46FEF7E0FE0746D5F824030D46FEF7D9
:10196000DAFEBAF80420BAF806300490CDE906236E
:1019700013A042464B46CDE90064CDE902750591BE
:1019800003F0B6FF01F0FAFACAF8140010B0BDE88F
:10199000F08700BF543A252E316620533A252E3069
:1019A000662525005269736B3A252E3266000000C9
:1019B000414C41524D2100004E6F726D616C000030
:1019C000543A252E316620533A252E306620434F57
:1019D0003A252E3066205269736B3A252E326620E6
:1019E0004144433A5B25642C25645D0D0A000000E8
:1019F00046F6B830C0F6000004F05CFC40F6004447
:101A0000C4F20104EFF3108072B600BF204620211B
:101A100001F0A6FAC82001F081F9F7E7B1F8222316
:101A20000A2A4FF00002C0E90022C0E90222026146
:101A300038BF70472DE9F04F9FB0B1F820230590D3
:101A400092B202F128074BF65202C0F21E52A7FBD7
:101A50000223322203FB12736FF02A0401EB0310FE
:101A60001590180151F800C0581CB0F13202CDF8A1
:101A700050C018BF024610010858302B17906FF065
:101A80002F0038BF0220184401EB0018000108584D
:101A90002F2B1B906FF02E0038BF032003EB0009A3
:101AA0006FF02D002E2B38BF042003EB000A6FF0DF
:101AB0002C002D2B01EB021E38BF05206FF02B02EE
:101AC0002C2B38BF06222B2B38BF07246FF0290799
:101AD0002A2B6FF02806184438BF0827292B38BF57
:101AE00009264FEA09151A441C441F44334401EBEC
:101AF000091651F805B001EB0A194FEA0A1501EB76
:101B0000001A000108584D591D9001EB02101201F6
:101B10008A581E951C9201EB041224010C593D01B8
:101B20001A9401EB071401EB03171B014D59C95817
:101B3000199518911599D1E9013102930B91DEE9BC
:101B400001310A91D8E9015101930C91D6E9013193
:101B5000179E0D91D9F80810D9F804900E91DAF873
:101B60000810DAF804A00F91D0E901100393049152
:101B70001090D2E9011006911190D4E9011007915B
:101B80001290D7E901100891139060463146FEF794
:101B900013FB1B9C2146FEF70FFB07462046214600
:101BA000FEF70AFB3146FEF707FB804638465946EA
:101BB000CDF858B0FEF700FB00210746C4F2400103
:101BC0005846FEF751FB4146FEF7F6FA1E9C0646C4
:101BD00038462146FEF7F0FA074620464FF081418D
:101BE000FEF742FB3146FEF7E7FA1D9C06463846F3
:101BF0002146FEF7E1FA00210746C4F2A001204683
:101C00008846FEF731FB3146FEF7D6FA1C9C0646A5
:101C100038462146FEF7D0FA00210746C4F2C0013B
:101C20002046FEF721FB3146FEF7C6FA1A9C06460F
:101C300038462146FEF7C0FA00210746C4F2E0010B
:101C40002046FEF711FB3146FEF7B6FA199C064610
:101C500038462146FEF7B0FA074620464FF082414B
:101C6000FEF702FB3146FEF7A7FA189C06463846F7
:101C70002146FEF7A1FA002107460990C4F210118F
:101C80002046FEF7F1FA3146FEF796FA00210646A5
:101C9000CCF234213846FEF7E7FA00210746C4F2B9
:101CA00020113046FEF7E0FA3946FEF785FA44F295
:101CB000000BC4F24E4B5946FEF708FB059C1590ED
:101CC0002060DDE901703946FEF776FA2946FEF715
:101CD00073FA064628462946FEF76EFA3946FEF79D
:101CE0006BFA039F054630463946FEF765FA002138
:101CF00006463846C4F24001FEF7B6FA2946FEF71A
:101D00005BFA054630464946FEF756FA064648460F
:101D10004FF08141FEF7A8FA2946FEF74DFA054635
:101D200030465146FEF748FA064650464146C146FF
:101D3000FEF79AFA2946FEF73FFA049F0546304619
:101D40003946FEF739FA002106463846C4F2C0018A
:101D5000FEF78AFA2946FEF72FFA069F0546304617
:101D60003946FEF729FA002106463846C4F2E0015A
:101D7000FEF77AFA2946FEF71FFA079F0546304616
:101D80003946FEF719FA064638464FF08241FEF70B
:101D90006BFA2946FEF710FADDF82080054630463A
:101DA0004146FEF709FA002106464046C4F21011EA
:101DB000FEF75AFA2946FEF7FFF90021054630469C
:101DC000CCF23421FEF750FA002106462846C4F230
:101DD0002011FEF749FA3146FEF7EEF95946FEF7B3
:101DE00075FA8246A060DDE90A603146FEF7E4F943
:101DF0000C9F3946FEF7E0F9054638463946FEF7AE
:101E0000DBF93146FEF7D8F90D9F064628463946DC
:101E1000FEF7D2F9002105463846C4F24001FEF72C
:101E200023FA3146FEF7C8F90E9F06462846394682
:101E3000FEF7C2F9054638464FF08141FEF714FA25
:101E40003146FEF7B9F90F9F064628463946FEF798
:101E5000B3F9054638464946FEF706FA3146FEF71D
:101E6000ABF9109F064628463946FEF7A5F9002132
:101E700005463846C4F2C001FEF7F6F93146FEF7D2
:101E80009BF9119F064628463946FEF795F9002131
:101E900005463846C4F2E001FEF7E6F93146FEF7A2
:101EA0008BF9129F064628463946FEF785F9054606
:101EB00038464FF08241FEF7D7F93146FEF77CF9FC
:101EC000139F064628463946FEF776F90021054657
:101ED0003846C4F21011FEF7C7F93146FEF76CF927
:101EE000002106462846CCF23421FEF7BDF905460E
:101EF00030460026C4F220163146FEF7B5F92946D1
:101F0000FEF75AF95946FEF7E1F98046E060099874
:101F100031463546FEF7DAF9064614983146FEF7A3
:101F20009DF90146FEF7A0F9074617983146FEF7DE
:101F300095F90146FEF798F93946FEF73DF907464F
:101F40001B983146FEF78AF90146FEF78DF93946AE
:101F5000FEF732F9074616983146FEF77FF901463B
:101F6000FEF782F93946FEF727F907461E983146F3
:101F7000FEF774F90146FEF777F93946FEF71CF9CA
:101F800007461D983146FEF769F90146FEF76CF9E0
:101F90003946FEF711F907461C983146FEF75EF9FF
:101FA0000146FEF761F93946FEF706F907461A9829
:101FB0003146FEF753F90146FEF756F93946FEF76A
:101FC000FBF8074619983146FEF748F90146FEF737
:101FD0004BF93946FEF7F0F8074618983146FEF7F8
:101FE0003DF90146FEF740F93946FEF7E5F8294686
:101FF000FEF76CF9606015980021FEF757FB064666
:1020000050460021FEF752FB07460546002818BF40
:102010004FF07C5740460021002E08BF3746FEF7A0
:1020200045FB064638464FF07C51FEF7C5F8002EBA
:1020300008BF3846002D08BF384620611FB0BDE8F4
:10204000F04F70472DE9F04786B00546B0F82203FF
:102050000A2805D20025284606B0BDE8F08700BF53
:1020600001A82946FFF7DAFCB5F820034BF6520128
:102070003130C0F21E51A0FB0112322102FB110AC5
:1020800000214FEA0A1055F80080C4F22021404692
:10209000FEF70CFB00210446CCF220214046FEF75F
:1020A0008BF80021C4F27021FEF710F94FF07A513D
:1020B000FEF7DAF8019E074630464FF08041002CCB
:1020C00008BF2746FEF7C8FA58BB0021C4F220110A
:1020D0003046FEF7FBF84FF07E510446FEF7E6FA75
:1020E00043F23331002818BF4FF07E54C3F6B3617A
:1020F0002046FEF7B9F83946FEF75EF8002104469F
:10210000C4F2A0013046FEF7D1FA4CF6CD410646A6
:10211000C3F6CC512046FEF74FF80746002E08BF05
:102120002746029C0021C4F210112046FEF7BEFA99
:1021300000218146C4F2C8112046FEF7C7F849F6CF
:102140009A11C3F61961FEF78FF83946FEF734F895
:1021500005EB0A15D5F804A000210646C4F2A0112B
:102160005046B9F1000F08BF3E46FEF775FA50BB66
:102170000021C4F2C8215046FEF7A8F84FF07E5166
:102180000446FEF793FA002818BF4FF07E5420460D
:102190004FF07A51FEF768F83146FEF70DF8039AD2
:1021A00000210446C4F2A0011046FEF77FFA4CF667
:1021B000CD410746C3F6CC512046FDF7FDFF06464C
:1021C000002F08BF2646AF6840F20009C4F2482934
:1021D00038464946FEF76AFA00210546CCF2482106
:1021E0003846FDF7E9FF0021C4F21631FEF76EF81C
:1021F0004CF6CD41C3F6CC51FEF736F83146FDF72B
:10220000DBFF044640464946002D08BF3446FEF732
:102210004DFA00218046C4F270115046FEF72AFAAA
:1022200000210646C4F2F0113846FEF723FA0746AD
:1022300020464FF07C51FEF717F80546002F08BFE7
:102240002546002E08BF2546B8F1000F08BF2546D9
:1022500028464FF07E51FEF729FA002818BF4FF0AC
:102260007E5528460021FEF705FA002818BF0025F4
:10227000284606B0BDE8F08780B54FF44D71FDF7F4
:1022800058FF80BDF0B581B01D4616460F46044686
:1022900000F074FEB4F820134BF652030A01A75065
:1022A000B4F82023C0F21E530132A2FB03373223BD
:1022B00007FB132204EB0113B4F82213C3E90165F1
:1022C000D8603129A4F820239CBF481CA4F822031D
:1022D0002046FFF7B7FED4F824130546FEF7BCF9F5
:1022E00040B994F83013012084F82903481C84F87D
:1022F00030030DE049F69A110026C3F6996128468D
:1023000084F82963FEF7C4F9002808BF84F8306315
:102310004CF6CD41C3F64C612846C4F82453FEF771
:10232000A9F928B1002184F8281301B0F0BD00BF3D
:102330004CF6CD41C3F6CC612846FEF79BF928B197
:10234000012184F8281301B0F0BD00BF49F69A11AD
:10235000C3F619712846FEF78DF928B1022184F8D9
:10236000281301B0F0BD00BF4CF6CD41C3F64C714F
:102370002846FEF77FF90421002818BF032184F8BE
:10238000281301B0F0BD00007047000010B581B007
:102390000022009290F82420012A03D1022108464D
:1023A00001B010BD4B680122062B80F8242033D8E1
:1023B000D0F800C003EB83035A1F1F23DCF834E07E
:1023C00003FA02F40B682EEA040403FA02F2224331
:1023D000CCF83420092B03EB430249D9DCF80CE09C
:1023E0001E3A0724896894402EEA0404914023F0A1
:1023F00001022143102ACCF80C1043D142F20841CB
:10240000C4F20101A1F10802944543D0816A41F070
:1024100020018162012136E0D0F800C00C2B03EBD3
:10242000830213D8233A1F23DCF830E003FA02F4C6
:102430000B682EEA040403FA02F22243CCF830209F
:10244000092B03EB4302C9D812E000BF413A1F2316
:10245000DCF82CE003FA02F40B682EEA040403FA19
:1024600002F22243CCF82C20092B03EB4302B5D80F
:10247000DCF81030072489689440A3439140194345
:10248000CCF810100021002280F82420084601B06A
:1024900010BD00BF0A681202F4D40A68102B42F47F
:1024A00000020A60EED140F21001C2F20001096898
:1024B0004DF68362C4F21B32A1FB0212910C01EBB8
:1024C00081014900009100990029DBD00099013970
:1024D000009100990029D5D0009901390091009907
:1024E0000029CFD000990139009100990029C9D065
:1024F000009901390091009900294FF00001E5D1C0
:10250000C1E7000040F28C41C2F20001884218BFCE
:10251000704740F21800C2F20000011D40F28C40EA
:10252000C2F20000022200F089B9000070470000EA
:102530007047000070B50446006805684668B1063B
:1025400027D515F0020124D0A16AC90603D4A16AD7
:1025500041F40071A162816801F46021B1F5602F3E
:1025600010D1217B71B9416821F020014160A06A3E
:1025700020F48070A062A06AC00403D4A06A40F076
:102580000100A0622046FFF7BDFF20686FF0120136
:102590000160310633D515F0040130D0A16AC906B7
:1025A00003D4A16A41F40051A162816801F4E041C1
:1025B000B1F5E04F10D1416821F080014160A06A7F
:1025C00020F48050A062A06AC00511D4A06A40F037
:1025D0000100A0620CE000BF4168490508D4816891
:1025E00001F46021B1F5602F02D1217B0029E2D0F6
:1025F0002046FFF7C9FE20686FF00C0101607006ED
:102600000ED515F0010008BF70BDA06A40F48030FF
:10261000A062204600F0B6F820686FF0010101606A
:1026200070BD0000002804BF01207047B0B504460B
:10263000806A28B121688868C0070CD115E000BF06
:102640000020E06284F82400204600F09DF8216814
:102650008868C00709D0886820F00100886000F011
:102660008DFC21688A68D20726D1A06AC0063AD4B8
:10267000A06A41F2021290430230A062E069D4E9FC
:10268000013240EA030C531EB3FA83F35D0913468B
:10269000B2F5807F18BF2B02207D257B01284CEAF4
:1026A000450030D135B3A56A45F02005A562E56A3D
:1026B00045F00105E56226E0054602E08868C007AE
:1026C000D3D000F05BFC401B21680328F6D3886858
:1026D000C007F3D0A06A40F01000A062E06A40F0AA
:1026E0000100E062A06AA06A40F01000A062012030
:1026F000B0BD00BFD4F818C04EF60005CFF6FF7588
:1027000005EB4C352B434D68B2F5807F25F46945C8
:1027100043EA05034B608B684FF2FD75CFF6E17518
:1027200003EA050343EA00038B6001D0012A07D1C5
:1027300022690023CFF6F07303EB025201E000BFE1
:102740000022CB6A23F470031A43CA62896840F6F8
:10275000FE62CFF61F721140814207D10020E06275
:10276000A16A012262F30101A162B0BDA06A40F03A
:10277000100020F00200A062E06A40F00100E06278
:102780000120B0BD7047000070B586B0044640F629
:102790000000C4F20100216800F5E05200269142D9
:1027A0000596049602D006B070BD00BF41F2180134
:1027B000C4F202010A6842F400720A600A6802F474
:1027C00000720192019A0A6842F004020A600968E4
:1027D00001F0040101910199442102910321039127
:1027E00002A900F0AFFA40F2BC450820C2F2000591
:1027F000C4F202004FF48072C5E9000605F1100032
:1028000080214FF480634FF0200C80E80C102846A4
:10281000C5E90261EE6100F0EDF9002818BFFFF78D
:10282000E7F812200021002225626C6200F026FCED
:10283000122000F011FC06B070BD000070B5154606
:102840000446006842F60002C4F2010290420E46BD
:1028500005D042F20041C4F2010188420AD142F29D
:102860000440C4F20100006810F4702F02D001206F
:1028700070BD00BF94F82400012804BF022070BD81
:10288000012084F824002046FEF752FB20B10020EE
:1028900084F82400012070BD42F204402168A26A3D
:1028A000C4F2010040F601739A4300F57F7302F50C
:1028B00080729942A26243D0A06A20F48010A06284
:1028C0004868400504D5A06A012262F30D30A06279
:1028D000A26A0020D2044FF0000244BFE26A22F054
:1028E0000602E26284F82400206A40F6BD62C0F667
:1028F000000240F6297340F6117C00F1280EC0F664
:102900000003C0F6000C8EE80C106FF002020A60A3
:102910008A682B4642F480728A604C31324600F05D
:10292000ADF92068816801F460228168B2F5602FFA
:102930000CBF41F4A00141F480118160002070BD02
:10294000026812F4702FB7D0A26A42F48012A26219
:1029500000684005B7D4BBE7014690F82100022883
:1029600016D10868D1E90FC3026822F00E02026096
:10297000026822F001020260012000FA03F2CCF8A2
:10298000042081F821000020002281F820207047D7
:10299000042088630120002281F820207047000075
:1029A00090F82110022923D10268116821F00E014C
:1029B00011602F211368C4F202018A4240F204011F
:1029C000C4F2020123F00103136015DD3023C4F2C9
:1029D00002039A421CD04423C4F202039A421BD041
:1029E0005823C4F202039A421CD14FF4803321E0F1
:1029F00004218163012070470823C4F202039A4234
:102A00000ED01C23C4F202039A420BD1102311E012
:102A10004FF480730EE000BF4FF480530AE000BF14
:102A2000012307E001F1680C4FF08073624508BF95
:102A30004FF480130B60012180F82110426B0021BC
:102A400080F8201022B180B590470021BDE8804079
:102A50000846704710B5D0E90FCE0168DCF80030A9
:102A60000A6823FA0EF35C072AD512F0040427D073
:102A70000A68920603D40A6822F004020A602F2230
:102A8000C4F20202914240F20402C4F202025BDD8F
:102A90003023C4F20203994272D04423C4F20203E9
:102AA000994273D05823C4F20203994240F07A80CD
:102AB0004FF480231360C16A002940F098806FE0D2
:102AC0009C0727D512F0020424D00A68920606D487
:102AD0000A6822F00A020A60012280F821202F22CF
:102AE000C4F20202914240F20402C4F202023BDD4F
:102AF0003023C4F20203994260D04423C4F202039B
:102B000099425FD05823C4F20203994260D14FF436
:102B1000003365E01B0743D512F0080208BF10BD63
:102B20000A6822F00E020A60012101FA0EF2CCF8C6
:102B30000420816380F82110016B0022002980F8B5
:102B4000202054D12CE000BF0823C4F20203994294
:102B500022D01C23C4F20203994223D140231360E4
:102B6000C16A002943D11BE00823C4F20203994241
:102B70002CD01C23C4F20203994229D120232FE038
:102B80004FF480631360C16A89BB09E04FF480434E
:102B90001360C16A59BB03E004231360C16A31BBEF
:102BA00010BD00BF02F168044FF08063A14208BF6E
:102BB0004FF480031360C16AC9B9F1E74FF40073A1
:102BC0000EE000BF4FF400530AE000BF022307E00D
:102BD00002F168044FF00073A14208BF4FF40013E4
:102BE0001360816A0022002980F82020D8D0BDE837
:102BF00010400847014600284FF0010008BF704709
:102C00002DE9F0470A684FF6F873CBF6FD7302EB37
:102C1000030C4CF6CD43CCF6CC43ACFB033C6FF03D
:102C20000307002607EA9C07C4F2020601F10C0A1A
:102C3000C1E90F670227D1E9013E9AE83004D1E9E2
:102C4000069881F82170176843F6F076B7433B4346
:102C500043EA0E0323432B4343EA0A0343EA0903EF
:102C600043EA0803136000228A6381F8210081F897
:102C700020200020BDE8F0477047000090F820C0F9
:102C8000BCF1010F04BF02207047F0B54FF0010EF8
:102C900080F820E090F821C0BCF1010F26D14FF060
:102CA000020C80F821C04FF0000CC0F838C0D0E909
:102CB00000C4C56AC66BDCF80070102C27F0010751
:102CC000CCF80070006C0EFA00F070600846CCF88A
:102CD000043004BF10460A46CCF80800CCF80C209B
:102CE000DCF8000045B140F00E000DE0002180F856
:102CF00020100220F0BD00BF20F00400CCF800003E
:102D0000DCF8000040F00A00CCF80000DCF800001D
:102D100040F00100CCF800000020F0BDB0B5044642
:102D200000F02CF9054640F20800C2F200000078DD
:102D3000611C18BF044400BF00F020F9401BA042F2
:102D4000FAD3B0BD2DE9F04F82B00E68002E00F02E
:102D5000FD8041F20042C4F20102042340F2004E21
:102D6000904208BF03234FF6FF7CC4F2010E00938C
:102D700000240123C1F2100C4FF0000A4FF00009AB
:102D800044E000BF012704F00C030F229A402BEA15
:102D9000020207FA03F34FEA9A051A4346F8252080
:102DA0004E6840F20C45F202DEF8082054BF22EAD9
:102DB000080242EA0802C4F20105CEF808202A6897
:102DC000B30254BF22EA080242EA08022A60B303AF
:102DD000DEF8042054BF22EA080242EA0802F303A4
:102DE000CEF80420DEF800204FF0010354BF22EAA1
:102DF000080242EA0802CEF800200E680AF1010A31
:102E000036FA0AF204F1040400F0A08003FA0AFB87
:102E100016EA0B08F1D04E68664511DC122E55D823
:102E2000DFE806F0340A444854545454545454547B
:102E300054545454544C5000D1F80C9046E000BF08
:102E40004FF6FF72C1F2210296420FDC0022C1F25E
:102E5000110296421AD00022C1F21202964215D0F7
:102E60000022C1F22102964210D02FE00022C1F2CE
:102E7000220296420AD00022C1F23102964205D0C7
:102E80000022C1F23202964220D100BF8A684AB1C4
:102E9000012A14BFC0F814B0C0F810B04FF00809F0
:102EA00014E000BF4FF0040910E000BFCA6802F14F
:102EB00008090BE04FF0000908E000BFCA6802F102
:102EC000040903E0CA6802F10C0900BF2246064665
:102ED000B8F5807F24BF203A043637680F25954027
:102EE00027EA050509FA02F22A433260CA79D206B6
:102EF0007FF583AF41F21803C4F202031A68AEF5FE
:102F00007E7642F001021A601A6802F00102019214
:102F1000019A2AF0030256F802B040F60002C4F209
:102F20000102904210D040F60042C4F201029042E9
:102F30003FF428AF41F20002C4F20102009F904228
:102F400008BF02271FE700BF00271CE702B0BDE84B
:102F5000F08F00008068084018BF01207047000013
:102F6000C26802EA0103914341EA034101617047EB
:102F7000002A08BF090401617047000040F67C0088
:102F8000C2F200000068704740F2080040F67C0181
:102F9000C2F20000C2F2000100780A681044086022
:102FA0007047000080B542F20000C4F202000168E0
:102FB00041F010010160032000F08CF80F2000F0B8
:102FC00005F800F027F8002080BD000070B540F241
:102FD0000806C2F2000640F210013278C2F2000187
:102FE0004FF47A730968B3FBF2F20446B1FBF2F1D5
:102FF000084600F00BFC0F2C4FF0010508D838B93B
:103000004FF0FF3021460022002500F037F87460B1
:10301000284670BD82B041F21800C4F20200016877
:10302000022241F001010160016801F001010191FA
:103030000199416841F080514160406800F0805042
:10304000009000980420C4F20100016862F31A6144
:10305000016002B070470000002848BF704700F0D0
:103060001F01012202FA01F11C2202EAD0004EF2F5
:103070000012CEF2000281507047000010B54EF6EB
:103080000C5CCEF2000CDCF80030C3F3022E8EF0A4
:103090000704042C28BF0424BEF103034FF0FF3EB5
:1030A0000EFA04F438BF0023A14399400EFA03F34B
:1030B0009A43114300F00F0200F160430901043A02
:1030C00003F564436244002848BF02F10C03197001
:1030D00010BD00004EF60C51CEF200010A684FF60A
:1030E000FF031A4060F30A2242F0806040F0FD7056
:1030F000086070472DE9F04182B00446007841F243
:103100001C06C007C4F202064AD030685FEAC00855
:1031100008D4306840F080503060306800F0805053
:103120000190019847F20007C4F200073868C00513
:1031300012D4386840F480703860FFF71FFF0546EE
:103140003868C00508D4FFF719FF401B6428F7D979
:10315000032002B0BDE8F081706810F4407012D016
:10316000616801F4407188420DD0706840F24042BD
:10317000C4F24222012320F4407113600023C007EF
:103180001360716026D17068616820F44070084354
:10319000B8F1000F706003D4306820F080503060C8
:1031A0002068810707D556F8181CA26821F4404111
:1031B000114346F8181CC00607D556F8180CE168EC
:1031C00020F48000084346F8180C002002B0BDE847
:1031D000F08100BFFFF7D2FE054641F2883700BFFD
:1031E00070688007CFD4FFF7C9FE401BB8424FF08C
:1031F0000300F5D9EAE70000002804BF012070476A
:103200002DE9F04381B042F20008C4F202080446FE
:10321000D8F800000D4600F0070088420CD2D8F81C
:10322000000020F007002843C8F80000D8F800008C
:1032300000F00700A8426CD1206841F20409810720
:10324000C4F2020917D5410705D5D9F8001041F499
:10325000E061C9F80010010705D5D9F8001041F464
:103260006051C9F80010D9F80010A26821F0F001EF
:103270001143C9F80010C00742D1D8F8000000F08F
:103280000700A8420CD9D8F8000020F00700284316
:10329000C8F80000D8F8000000F00700A84238D1B4
:1032A0002068410707D5D9F80010E26821F4E061F1
:1032B0001143C9F80010000708D5D9F800002169AA
:1032C00020F4605040EAC100C9F80000D9F800209D
:1032D00002F00C00082841F20020C0F27A0051D11F
:1032E00046F65C33C2F38341C0F60003595CD20357
:1032F0003CD440F60010C0F23D00484342E000BF1D
:10330000606802280AD001282AD159F8041C8903D0
:1033100008D4012001B0BDE8F08300BF59F8041CB7
:103320008901F6D5D9F8001021F003010843C9F846
:103330000000FFF723FE064641F28837D9F8000067
:10334000616800F00C00B0EB810F96D0FFF716FE1D
:10335000801BB842F2D9032001B0BDE8F08300BF62
:1033600059F8041C8907D4D5DCE700BFD9F8002040
:1033700046F23033C2F34042C0F600039A5C484341
:10338000B0FBF2F0D9F8001046F21832C1F3031185
:10339000C0F60002515C40F2100220FA01F140F246
:1033A0000C00C2F200000068C2F200021160FFF7D8
:1033B0000DFE002001B0BDE8F083000040F21000D7
:1033C00041F20401C2F20000C4F20201006809687F
:1033D00046F22832C1F30221C0F60002515CC84017
:1033E0007047000040F2100041F20401C2F20000F8
:1033F000C4F202010068096846F22832C1F3C22112
:10340000C0F60002515CC84070470000002804BFAD
:10341000012070472DE9F04182B00446007841F266
:103420000006C007C4F202060CD0706800F00C0061
:10343000042840F081803068800303D5606800284C
:1034400000F04E81207880071BD5706810F00C0FBB
:1034500009D0706800F00C00082840F08B8070687C
:10346000C00300F187803068800703D520690128F8
:1034700040F036813068616920F0F80040EAC10010
:1034800030602078000713D4207840072CD4E569F9
:10349000002D00F02081706800F00C00082840F03A
:1034A000AF80012D40F00C81012002B0BDE8F08119
:1034B000A069002800F08C800020C4F24220012185
:1034C000C0F88014FFF75AFD054600BF706A8007F8
:1034D00000F1BA80FFF752FD401B0228F6D9032005
:1034E00002B0BDE8F08100BFF0695FEAC00808D40F
:1034F000F06940F08050F061F06900F08050009079
:10350000009847F20007C4F200073868C0054DD4A0
:10351000386840F480703860FFF730FD054600BF22
:103520003868C00542D4FFF729FD401B6428F7D94D
:10353000032002B0BDE8F081706800F00C0008289C
:1035400003D17068C0033FF576AF6068002800F0D3
:103550000981B0F5A02F00F01D81B0F5803F00F08B
:103560001D81306820F480303060306820F4802085
:1035700017E100BF2069002840F20000C4F2422099
:1035800000F08C8001210160FFF7F8FC054600BFC8
:10359000306880073FF56EAFFFF7F0FC401B022854
:1035A000F6D9032002B0BDE8F08100BFE068002832
:1035B00000F09A80052800F0B180012800F0B28068
:1035C000306A20F001003062306A20F00400ACE084
:1035D0000020C4F242200021C0F88014FFF7CEFC86
:1035E000054600BF706A80077FF54EAFFFF7C6FC47
:1035F000401B0228F6D9032002B0BDE8F08100BFCD
:103600000027C4F2422700203866FFF7B7FC022DDE
:1036100005460DD13068800140F1D680FFF7AEFC41
:10362000401B02284FF00300F4D902B0BDE8F0813E
:10363000306880014FD5FFF7A1FC401B02284FF0F6
:103640000300F5D9F1E700BF40F21000C2F200001C
:10365000006844F6D351C1F26201A0FB0101480A9F
:10366000019000BF00BF0198411E002801913FF466
:103670000BAF00BF0198411E002801913FF404AF39
:1036800000BF0198411E002801913FF4FDAE00BF2C
:103690000198411E00280191E4D1F5E60021016066
:1036A000FFF76CFC054600BF306880077FF5E9AE88
:1036B000FFF764FC401B02284FF00300F4D9B4E785
:1036C0007068216A00F480328A4209D1616A00F48C
:1036D0007010884204D1002002B0BDE8F08100BF24
:1036E000012002B0BDE8F081306A20F001003062B4
:1036F000306A20F004003062FFF740FC054641F2DA
:10370000883700BF306A800722D5FFF737FC401B9F
:10371000B8424FF00300F5D987E700BF306A40F0A8
:1037200004003062306A40F001003062FFF726FC8E
:10373000054641F2883700BF306A800708D4FFF79A
:103740001DFC401BB842F7D9032002B0BDE8F08150
:10375000B8F1000F3FF59BAEF06920F08050F061AA
:1037600095E600BF306820F480303060306820F487
:1037700080203060FFF702FC054600BF3068800300
:103780007FF560AEFFF7FAFB401B64284FF00300A3
:10379000F4D94AE7306840F480203060306840F463
:1037A00080303060FFF7EAFB054600BF30688003D9
:1037B0003FF548AEFFF7E2FB401B6428F6D9032033
:1037C00002B0BDE8F08100BF206AB0F5803F05D1AE
:1037D0007168A26821F40031114371607168626AF6
:1037E00021F4741111430843706001203866FFF71B
:1037F000C5FB0446306880013FF56DAFFFF7BEFBA7
:10380000001B02284FF00300F4D90EE7411E0020F0
:10381000B0EB116F1CBF012070474EF21002CEF2C8
:10382000000251604EF62351CEF20001F0230B70DE
:1038300007219060116070477047000070470000DA
:10384000B0B582B0044600680168C368426901F0FF
:103850002F05202D03F0200506D12DB1204602B002
:10386000BDE8B04001F014BE5FEA017C1EBF02F06B
:10387000010E03F4907212EB0E0243D1226BCD06BF
:1038800018D5012A16D113F0100213D0002101918E
:1038900001680191416801910199406940063BD45A
:1038A000A08DE18DE28D002A18BF884240F0F281A0
:1038B00002B0B0BD0A0640F1E78013F0800200F0CC
:1038C000E38094F841102129F2D1A168B1F5805F1D
:1038D00003D12169002900F06382216A4A1C226217
:1038E00009784160E18C01390A04E184E0D1C168C2
:1038F00021F08001C160C16841F04001C16002B0A7
:10390000B0BD00BFCA0718BF13F4807240F0D0806A
:103910004A0700F1D380D8E0E06B016849688AB2B9
:10392000002AC5D0A38D9A42C2D2E18580692028A1
:1039300000F09E80206850E8030F216820F480701A
:1039400041E80302DAB1206850E8030F216820F44F
:10395000807041E8030292B1206850E8030F2168AB
:1039600020F4807041E803024AB1206850E8030F58
:10397000216820F4807041E80302002ADAD120682F
:1039800050E8050F216820F0010041E80502C2B3AC
:10399000206850E8050F216820F0010041E8050289
:1039A0007AB3206850E8050F216820F0010041E853
:1039B000050232B3206850E8050F216820F00100AD
:1039C00041E80502002ADAD11BE000BF206850E878
:1039D000050F216820F0400041E80502DAB12068B7
:1039E00050E8050F216820F0400041E8050292B13F
:1039F000206850E8050F216820F0400041E80502EA
:103A00004AB1206850E8050F216820F0400041E8E5
:103A10000502002ADAD1202084F842000020206329
:103A2000206850E8030F216820F0100041E80302ED
:103A3000DAB1206850E8030F216820F0100041E857
:103A4000030292B1206850E8030F216820F01000B3
:103A500041E803024AB1206850E8030F216820F0D2
:103A6000100041E80302002ADAD1E06BFEF774FF90
:103A700002206063A08DE18D401A81B2204602B021
:103A8000BDE8B040FFF7D8BE49067FF511AF13F08F
:103A900040013FF40DAFC16821F04001C160202119
:103AA000204684F8411002B0BDE8B04000F050BBA1
:103AB000626C42F0010262644A0706D5BEF1000F53
:103AC00003D0626C42F0020262648A0706D5BEF13E
:103AD000000F03D0626C42F004026264BCF1000F7C
:103AE00006D55EEA050203D0626C42F00802626409
:103AF000626C002A3FF4DCAE890604D51DB1204675
:103B000001F0C6FC20684069616C00F0400001F0E3
:103B10000801401800F0B680206850E8030F2168C3
:103B200020F4907041E80302BAB3206850E8030F14
:103B3000216820F4907041E8030272B3206850E8D5
:103B4000030F216820F4907041E803022AB3206833
:103B500050E8030F216820F4907041E80302002A26
:103B6000DAD11AE0206850E8050F216820F0010042
:103B700041E80502DAB1206850E8050F216820F01D
:103B8000010041E8050292B1206850E8050F216864
:103B900020F0010041E805024AB1206850E8050F15
:103BA000216820F0010041E80502002ADAD1206BEB
:103BB000012824D1206850E8030F216820F010006C
:103BC00041E80302DAB1206850E8030F216820F0D1
:103BD000100041E8030292B1206850E8030F216809
:103BE00020F0100041E803024AB1206850E8030FBA
:103BF000216820F0100041E80302002ADAD12020D9
:103C000084F842000020206320684069400640F1AB
:103C1000C180206850E8050F216820F0400041E88D
:103C20000502DAB1206850E8050F216820F0400055
:103C300041E8050292B1206850E8050F216820F0A4
:103C4000400041E805024AB1206850E8050F2168AC
:103C500020F0400041E80502002ADAD1E06B00289C
:103C600000F0988045F28541C0F600014163FEF7FF
:103C700097FE00283FF41CAEE06B416B02B0BDE83C
:103C8000B04008472046FFF7D9FD0020606402B02D
:103C9000B0BD00BF401A00BF216851E8031F226871
:103CA00021F4907142E80313BBB3216851E8031F6C
:103CB000226821F4907142E8031373B3216851E83C
:103CC000031F226821F4907142E803132BB321688B
:103CD00051E8031F226821F4907142E80313002B7E
:103CE000DAD11AE0216851E8051F226821F00101AC
:103CF00042E80513DBB1216851E8051F226821F075
:103D0000010142E8051393B1216851E8051F2268BB
:103D100021F0010142E805134BB1216851E8051F6C
:103D2000226821F0010142E80513002BDAD120219D
:103D300084F8421000212163216851E8031F2268A2
:103D400021F0100142E80313DBB1216851E8031FA1
:103D5000226821F0100142E8031393B1216851E871
:103D6000031F226821F0100142E803134BB12168C0
:103D700051E8031F226821F0100142E80313002BD1
:103D8000DAD1022281B22046626302B0BDE8B040BF
:103D9000FFF752BD204602B0BDE8B040FFF74EBD70
:103DA000216A31F8022B6FF35F224260216299E5AC
:103DB000002804BF0120704710B5044690F8410068
:103DC00028B9002084F84000204600F063F8242041
:103DD00084F841002068D4E90212C36823F4005338
:103DE000C360036923F440531A430261D4E90423F6
:103DF0001143C268194341F20C639A431143C160F5
:103E00004169A26921F44071114343F60002C4F2F2
:103E100001029042416103D0FFF7D0FA02E000BFF7
:103E2000FFF7E0FAD4E90023192148439900B0FBD9
:103E3000F1F048F21F5CC5F2EB1CA0FB0C314FF611
:103E40009C734909C0F6FF7301FB0300322303EBA7
:103E50000010A0FB0C03F02000EA531000EB01104F
:103E6000C3F34311084490601069202120F490406E
:103E70001061506920F02A005061D06840F4005071
:103E8000D0600020606484F8411084F842106063C0
:103E900010BD000070B586B040F60004C4F2010405
:103EA000006804F5405100268842049602D006B00E
:103EB00070BD00BF41F21800C4F20200016802ADFB
:103EC00041F480410160016801F480410191019950
:103ED000016841F0040101600068294600F0040017
:103EE000019001984FF4007002900220039003208B
:103EF00005902046FEF726FF4FF48060CDE90206CC
:103F0000204629460496FEF71DFF252000210022A9
:103F1000FFF7B4F82520FFF79FF806B070BD00004A
:103F200090F84230202B07D100294FF0010318BF31
:103F3000002A05D11846704702231846704700BF73
:103F400000230363816222218285C285436480F855
:103F500042100169006819B1C16841F48071C16003
:103F6000416941F001014161C16841F02001C16036
:103F70001846704740F20051C2F20001884218BF53
:103F80007047B0B540F21804C2F2000460783E28D1
:103F900006D801306070204400F1180104E000BF31
:103FA000002004F11801607040F20050C2F20000DD
:103FB00001220125FFF7B4FF60782044C07D0D2861
:103FC00006D00A2808BF2570BDE8B040704700BF82
:103FD0002570BDE8B04070472DE9F041044690F8E7
:103FE000410020281CBF0220BDE8F0810D460029B9
:103FF0004FF0010000F0AA801646002A08BFBDE875
:10400000F081002060642120984684F84100FEF78A
:10401000B5FFA684E684A1680646B1F5805F02D1AB
:104020002069002862D02F460025E08C002861D04E
:1040300018F1010018D0B8F1000F37D1216808E05D
:1040400017F8010B4860E08C0138E084E08C002810
:1040500051D00868000673D5002FF1D135F8020B56
:1040600000276FF35F20EDE7216802E00868000693
:1040700009D40868000606D4086800065CBF086812
:104080005FEA0060F2D51FB117F8010B05E000BF31
:1040900035F8020B00276FF35F204860E08C013891
:1040A000E084E08C0028E4D125E000BF216800BF57
:1040B0000868000608D4FEF761FF801B404541D820
:1040C0002168C868F4E700BF17B117F8010B04E0D6
:1040D00035F8020B00276FF35F204860E08C013851
:1040E000E084E08C0028E3D105E000BF0027E08CED
:1040F00000289DD12168086840061FD4B8F1000F40
:104100001ED018F101000FD10868400616D40868C7
:10411000400613D40868400610D4086840064FF0E3
:104120000000F1D50FE000BFFEF728FF801B4045DF
:1041300008D82068C16800684006F5D5002002E074
:10414000FEF71CFF0320202184F84110BDE8F08118
:1041500070470000FEE7000010B584B040F28C40CC
:1041600042F20041C2F20000C4F201014FF4807C2F
:10417000012400234FF4602280E80A100221047316
:104180000375C2610161FEF74DFA002818BFFDF703
:104190002FFC0620CDE901040720039040F28C405B
:1041A000C2F2000001A9FEF7F1F8002818BFFDF7E0
:1041B0001FFC0220CDE901000020039040F28C405A
:1041C000C2F2000001A9FEF7E1F8002818BFFDF7D0
:1041D0000FFC04B010BD000080B582B041F21400A5
:1041E000C4F202000168002241F001010160006890
:1041F000002100F00100019001980B20FEF73EFF26
:104200000B2002B0BDE88040FEF726BF2DE9F04349
:1042100085B041F21800C4F20200016840F60004C3
:1042200041F0100101600168C4F2010401F01001C5
:10423000019101990168002241F0200101600168AB
:10424000012601F020010191019901684FF0000958
:1042500041F004010160016801F00401019101993C
:10426000016841F0080101600068012100F00800C8
:10427000019001982046FEF77BFE20460221002295
:104280004FF00208FEF774FE1120CDE9020603206C
:1042900001AD0490204629460196FEF753FD2046C5
:1042A0002946CDF80480FEF74DFD202720462946FB
:1042B000CDE90179CDF80C90FEF744FD04F580605E
:1042C0002946CDE90176CDE90368FEF73BFD05B04F
:1042D000BDE8F08380B540F2005043F60001C2F221
:1042E0000000C4F2010100234FF00C0C4FF4164201
:1042F00080E80E00C0E90333C0E905C3C361FFF7DE
:1043000057FD002808BF80BDBDE88040FDF770BBA9
:10431000FEE70000FEE7000080B540F27000C2F248
:1043200000004FF48061FBF704FF80BD70B586B0DC
:1043300041F21800C4F20200016840F6000441F0A6
:10434000100101600168C4F2010401F01001019143
:104350000199016801AD41F0040101600068012686
:1043600000F00400019001981120029003200490B5
:1043700002200190204629460396FEF7E3FC2046E2
:1043800029460196FEF7DEFC204601210122FEF7B8
:10439000EFFD0025ADF81650BDF81600022823D811
:1043A000BDF816000130ADF81600BDF81600022861
:1043B0001AD8BDF816000130ADF81600BDF8160089
:1043C000022811D8BDF816000130ADF81600BDF86E
:1043D0001600022808D8BDF816000130ADF8160006
:1043E000BDF816000328DBD3204602210122FEF788
:1043F000BFFDADF81650BDF81600022824D800BF46
:10440000BDF816000130ADF81600BDF81600022800
:104410001AD8BDF816000130ADF81600BDF8160028
:10442000022811D8BDF816000130ADF81600BDF80D
:104430001600022808D8BDF816000130ADF81600A5
:10444000BDF816000328DBD306B070BDF0B583B00D
:1044500040F600040546C4F201040026002703E0EC
:104460000137082F00F0968005FA07F0C0B2C209A4
:1044700020460221FEF77CFDADF80260BDF8020087
:10448000022823D8BDF802000130ADF80200BDF8C3
:10449000020002281AD8BDF802000130ADF802006F
:1044A000BDF80200022811D8BDF802000130ADF8B5
:1044B0000200BDF80200022808D8BDF80200013051
:1044C000ADF80200BDF802000328DBD3204601212D
:1044D0000122FEF74DFDADF80460BDF8040002288E
:1044E00024D800BFBDF804000130ADF80400BDF8C9
:1044F000040002281AD8BDF804000130ADF8040009
:10450000BDF80400022811D8BDF804000130ADF850
:104510000400BDF80400022808D8BDF804000130EA
:10452000ADF80400BDF804000328DBD320460121C8
:104530000022FEF71DFDADF80660BDF8060002285A
:104540008ED800BFBDF806000130ADF80600BDF8FA
:10455000060002283FF684AFBDF806000130ADF832
:104560000600BDF8060002283FF67AAFBDF8060047
:104570000130ADF80600BDF8060002283FF670AF26
:10458000BDF806000130ADF80600BDF806000328AE
:10459000D8D365E7204601210122FEF7E9FC00257A
:1045A000ADF80850BDF80800022823D8BDF808006F
:1045B0000130ADF80800BDF8080002281AD8BDF88F
:1045C00008000130ADF80800BDF80800022811D835
:1045D000BDF808000130ADF80800BDF80800022859
:1045E00008D8BDF808000130ADF80800BDF8080093
:1045F0000328DBD3204601210022FEF7B9FCADF8E9
:104600000A50BDF80A00022824D800BFBDF80A00ED
:104610000130ADF80A00BDF80A0002281AD8BDF82A
:104620000A000130ADF80A00BDF80A00022811D8CE
:10463000BDF80A000130ADF80A00BDF80A000228F2
:1046400008D8BDF80A000130ADF80A00BDF80A002C
:104650000328DBD303B0F0BDB0B582B040F6000450
:10466000C4F20104204602210122FEF781FC00254C
:10467000ADF80050BDF80000022823D8BDF80000B6
:104680000130ADF80000BDF8000002281AD8BDF8CE
:1046900000000130ADF80000BDF80000022811D87C
:1046A000BDF800000130ADF80000BDF800000228A0
:1046B00008D8BDF800000130ADF80000BDF80000DA
:1046C0000328DBD3204601210122FEF751FCADF87F
:1046D0000250BDF80200022824D800BFBDF8020035
:1046E0000130ADF80200BDF8020002281AD8BDF86A
:1046F00002000130ADF80200BDF80200022811D816
:10470000BDF802000130ADF80200BDF80200022839
:1047100008D8BDF802000130ADF80200BDF8020073
:104720000328DBD32046022100220025FEF720FCCF
:10473000ADF80450BDF80400022823D8BDF80400E9
:104740000130ADF80400BDF8040002281AD8BDF805
:1047500004000130ADF80400BDF80400022811D8AF
:10476000BDF804000130ADF80400BDF804000228D3
:1047700008D8BDF804000130ADF80400BDF804000D
:104780000328DBD3204601210022FEF7F1FBADF820
:104790000650BDF80600022824D800BFBDF8060068
:1047A0000130ADF80600BDF8060002281AD8BDF8A1
:1047B00006000130ADF80600BDF80600022811D849
:1047C000BDF806000130ADF80600BDF8060002286D
:1047D00008D8BDF806000130ADF80600BDF80600A7
:1047E0000328DBD302B0B0BDB0B582B040F6000400
:1047F000C4F201042046022100220025FEF7B8FB86
:10480000ADF80250BDF80200022823D8BDF802001E
:104810000130ADF80200BDF8020002281AD8BDF838
:1048200002000130ADF80200BDF80200022811D8E4
:10483000BDF802000130ADF80200BDF80200022808
:1048400008D8BDF802000130ADF80200BDF8020042
:104850000328DBD3204601210122FEF789FBADF8B6
:104860000450BDF80400022824D800BFBDF804009D
:104870000130ADF80400BDF8040002281AD8BDF8D4
:1048800004000130ADF80400BDF80400022811D87E
:10489000BDF804000130ADF80400BDF804000228A2
:1048A00008D8BDF804000130ADF80400BDF80400DC
:1048B0000328DBD3204602210122FEF759FB00200A
:1048C000ADF80600BDF80600022823D8BDF80600A2
:1048D0000130ADF80600BDF8060002281AD8BDF870
:1048E00006000130ADF80600BDF80600022811D818
:1048F000BDF806000130ADF80600BDF8060002283C
:1049000008D8BDF806000130ADF80600BDF8060075
:104910000328DBD302B0B0BD80B5FFF707FDFFF77A
:104920009BFE7820FFF792FD0020FFF78FFDAE2061
:10493000FFF78CFDFFF758FFFFF78EFE7820FFF79B
:1049400085FD0020FFF782FDD520FFF77FFDFFF7F3
:104950004BFFFFF781FE7820FFF778FD0020FFF77F
:1049600075FD8020FFF772FDFFF73EFFFFF774FE35
:104970007820FFF76BFD0020FFF768FDA820FFF708
:1049800065FDFFF731FFFFF767FE7820FFF75EFD5B
:104990000020FFF75BFD3F20FFF758FDFFF724FFE6
:1049A000FFF75AFE7820FFF751FD0020FFF74EFD7C
:1049B000D320FFF74BFDFFF717FFFFF74DFE7820E1
:1049C000FFF744FD0020FFF741FD0020FFF73EFD0B
:1049D000FFF70AFFFFF740FE7820FFF737FD0020C2
:1049E000FFF734FD4020FFF731FDFFF7FDFEFFF735
:1049F00033FE7820FFF72AFD0020FFF727FDA120D6
:104A0000FFF724FDFFF7F0FEFFF726FE7820FFF703
:104A10001DFD0020FFF71AFDC820FFF717FDFFF767
:104A2000E3FEFFF719FE7820FFF710FD0020FFF7E7
:104A30000DFDDA20FFF70AFDFFF7D6FEFFF70CFEAB
:104A40007820FFF703FD0020FFF700FD1220FFF79D
:104A5000FDFCFFF7C9FEFFF7FFFD7820FFF7F6FC2E
:104A60000020FFF7F3FC8120FFF7F0FCFFF7BCFE0E
:104A7000FFF7F2FD7820FFF7E9FC0020FFF7E6FCE6
:104A8000CF20FFF7E3FCFFF7AFFEFFF7E5FD78204F
:104A9000FFF7DCFC0020FFF7D9FCD920FFF7D6FC9C
:104AA000FFF7A2FEFFF7D8FD7820FFF7CFFC00202C
:104AB000FFF7CCFCF120FFF7C9FCFFF795FEFFF7ED
:104AC000CBFD7820FFF7C2FC0020FFF7BFFCDB2006
:104AD000FFF7BCFCFFF788FEFFF7BEFD7820FFF76D
:104AE000B5FC0020FFF7B2FC3020FFF7AFFCFFF76A
:104AF0007BFEFFF7B1FD7820FFF7A8FC0020FFF751
:104B0000A5FCA420FFF7A2FCFFF76EFEFFF7A4FDB3
:104B10007820FFF79BFC0020FFF798FCA620FFF70A
:104B200095FCFFF761FEFFF797FD7820FFF78EFCFD
:104B30000020FFF78BFC8D20FFF788FCFFF754FE69
:104B4000FFF78AFD7820FFF781FC0020FFF77EFC4D
:104B50001420FFF77BFCFFF747FEFFF77DFD782071
:104B6000FFF774FC0020FFF771FCAF20FFF76EFC2D
:104B7000FFF73AFE40F27000C2F200004FF480618D
:104B8000FBF7D7FABDE8804000F086B9B0B50C4617
:104B900040F0B005FFF760FD7820FFF757FC0020DC
:104BA000FFF754FC2846FFF751FCFFF71DFE2009D4
:104BB00000F11005FFF750FD7820FFF747FC0020BB
:104BC000FFF744FC2846FFF741FCFFF70DFEFFF717
:104BD00043FD7820FFF73AFC0020FFF737FC04F094
:104BE0000F00FFF733FCBDE8B040FFF7FDBD00004C
:104BF0002DE9F04F83B047B2002F01D43F2903D9EC
:104C000003B0BDE8F08F00BF5F18402FCDE9013140
:104C100088BFC1F14003DBB2002B5BD011188029A3
:104C200011466FF07F0788BF391ADDF80890C9B2C6
:104C300003EB090EE1B340F2700801EB000BC2F286
:104C400000084C4606E000BF09F101095FFA89F44B
:104C5000A6453FD909F00703012101FA03F3DD431B
:104C60004FEAD40A0746064608EBCA14E35D03EA96
:104C70000501731CDBB29B45E155E5D9E15CB71C2E
:104C8000FFB22940BB45E154DED9E15DF31C5FFA78
:104C900083FC2940E345E155D6D914F80C100436BD
:104CA000F7B22940BB4504F80C10DDD8CCE700BFB3
:104CB0004F4600BF791CC9B28E450BD9B91CC9B289
:104CC0008E4507D9F91CC9B28E4503D90437F9B20C
:104CD0008E45EFD80199002AA1F101018BB201EBB9
:104CE00053314FEAE10B5DD003460299802828BF7B
:104CF0008023803B029340F27003C2F20003184409
:104D00004FEAD10E01F0070100F1800300F5607059
:104D1000C1F10809009000204FF0000A019306E05D
:104D20000AF1010A5FFA8AF08345FFF469AF704423
:104D300007283FF665AF0C985FFA8AF302FB030081
:104D400010D1009D029E1346002EE9D010F8017B81
:104D50002C788F40274305F8017B013B06F10106C3
:104D6000F2D1DDE7019F734407EBC316029B1546A2
:104D7000002BD5D090F800C016F8808C0CFA01F406
:104D800044EA080406F8804C10F8014B377824FAFE
:104D900009F4274306F8017B013D03F10103E7D144
:104DA000BEE700BF002000BF40F00101C9B28B4543
:104DB000FFF426AF40F00201C9B28B45FFF420AFEB
:104DC00040F00301C9B28B45FFF41AAF0430C1B201
:104DD0008B45E9D214E700002DE9F04381B0144679
:104DE0001278DAB389460646082B1FD0062B39D134
:104DF00046F232380027C0F6000800BF07EB470034
:104E000002EB420106EB400008EB4101A1F1C005B5
:104E1000C0B24946062208230095FFF7E9FE013794
:104E2000F8B2225C002AE9D118E000BF46F26C58C3
:104E30000027C0F6000800BF06EBC70008EB021110
:104E4000A1F50075C0B24946082210230095FFF76E
:104E5000CFFE0137F8B2225C002AEDD101B0BDE8E7
:104E6000F08300BF002000BF40F00101C9B2615CC7
:104E70000029F3D040F00201C9B2615C0029EDD0F5
:104E800040F00301C9B2615C0029E7D00430C1B22F
:104E9000615C0029E8D1E1E72DE9F04F83B040F6ED
:104EA000000440F27008C4F201040025C2F20008B8
:104EB0004FF0000908E000BFFFF796FC09F1010977
:104EC000B9F1080F00F01A815FFA89F000214FF064
:104ED000000BFFF75BFE08EBC91AFFF7BDFB78205C
:104EE000FFF7B4FA4020FFF7B1FA04E00BF1010B31
:104EF000BBF1800FE0D01AF80B70002604E000BF71
:104F00000136082E00F0968007FA06F0C0B2C209FA
:104F100020460221FEF72CF8ADF80250BDF8020041
:104F2000022823D8BDF802000130ADF80200BDF818
:104F3000020002281AD8BDF802000130ADF80200C4
:104F4000BDF80200022811D8BDF802000130ADF80A
:104F50000200BDF80200022808D8BDF802000130A6
:104F6000ADF80200BDF802000328DBD32046012182
:104F70000122FDF7FDFFADF80450BDF80400022842
:104F800024D800BFBDF804000130ADF80400BDF81E
:104F9000040002281AD8BDF804000130ADF804005E
:104FA000BDF80400022811D8BDF804000130ADF8A6
:104FB0000400BDF80400022808D8BDF80400013040
:104FC000ADF80400BDF804000328DBD3204601211E
:104FD0000022FDF7CDFFADF80650BDF8060002280F
:104FE0008ED800BFBDF806000130ADF80600BDF850
:104FF000060002283FF684AFBDF806000130ADF888
:105000000600BDF8060002283FF67AAFBDF806009C
:105010000130ADF80600BDF8060002283FF670AF7B
:10502000BDF806000130ADF80600BDF80600032803
:10503000D8D365E7204601210122FDF799FFADF89D
:105040000850BDF80800022824D800BFBDF80800A9
:105050000130ADF80800BDF8080002281AD8BDF8E4
:1050600008000130ADF80800BDF80800022811D88A
:10507000BDF808000130ADF80800BDF808000228AE
:1050800008D8BDF808000130ADF80800BDF80800E8
:105090000328DBD3204601210022FDF769FFADF88C
:1050A0000A50BDF80A0002283FF620AFBDF80A00FA
:1050B0000130ADF80A00BDF80A0002283FF616AF2D
:1050C000BDF80A000130ADF80A00BDF80A00022858
:1050D0003FF60CAFBDF80A000130ADF80A00BDF88C
:1050E0000A0002283FF602AFBDF80A000130ADF811
:1050F0000A00BDF80A000328D8D3F7E603B0BDE8DC
:10510000F08F000070470000704700002DE9F04F5D
:1051100099B040F21806C2F2000640F27047B46837
:10512000C2F2000739682046FBF7A4FA40F248555E
:10513000C2F20005D0B1F468B9682046FBF79AFACC
:10514000D0B13469F9682046FBF794FAAA218DF8AA
:105150005F10B8B10421D5F824038DF86010002148
:10516000C4F2C821FBF780F815E000BF4FF4D570FA
:10517000ADF85F0010E000BF40F2AA20ADF85F007C
:105180000AE000BF032000218DF86000C4F2201166
:105190002046FBF79BF804462046FBF7A3FA95F858
:1051A000281340F200588DF861005520C2F2000823
:1051B0008DF862108DF863000DF15F014046052205
:1051C0006423FEF709FFD6E902073469FBF7A3FA67
:1051D000814638468A46FBF79EFA074620468B46AC
:1051E000FBF799FA0446D5F824030E46FBF793FA29
:1051F000CDE902460DF11F040D4604900AA1204698
:105200004A465346CDE9007B059500F09BFB2046BE
:10521000FAF7B0FF82B2404621466423FEF7DCFE77
:1052200019B0BDE8F08F00BF5B414C41524D5D208D
:1052300054656D703A252E316620536D6F6B653A5B
:10524000252E306620434F3A252E30662052697352
:105250006B3A252E32660D0A00000000FDF794BE61
:10526000B0B594B000240120CDE90F44CDE90D4440
:105270000A900E904FF4E0104FF480310225139005
:105280000AA80494CDE90244CDE90B14CDE91151EB
:10529000FEF7BCF8A0B146F6B83040F60044C0F6C0
:1052A0000000C4F2010401F005F8EFF3108072B6BB
:1052B00020462021FDF754FEC820FDF72FFDF7E71B
:1052C0000F20CDE905054FF48060CDE9080405A85D
:1052D00002210794FDF790FFA0B146F6B83040F6E2
:1052E0000044C0F60000C4F2010400F0E3FFEFF355
:1052F000108072B620462021FDF732FEC820FDF74F
:105300000DFDF7E7022001904FF40040039001A843
:10531000FDF7F0FEA0B146F6B83040F60044C0F606
:105320000000C4F2010400F0C5FFEFF3108072B674
:1053300020462021FDF714FEC820FDF7EFFCF7E71B
:1053400014B0B0BD7047000080B540F24850C2F2C2
:105350000000FCF791FFFBF743FEFFF7DDFAFEF7D5
:10536000DBFFFFF799FD11A2002000211023FFF7BA
:1053700033FD12A2002002211023FFF72DFDFFF7BD
:105380008BFD4FF4FA60FDF7C9FCFEF7C5FFFFF790
:1053900083FD40F60040C4F2010020210022FDF709
:1053A000E7FDBDE8804000F011B800BF46697265B6
:1053B000204D6F6E69746F7200000000436F6D7056
:1053C0006C657465205665720000000080B5FEF7BC
:1053D000A3FFFFF761FD1AA2002000210C23FFF7B5
:1053E000FBFC1AA2002002210C23FFF7F5FCFFF7BB
:1053F00053FD4FF47A70FDF791FC16A200200021B6
:105400000C23FFF7E9FC16A2002001210C23FFF773
:10541000E3FC16A2002002210C23FFF7DDFCFFF7BE
:105420003BFD4FF47A70FDF779FC13A200200021B8
:105430001023FFF7D1FCBDE88040FFF72DBD00BF72
:105440004F4C4544205465737400000048656C6CF3
:105450006F2100004C696E652031204142430000FD
:105460004C696E6520322044454600004C696E65EB
:10547000203320474849000054657374204F4B2166
:1054800000000000406A0021C185C184FEF7D6B942
:1054900081B090F84210222921D183680246B3F5E9
:1054A000805F09D152F8281F52F8183C002B63D0B6
:1054B00003685B680AE000BF52F8281F13B903694C
:1054C000002BF5D003685B6803F07F030B70116855
:1054D00001311160C18D01390A04C18502D001B0CA
:1054E000704700BF0168CA6822F02002CA60CA681B
:1054F00022F48072CA604A6922F001024A612021C6
:1055000080F8421000214163026B012A3CD1016303
:10551000016851E8031F026821F0100142E80313FB
:10552000DBB1016851E8031F026821F0100142E875
:10553000031393B1016851E8031F026821F01001C1
:1055400042E803134BB1016851E8031F026821F0E0
:10555000100142E80313002BDAD101680A68D20671
:1055600006D5002200920A680092496800910099CD
:10557000818D01B0FEF760B9026852686FF35F2257
:1055800021F8022B8162A5E701B0FEF7F3BC000011
:1055900040F20050C2F20000FEF752B9FEE70000F0
:1055A00080B582B0019040F20050C2F2000001A923
:1055B00001224FF6FF73FEF70FFD019802B080BD88
:1055C000A0B0FDF7EFFCFFF74BFE46F6E930C0F662
:1055D000000000F06FFEFEF719FEA2A000F06AFEC8
:1055E000FEF7FAFDFEF7B8FDFEF774FEA2A000F08C
:1055F00061FEFFF7A9FEA8A000F05CFE40F21804CF
:10560000C2F20004254635F8041FADA06A8800F0F8
:105610006FF9FBF74FFFFBF77EF80246AFA00B4692
:1056200000F066F940F28C40C2F2000029460222E6
:10563000FDF704F940F2005005F11401C2F2000038
:105640000122FEF76DFC4FF2000740F2485940F28C
:10565000704B4AF61468C4F27F57C2F20009C2F2D6
:10566000000BC0F2471814E046F68330C0F6000085
:10567000314600F03DF92146002021F8180B40F298
:105680000050C2F200000122FEF74AFC0A20FDF79A
:1056900045FBFBF70FFFA0608246A08840F6FF7134
:1056A000081AFBF711F80021C4F2C821FAF7DCFD53
:1056B0003946FAF70BFEE0600546E088FBF70DF887
:1056C0000021C4F27A41FAF7CFFD3946FAF7FEFD20
:1056D00003462061484651462A46FCF7D3FDFCF7B5
:1056E000DFF8A068DBF80010FAF7D2FFA0B9E06895
:1056F000DBF80810FAF7CCFF70B92069DBF80C1062
:10570000FAF7C6FF40B999F8280303284FF00000C4
:1057100038BF012001E000BF0020A178002808BFA9
:1057200000290BD00840012840F0988046F601453A
:105730000026C0F60005A67008E000BF0126A6708E
:10574000FFF7E4FC46F6D235C0F6000540F600400F
:10575000C4F2010020213246FDF70AFC284600F081
:10576000A9FDA078C0B1FDF709FC44F6D351C1F200
:105770006201A0FB011251094FF4FA7201FB120001
:105780000022FA2840F60040C4F201004FF0200148
:1057900038BF0122FDF7ECFBFDF7F0FB45F6294190
:1057A000CCF28F2148434FEAF000404504D92078DD
:1057B00001287FF46BAF2CE0FF2004F108068DF880
:1057C000000061CE0021C4F22011FAF74DFDFAF776
:1057D00089FFADF801002846FAF784FFADF8030011
:1057E0003046FAF77FFF99F82813ADF80500FE2040
:1057F0008DF8080040F200508DF80710C2F200004A
:10580000694609226423FEF7E7FB207801287FF42C
:105810003DAF607801382118097E0D2902D00A2990
:105820007FF429AF04F11806002131543046FBF70C
:10583000F5FB00283FF418AF46F69630C0F600009E
:10584000314600F055F86D4628468021FBF78EFD65
:1058500046F6AA30C0F6000029460AE700297FF480
:1058600082AF99E74750494F20696E697469616C4E
:10587000697A65640D000000416C6C207065726986
:1058800070686572616C7320696E697469616C69B6
:105890007A65640D000000000D0A3D3D3D2046691B
:1058A0007265204D6F6E69746F72205379737465E1
:1058B0006D2053746172746564203D3D3D0D0000A0
:1058C00041444320444D41204275666665723A204A
:1058D0005B25642C2025645D0D0A000054656D7005
:1058E000657261747572653A20252E31660D0A0065
:1058F0000FB4054B10B503A9044A029800F01CF937
:1059000010BC5DF814FB0000A15500080000002049
:105910000FB47CB50C0009AD01D0611E00E0002180
:10592000CDE90001064B6A462946089800F004F9C3
:10593000002C02D0009A002111707CBC5DF814FB91
:10594000676200080FB4084B10B504A902AA0398B7
:1059500000F0F2F8044602A9002000F08FFC204677
:1059600010BC5DF814FB00007D620008014800686F
:10597000704700000400002002E008C8121F08C1A0
:10598000002AFAD170477047002001E001C1121FC0
:10599000002AFBD1704700000149086070470000F1
:1059A000040000202DE9FF5F82B00021DDE9043012
:1059B000020DDDF840B0034318D044F61050A2F2B7
:1059C000FF3242431514119801281FD0A5EB0B009C
:1059D000401C5FEA000A4FF000064E4FDFF8389196
:1059E000B046504615D5CAF1000413E011980124C1
:1059F0004AA3012801D16FEA0B010298119AC0E96C
:105A00000031C0E9024206B0BDE8F09FCBF10000D2
:105A1000DFE704460021404A491842EB0450CDE933
:105A2000001012E0E00707D032463B4640464946A8
:105A3000FAF731FD8046894632463B461046194604
:105A4000FAF729FD06460F466410002CEAD1DDE97D
:105A50000401DDE90023BAF1000F06DAFAF71BFDB5
:105A600042464B46FAF717FD05E0FAF786FD424637
:105A70004B46FAF782FD04460E460022284BFAF701
:105A8000F1FF03D84FF0FF30014607E00022254B1D
:105A900020463146FAF758FCFAF7CCFF102409E00B
:105AA000002C0ADB0A220023FAF77AFE039B30322D
:105AB0001A55641E50EA0102F2D1641C039AC4F123
:105AC00011031444119A012A03D0012208430DD175
:105AD0000AE0084304D000204FF0110B119072E748
