:020000040800F2
:10000000900C00200101000819480008594600081A
:1000100015480008211400087D5C0008000000005D
:100020000000000000000000000000006957000808
:100030002D1B00080000000009560008E9580008C0
:100040001B0100081B0100081B0100081B01000820
:100050001B0100081B0100081B0100081B01000810
:100060001B0100081B0100081B010008FD1500080A
:100070001B0100081B0100081B0100081B010008F0
:100080001B0100081B010008110F00081B010008DC
:100090001B0100081B0100081B0100081B010008D0
:1000A0001B0100081B0100081B0100081B010008C0
:1000B0001B0100081B0100081B0100081B010008B0
:1000C0001B0100081B0100081B0100081B010008A0
:1000D0001B010008715C00081B0100081B010008DF
:1000E0001B0100081B0100081B010008DFF80CD0F1
:1000F00000F000FD00480047A15C0008900C0020C3
:100100000648804706480047FEE7FEE7FEE7FEE7B1
:10011000FEE7FEE7FEE7FEE7FEE7FEE7D15900084F
:10012000ED000008D2B201E000F8012B491EFBD21D
:1001300070470022F6E710B513460A4604461946F2
:10014000FFF7F0FF204610BD10B5044604E00B7821
:1001500000F8013B03B1491C521EF8D2204610BDE5
:10016000CAB2401E10F8011F8A4202D00029F9D1FC
:1001700000207047421C10F8011B0029FBD1801A97
:10018000704710B5002200E0521C835C8C5CA342D7
:1001900001D1002BF8D1D8B2E1B2401A10BD30B570
:1001A00004460020034600E05B1C934203D2E05C5F
:1001B000CD5C401BF8D030BDF0B480EA0102D40F12
:1001C0004200B2EB410F02D20246084611464A00F5
:1001D00042D0C30DDDB2C1F3C752AD1A202D35DABE
:1001E000C1F3160141F4000204B15242C5F12006E8
:1001F00002FA06F12A411044B3EBD05F23D0C4B118
:10020000012DA0EBC35009DCF0BC4FF0004202EA24
:10021000C352DBB200F5000000F0B1BB400000F1BA
:10022000807000EBC350A0F1807040EAD1704900AB
:1002300009E0490841EAC071A0EBC35000F5000095
:10024000400800EBC350F0BC00F090BB61420122BB
:1002500002EB4101001BF6E7F0BC704781F0004162
:10026000AAE780F00040A7E780EA010210B502F09B
:100270000043400022D04A001FD0010E01EB126162
:10028000C0F35600C2F3560240F4000042F40002EC
:10029000A0FB022000047F39140400D0401C50EA67
:1002A000124001D44000491EC2B20C0604EBD0102B
:1002B000401C4008802A02D003E0002010BD20F03E
:1002C0000100002900DA0020184310BD30B480EA94
:1002D000010202F0004530F0004221F0004013D04E
:1002E00090B1C30DD40DC2F31601C0F31600E41A89
:1002F00041F4000140F400027D34914201D3641CBA
:1003000000E04900002C02DA30BC002070474FF4B6
:1003100000000023914201D3891A034340084FEAA9
:100320004101F7D151B1914202D14FF0004105E0B6
:1003300002D24FF0010101E06FF0010103EBC45064
:10034000284430BC00F012BB2DE9FE4F804681EA04
:100350000300C00F0C46009021F0004123F000453F
:10036000B8EB0200A94105D24046214690461C4602
:100370000B46024623F00040104347D0270DC7F339
:100380000A00C3F30A510290401A019040286BDA28
:10039000C3F3130040F4801B0098924620B1002361
:1003A000D2EB030A63EB0B0B01985946C0F14002F4
:1003B000504600F056FA06460D4650465946019AF8
:1003C00000F06EFA10EB08006141002487EA115238
:1003D00084EAE7731A4340D0009A62B3019A012A73
:1003E0004FEA075215DC001B61EB02014FF000429F
:1003F00002EA0752CDE90042001C41F58011324665
:100400002B4600F0F9FA03B0BDE8F08F40462146D4
:10041000F9E7001B61EB0201001C41F58013001895
:100420005B412018A2F5001747EB030140EAD570A5
:10043000B6196D4111E06D084FEA360645EAC07500
:100440004FEA0752001B61EB0201001C41F58011CD
:1004500049084FEA30000019514132462B4603B09B
:10046000BDE8F04F00F0B9BA009801224000002327
:10047000D0EB020263EBE073009821464FEAE07490
:10048000B8EB000061EB0401E9E783F000435BE7B0
:1004900081F0004158E72DE9FE4F81EA030404F0A2
:1004A000004421F0004100944FF0000B23F0004382
:1004B00050EA01045ED052EA03045BD0C3F30A544D
:1004C000C1F30A552C44A4F2F3340194A0FB025466
:1004D000C1F3130141F48011C3F3130343F48013F8
:1004E00001FB024400FB034E840A970A44EA81544C
:1004F00047EA8357A4FB076802958D0A05FB078529
:100500004FEA932C04FB0C542705029D4FEA065832
:1005100047EA1637B5EB08056EEB070C870E920E0F
:1005200047EA811742EA8312A7FB0201B6EB0B01EF
:1005300064EB00042B0D43EA0C335E1844EB1C50B3
:10054000DA465146E7FB0201C5F313044FEA0B33C9
:1005500043EA14534FEA0432019C43EA0603A4F130
:100560000C040294009CCDE900B400F045FA03B0FD
:10057000BDE8F08F00200146F9E72DE9F04D81EA52
:10058000030404F0004B21F0004514464FF0000A2C
:1005900023F0004150EA050220D054EA01021DD0A8
:1005A000C5F30A570246C5F31303C1F31300C1F3A1
:1005B0000A5640F4801543F48013A7EB0608101B7D
:1005C000D64608F2FD3873EB050002D308F10108A6
:1005D00001E092185B41B8F1000F03DA00200146F8
:1005E000BDE8F08D00204FF48011064684460EE0F1
:1005F000171B73EB050705D3121B63EB05030643BB
:100600004CEA010C49084FEA300092185B4150EA6D
:100610000107EDD152EA030012D082EA040083EA16
:100620000501084305D0101BAB4106D2012200236F
:1006300006E000224FF0004302E06FF00102531089
:100640001AEB06004CEB085110EB0A0041EB0B01D2
:10065000BDE8F04D00F0C1B9002801DBC0F1004059
:10066000002901DBC1F10041814201D8012070471E
:1006700000207047002801DBC0F10040002901DBA9
:10068000C1F10041814201D2012070470020704732
:10069000002801DBC0F10040002901DBC1F100416D
:1006A000814201D30120704700207047002801DB00
:1006B000C0F10040002901DBC1F10041814201D9B4
:1006C0000120704700207047C10F80EAE0700844A5
:1006D000CA079623002100F052B996230022114642
:1006E00000F04DB90EB5C10F80EAE0700844CA07AA
:1006F000002140F233438DE80E000A460B4600F01D
:100700007BF903B000BD00F0004220F00040C10DB5
:10071000C0F3160040F400007F2901DA0020704782
:10072000962903DCC1F19601C84001E09639884062
:10073000002AF4D04042704770B5C1F30A5201F06C
:1007400000450024C1F3130140F2FF3341F480114E
:100750009A4201DA002070BD40F233439A42A2F27D
:10076000334203DC524200F08BF800E090402C430F
:10077000F1D0404270BD00F0004230F000400AD09D
:10078000C10D01F56071C0F3160042EA0151C208C3
:1007900040071143704700200146704701F00043B5
:1007A00030B421F0004150EA010206D00A0DA2F552
:1007B0006072C1F31301002A02DC30BC00207047D4
:1007C000440F44EAC104C100E01830BC00EBC25041
:1007D00000F0CCB830B50B460146002020220124A1
:1007E00009E021FA02F59D4205D303FA02F5491BFF
:1007F00004FA02F52844151EA2F10102F1DC30BD15
:100800002DE9F05F0546002092469B468846064645
:10081000814640241BE0284641464746224600F0D8
:100820002FF853465A46C01A914110D31146184624
:10083000224600F016F82D1A67EB01084F462246B3
:100840000120002100F00DF817EB00094E41201E99
:10085000A4F10104DFDC484631462A464346BDE8A0
:10086000F09F202A04DB203A00FA02F100207047B2
:100870009140C2F1200320FA03F3194390407047DE
:10088000202A04DB203A21FA02F00021704721FAE5
:1008900002F3D040C2F1200291400843194670474C
:1008A000202A06DBCB17203A41FA02F043EAE07334
:1008B00006E041FA02F3D040C2F120029140084321
:1008C000194670470FB40B0010B58AB00FA90091FC
:1008D0000E994FF00004234ACC60214CCDE906422A
:1008E00000D004236FF00042CDE901321E4A089285
:1008F00002466B46002000F0AFF90AB010BC5DF86C
:1009000014FBF0B585B007464FF0FF300091CDE9FC
:1009100001011E46002015460C4604903B466A46DF
:10092000314604A8FFF7CEFF04990346601825B1AD
:1009300009B1024600E022462A6000290ED0002BB1
:1009400002DD0099814209D00094001BCDE9010429
:100950003B466A46314604A8FFF7B4FF05B0F0BD38
:10096000910E0008AF0E0008250B00080029A8BF53
:100970007047401C490008BF20F00100704710B4C8
:10098000B0FA80FC00FA0CF050EA010404BF10BC7D
:10099000704749B1CCF1200421FA04F411FA0CF1AA
:1009A00018BF012121430843A3EB0C01CB1D4FEAE3
:1009B00000614FEA102042BF002010BC704700EBDE
:1009C000C35010440029A4BF10BC7047401C49000C
:1009D00008BF20F0010010BC704710B5141E73F161
:1009E000000408DA401C41F1000192185B411A43EF
:1009F00001D120F0010010BD2DE9F04D92469B463B
:100A000011B1B1FA81F202E0B0FA80F220329046E0
:100A1000FFF727FF04460F4640EA0A0041EA0B01B0
:100A200053465A46084313D0114653EA010019D0E1
:100A3000C8F140025046FFF723FF05460E465046D8
:100A400059464246FFF70DFF084305D0012004E058
:100A500020463946BDE8F08D0020054346EAE076A1
:100A60002C4337430A986305E40AA0EB08000022F0
:100A7000FD0A44EA47540A3002D500200146E9E75E
:100A8000010510196941DDE9084500196941BDE812
:100A9000F04DA2E7C1F30A52C1F3130140F2FF3354
:100AA00041F480119A4202DA00200146704740F278
:100AB00033439A42A2F2334202DC5242FFF7E0BED5
:100AC000FFF7CFBE30B5041E71F1000404DB4FF018
:100AD0000044404264EB0101141E73F1000405DB85
:100AE0001C464FF00043524263EB0403994208BF97
:100AF000904230BD1CB50948009009480190054658
:100B0000009C06E0E06840F0010394E80700984785
:100B10001034AC42F6D3FFF7EDFA0000CC710008B8
:100B2000EC710008C0B24FF4F05100F0D1B90000F0
:100B30002DE9FF4F087883B09946FF2805D0491C5E
:100B40002D2804D00024002008E000200BE0012420
:100B5000F9E700EB800003EB4000491C0B78FF2B0A
:100B6000F7D104B1404200230293147819461D4680
:100B70002D2C01D02B2C04D1521C2D2C13D0002451
:100B80000294AA461478FF2C0FD00A25A3FB0578FF
:100B900001FB05814FF0000C03FB0C11521CE31903
:100BA0004AEB0101EEE70124EAE7814453EA010040
:100BB00002D019F5C87F06DA03980021C0E90011B8
:100BC00007B0BDE8F08F0025AE4E2F46DFF8B882A3
:100BD000184600F091F9CDE90001B9F1000002DA00
:100BE000C9F1000400E004460023A74A1AEB030BF6
:100BF00042EB045A12E0E00707D02A463346384653
:100C00004146FFF748FC074688462A4633461046C9
:100C10001946FFF740FC05460E466410002CEAD149
:100C2000DDE90001B9F1000F5A46534606DAFFF735
:100C3000A4FC3A464346FFF7A0FC05E0FFF72BFC77
:100C40003A464346FFF727FC029A0AB181F0004179
:100C5000039AC2E90001B3E72DE9FF4F1F468DB0AB
:100C6000D7E901464FF0FF382E2045464FF00009E6
:100C70000B90B9696D1C0E988847396A824688477F
:100C80000028F6D1BAF1FF3F0AD024F4D064002E38
:100C900011DDBAF12B0F08D0BAF12D0F0BD102E004
:100CA000404611B08DE744F48064B9696D1C0E981C
:100CB00088478246761E6946600501D52D2000E0F2
:100CC0002B208DF8000001F1010B0DF1200809E047
:100CD000B9696D1C0E98884782460F9844F40074D9
:100CE000761E0560002E02DDBAF1300FF0D00B99B0
:100CF0008A453ED144F0800406E00F99681CA9F1B2
:100D0000010944F400740860B9696D1C761E0E98E0
:100D1000884782463028F0D02BE00B998A4505D1D0
:100D2000200603D444F08004761E18E0504605F0F7
:100D30009DF908B30DF11302761EAAF1300044F4B8
:100D40000074934506D20BF8010B200607D5A9F1D4
:100D5000010003E0200602D409F101008146A0054C
:100D600002D50F99681C0860B9696D1C0E988847F8
:100D70008246002ED1DC53E0002E51DDBAF1650F22
:100D800002D0BAF1450F4BD1A00549D5B9696D1C08
:100D900024F44074761E0E9888478246002E0CDD9F
:100DA0002B2804D0BAF12D0F07D144F48074B9690F
:100DB0006D1C0E9888478246761EE00501D52D21D0
:100DC00000E02B2108F8011BCDF82C8021E00DF16B
:100DD0002901761E44F4007488450CD2AAF1300033
:100DE00010F0FF0088F8000002D10B99884509D95E
:100DF00008F1010806E0E00501D5244801E042F2CF
:100E00000F708146B9696D1C0E98884782460F980D
:100E10000560002E04DD504605F028F90028D6D1E3
:100E2000F9690E988847FF208BF8000088F80000C9
:100E30000020069007904B466A4608A906A8FFF7CF
:100E400077FEA00502D46FF001002AE714F0240F0A
:100E50000AD0E00714D1DDE906123868031D3B60B3
:100E60000068C0E900120BE0DDE90601FFF796FC1F
:100E70000146E00704D13868021D3A60006801604D
:100E800028460EE7000014400000F03FF1D8FFFFB5
:100E9000426842B1016811F8013B23B1521EC0E91A
:100EA0000012184670470121C160881E70474268D1
:100EB0005AB1C368016843B983688B4205D0491EA3
:100EC000521CC0E90012002070474FF0FF307047FD
:100ED0007F2801D9002208E0064A02EB5002C00731
:100EE000127800D1120902F00F0201209040084050
:100EF00070470000046800080EB540F233420292C9
:100F00000022CDE900221346FFF776FD03B000BDB5
:100F100040F29C40C2F2000001F014BDB0B504469E
:100F200000688168C90709D0816821F001018160EA
:100F300002F02CFA21688968C90701D10020B0BDF0
:100F4000054602E08068C007F8D002F01FFA411B96
:100F500020680329F6D38168C907F3D0A06A40F05E
:100F60001000A062E06A40F00100E0620120B0BD24
:100F70000146406A826A12F0500F03D0006A026B89
:100F8000084610470168826A42F4007282628968EA
:100F900001F46021B1F5602F01D1017B11B101F0A5
:100FA000B9BC00BF816A21F480718162816AC90481
:100FB00048BF01F0AFBC816A41F00101816201F0DC
:100FC000A9BC0000406A816A41F040018162C16AA7
:100FD00041F00401C16201F0B3BC0000406A01F0BD
:100FE000ADBC0000B0B582B004460020019021687D
:100FF0008A68D2074BD1886840F00100886040F2CF
:101000001000C2F2000000684DF68361C4F21B318B
:10101000A0FB0101880C01900198A0B10198013852
:101020000190019878B1019801380190019850B170
:10103000019801380190019828B101980138019078
:1010400001980028EAD102F0A1F921688968C9074E
:101050001CD1054603E000BF8068C00716D102F02E
:1010600095F9411B20680329F6D38168C907F3D19C
:10107000A06A40F01000A062E06A40F00100E06267
:10108000002084F82400012002B0B0BD002002B08E
:10109000B0BD000010B540F280400021C2F2000057
:1010A000C4F220210022002340F2000C49F69A1ECF
:1010B000C4F2A002C4F2F013C4F2482CC3F6197EA5
:1010C0004FF0013480E80E5001214461018310BDCE
:1010D000F0B591B0014601A83F22FFF735F8002492
:1010E0003A218DF84340FFF73BF8002844D00546ED
:1010F000C7A101A8072205F8014BFFF750F8002807
:1011000046D0C5A101A80822FFF749F800286BD0F6
:10111000284605F04FFBFFF741FB47F2A6010446C6
:10112000C0F6000101A80522FFF739F8002800F0F9
:101130008D8047F29801C0F6000101A80622FFF752
:101140002EF8002800F0C08047F2A301C0F600018D
:1011500001A80322FFF723F8002800F0DB8047F204
:101160009E01C0F6000101A80522FFF718F800282B
:1011700000F01C8100252DE101984BF6B921CFF636
:10118000AB710844B0FA80F04509284611B0F0BDB3
:1011900047F2A601C0F600012846FEF7F2FF00283C
:1011A00000F08C8047F29801C0F600012846FEF757
:1011B000E8FF002800F0A08047F2A301C0F600017C
:1011C0002846FEF7DEFF002800F0BA8047F29E01B5
:1011D000C0F600012846FEF7D4FF002800F0FE808C
:1011E0000025284611B0F0BD47F2A601C0F6000167
:1011F0002846FEF7C6FF002800F0848047F29801D9
:10120000C0F600012846FEF7BCFF002800F09E80D3
:1012100047F2A301C0F600012846FEF7B2FF0028FE
:1012200000F0E48047F29E01C0F600012846FEF778
:10123000A8FF00284FF0000540F0CC8040F280402D
:10124000C2F20000018BC575D7E000BF28462C21F3
:10125000FEF786FF002800F08180002100F8011BC6
:1012600005F0A8FAFFF79AFA054620462946FFF747
:10127000F3F900210646C4F216312046FFF716FAAC
:1012800000210643CCF248212846FFF7F3F930430A
:1012900018BF01200CD140F28041C2F200010A8B3C
:1012A000C1E90045013292B2012A98BF01220A83A6
:1012B00080F00105284611B0F0BD00BF40F280402B
:1012C000C2F20000012122E0204600210025FFF7A4
:1012D000D1F9002840F07E800021C4F2C8212046C8
:1012E000FFF7E4F9002875D140F28040C2F2000017
:1012F000018B846081E000BF40F28040C2F20000B8
:10130000012128E040F28040C2F200000021017576
:1013100072E000BF204600210025FFF7ABF900284E
:1013200058D10021C4F27A412046FFF7BFF90028C6
:1013300050D140F28040C2F20000018BC4605CE0FA
:1013400040F28040C2F20000012154E040F28040AF
:10135000C2F20000002141754EE000BF40F280471C
:10136000C2F200077D6821462846FFF791F9002167
:101370000646C4F216312046FFF798F900210643CD
:10138000CCF248212846FFF775F9304318BF0120F9
:1013900007D1398B3C60013189B2012998BF012105
:1013A000398380F00105284611B0F0BD20460021A8
:1013B0000025FFF75FF968B920464FF07E51FFF72F
:1013C00075F938B940F28040C2F20000018B046127
:1013D00013E000BF284611B0F0BD00BF40F28040CE
:1013E000C2F200000121C17506E000BF40F280405A
:1013F000C2F2000000218175018B013189B2012503
:10140000012998BF29460183284611B0F0BD00BFCD
:10141000454E41424C45000044495341424C450031
:10142000FEE700002DE9F04FA7B040F2180BC2F222
:10143000000B40F28045DBF80C40C2F20005296841
:101440002046FFF725F9C8B9DBF81000A968FFF7B7
:101450001FF998B9DBF81400E968FFF719F90028BB
:101460004FF000000BD140F25851C2F2000191F848
:101470002813032938BF012001E000BF00209BF89A
:101480000310002808BF00290ED00840012869D1A8
:1014900000208BF8030051A005F0A2F99BF803008F
:1014A000002854D060E000BF01208BF803002046E4
:1014B000FFF761F98046DBE904068946FFF75BF92F
:1014C000074630468A46FFF756F9064640F258501E
:1014D000C2F20000D0F824030D46FFF74CF90C4689
:1014E000CDE9026547F2281107AD0490C0F600016E
:1014F000284642464B46CDE9007A059404F0C4FCE8
:101500002846FEF737FE82B240F21050C2F20000C9
:101510002946642302F0E2FF0BF10C0531CDFFF701
:101520002AF9804620460F46FFF725F9044628464B
:101530000E46FFF720F902901BA042463B46CDE93C
:101540000046039104F090FC9BF8030060B940F65C
:101550000040C4F201002021012201F011FF27B058
:10156000BDE8F08F0029F2D001F010FFDBF8241065
:10157000401AB0F5967F14D99BF804202021B2FAC6
:1015800082F04009002A18BF01228BF8040040F6BF
:101590000040C4F2010001F0F3FE01F0F7FECBF8C9
:1015A000240027B0BDE8F08F5B414C41524D5D20D7
:1015B000E68AA5E8ADA6E8A7A6E58F912120543AD2
:1015C000252E316620533A252E3066252520434F9F
:1015D0003A252E306670706D0D0A00005B414C415B
:1015E000524D20436C65617265645D20E68AA5E812
:1015F000ADA6E8A7A3E999A40D00000040F2CC40F5
:10160000C2F2000001F02EBC70B584B040F60004B8
:10161000C4F2010400F0E6F9012001900320202625
:10162000039069462046009601F094FD2046202153
:101630000022002501F0A4FE20462021012201F015
:101640009FFE69462046CDE9006501F083FD00BF9D
:10165000204620212E4601F085FE18B1C82E06F145
:101660000105F5D3C72E0AD8002500BF204620214A
:1016700001F078FE18B9F02D05F10105F6D3002030
:10168000002500F0F1F9002000F0EEF900F068F814
:10169000044600F065F8702888BF4FF0FF3584EAF3
:1016A00005016840C9B241EA002000B2FFF71AF80C
:1016B0000023C3F6E4730022FEF7EDFEFFF73CF8CB
:1016C00004B070BDF0B589B040F60004C4F2010466
:1016D00020250126032701A920460195CDE90266B0
:1016E000049701F037FD05A92046CDE90556089776
:1016F00001F030FD204620210022002601F040FEAE
:1017000020462021012201F03BFE05A92046CDE91B
:10171000055601F01FFD00BF20462021354601F08F
:1017200021FE18B1C82D05F10106F5D3C72D03D947
:10173000012009B0F0BD00BF002000BF05462046D3
:10174000202101F00FFE18B9F02D05F10100F5D3AD
:101750000020EF2D88BF0120400009B0F0BD00003F
:101760002DE9F04F85B0012040F6000402900320DF
:10177000C4F201040DF104082025049020464146DE
:1017800001954FF001094FF0030B01F0E3FC2046F7
:1017900020210022002601F0F3FD20462021012215
:1017A00001F0EEFDCDE9015601AE204631464FF085
:1017B000000A01F0CFFC2046202101F0D3FD0746AE
:1017C00000282046414618BF0127CDE90159CDF830
:1017D00010B04FF0030B01F0BDFC20462021002289
:1017E00001F0CEFD20462021012201F0C9FD204656
:1017F0003146CDE9015A4FF0000A01F0ABFC20461A
:10180000202101F0AFFD002818BF0120C00140EAEF
:10181000871901200290204641460195CDF810B06D
:101820004FF0030B01F096FC20462021002201F02E
:10183000A7FD20462021012201F0A2FD20463146CD
:10184000CDE9015A4FF0000A01F084FC2046202126
:1018500001F088FD074600284FF0010018BF01275E
:101860000290204641460195CDF810B04FF0030B91
:1018700001F070FC20462021002201F081FD20466D
:101880002021012201F07CFD20463146CDE9015A9C
:10189000B24601F05FFC2046202101F063FD4FEAD3
:1018A0009901002818BF012041EA871141EAC016BA
:1018B00001272046414601950297CDF810B001F06E
:1018C00049FC20462021002201F05AFD204620211B
:1018D000012201F055FD4FF00009204651460195C7
:1018E000CDF8089001F036FC2046202101F03AFDA9
:1018F0007821002818BF012001EA560141EAC016EC
:101900000320049020464146CDE901574FF0010BDA
:1019100001F020FC20462021002201F031FD20466C
:101920002021012201F02CFD20465146CDE901592C
:101930004FF0000901F00EFC2046202101F012FDBD
:10194000074600284FF0030018BF012704902046E7
:101950004146CDE9015B01F0FDFB2046202100223C
:1019600001F00EFD20462021012201F009FD204654
:101970005146CDE901594FF0000B01F0EBFB204639
:10198000202101F0EFFCB108002818BF012041EA36
:10199000871141EAC01601200290032004902046DE
:1019A0004146019501F0D6FB20462021002201F09E
:1019B000E7FC20462021012201F0E2FC20465146AE
:1019C000CDE9015B01F0C6FB2046202101F0CAFCF5
:1019D000002818BF0120C6F3460141EAC01005B037
:1019E000BDE8F08F70B584B040F600040120C4F269
:1019F00001040190032020260390694620460096AA
:101A000001F0A8FB204620210022002501F0B8FCAF
:101A100020462021012201F0B3FC69462046CDE991
:101A2000006501F097FB00BF204620212E4601F003
:101A300099FC18B1C82E06F10105F5D3C72E0AD8B6
:101A4000002500BF2046202101F08CFC18B9F02DA4
:101A500005F10105F6D3002000F006F8002000F0A3
:101A600003F804B070BD000010B584B020200090D1
:101A7000012040F6000401900320C4F20104039009
:101A80006946204601F066FB20462021002201F035
:101A900077FC20462021012201F072FC2046202103
:101AA000002201F06DFC20462021012201F068FC9B
:101AB00020462021002201F063FC20462021012243
:101AC00001F05EFC20462021002201F059FC204656
:101AD0002021012201F054FC20462021002201F0A7
:101AE0004FFC20462021012201F04AFC2046202103
:101AF000002201F045FC20462021012201F040FC9B
:101B000020462021002201F03BFC2046202101221A
:101B100001F036FC20462021002201F031FC204655
:101B20002021012201F02CFC04B010BD7047000000
:101B30002DE9F0478EB040F2180AC2F2000A9AF876
:101B40000200012810D1DAF80C4000212046FEF7EF
:101B500083FD48B92046FEF70EFE02460B4646A11D
:101B600006A804F091F90FE046F67270C0F2720018
:101B7000CDF81F0044F23A50C7F27220079046F2A7
:101B80005450C7F26D00069006AC0020002122469A
:101B9000062303F0A3FBDAF81000FEF7ECFD024683
:101BA0000B4638A1204604F06FF900201021224690
:101BB000062303F093FBDAF81400FEF7DCFD02467F
:101BC0000B4633A1204604F05FF900202021224675
:101BD000062303F083FB40F25855C2F20005D5F806
:101BE0002403FEF7C8FD02460B462CA1204604F054
:101BF0004BF9002030212246062303F06FFB9AF8B0
:101C0000030029A12CA2002818BF0A460020382171
:101C1000062303F063FB03F0C1FB01F0B7FBDAF826
:101C20002010401AB0F5FA6F23D90AF10C07C1CF82
:101C3000FEF7A1FD804630468946FEF79CFD06462C
:101C400038460C46FEF797FD0746D5F824030D46A7
:101C5000FEF791FD04901AA042464B46CDE9006480
:101C6000CDE90275059104F0FFF801F08FFBCAF889
:101C700020000EB0BDE8F08754656D703A252E3116
:101C800066430000536D6F673A252E3066252500A8
:101C9000434F3A252E306670706D00005269736BA9
:101CA0003A252E326600000021212120414C41526C
:101CB0004D202121210000004E6F726D616C0000EB
:101CC000543A252E316620533A252E30662525209C
:101CD000434F3A252E306670706D205269736B3A0F
:101CE000252E32660D0A000047F25710C0F600009C
:101CF00004F076FD40F60044C4F20104EFF31080D6
:101D000072B600BF2046202101F032FBC82001F04E
:101D10000DFAF7E7B1F822230A2A4FF00002C0E9D2
:101D20000022C0E90222026138BF70472DE9F04F5E
:101D30009FB0B1F82023059092B202F128074BF62C
:101D40005202C0F21E52A7FB0223322203FB12737F
:101D50006FF02A0401EB03101590180151F800C030
:101D6000581CB0F13202CDF850C018BF0246100125
:101D70000858302B17906FF02F0038BF02201844FE
:101D800001EB0018000108582F2B1B906FF02E005C
:101D900038BF032003EB00096FF02D002E2B38BF56
:101DA000042003EB000A6FF02C002D2B01EB021E28
:101DB00038BF05206FF02B022C2B38BF06222B2BAF
:101DC00038BF07246FF029072A2B6FF02806184424
:101DD00038BF0827292B38BF09264FEA09151A44AE
:101DE0001C441F44334401EB091651F805B001EBC4
:101DF0000A194FEA0A1501EB001A000108584D595B
:101E00001D9001EB021012018A581E951C9201EBE5
:101E1000041224010C593D011A9401EB071401EB43
:101E200003171B014D59C958199518911599D1E9F6
:101E3000013102930B91DEE901310A91D8E9015198
:101E400001930C91D6E90131179E0D91D9F8081034
:101E5000D9F804900E91DAF80810DAF804A00F917E
:101E6000D0E90110039304911090D2E9011006917A
:101E70001190D4E9011007911290D7E9011008914F
:101E8000139060463146FEF797F91B9C2146FEF7FA
:101E900093F9074620462146FEF78EF93146FEF7B4
:101EA0008BF9804638465946CDF858B0FEF784F98C
:101EB00000210746C4F240015846FEF7D5F94146D5
:101EC000FEF77AF91E9C064638462146FEF774F95D
:101ED000074620464FF08141FEF7C6F93146FEF72E
:101EE0006BF91D9C064638462146FEF765F9002130
:101EF0000746C4F2A00120468846FEF7B5F93146F0
:101F0000FEF75AF91C9C064638462146FEF754F95E
:101F100000210746C4F2C0012046FEF7A5F931466C
:101F2000FEF74AF91A9C064638462146FEF744F960
:101F300000210746C4F2E0012046FEF795F931463C
:101F4000FEF73AF9199C064638462146FEF734F961
:101F5000074620464FF08241FEF786F93146FEF7EC
:101F60002BF9189C064638462146FEF725F9002134
:101F700007460990C4F210112046FEF775F9314664
:101F8000FEF71AF900210646CCF234213846FEF756
:101F90006BF900210746C4F220113046FEF764F9C0
:101FA0003946FEF709F944F2000BC4F24E4B59468C
:101FB000FEF78CF9059C15902060DDE9017039462B
:101FC000FEF7FAF82946FEF7F7F8064628462946AE
:101FD000FEF7F2F83946FEF7EFF8039F0546304664
:101FE0003946FEF7E9F8002106463846C4F24001BA
:101FF000FEF73AF92946FEF7DFF80546304649462E
:10200000FEF7DAF8064648464FF08141FEF72CF914
:102010002946FEF7D1F8054630465146FEF7CCF882
:10202000064650464146C146FEF71EF92946FEF7D0
:10203000C3F8049F054630463946FEF7BDF8002137
:1020400006463846C4F2C001FEF70EF92946FEF7EF
:10205000B3F8069F054630463946FEF7ADF8002135
:1020600006463846C4F2E001FEF7FEF82946FEF7C0
:10207000A3F8079F054630463946FEF79DF8064609
:1020800038464FF08241FEF7EFF82946FEF794F804
:10209000DDF82080054630464146FEF78DF80021E8
:1020A00006464046C4F21011FEF7DEF82946FEF758
:1020B00083F8002105463046CCF23421FEF7D4F8EF
:1020C000002106462846C4F22011FEF7CDF831461D
:1020D000FEF772F85946FEF7F9F88246A060DDE98E
:1020E0000A603146FEF768F80C9F3946FEF764F83F
:1020F000054638463946FEF75FF83146FEF75CF88C
:102100000D9F064628463946FEF756F8002105463B
:102110003846C4F24001FEF7A7F83146FEF74CF806
:102120000E9F064628463946FEF746F805463846CD
:102130004FF08141FEF798F83146FEF73DF80F9FCA
:10214000064628463946FEF737F8054638464946DA
:10215000FEF78AF83146FEF72FF8109F064628460C
:102160003946FEF729F8002105463846C4F2C00179
:10217000FEF77AF83146FEF71FF8119F064628460B
:102180003946FEF719F8002105463846C4F2E00149
:10219000FEF76AF83146FEF70FF8129F064628460A
:1021A0003946FEF709F8054638464FF08241FEF7FA
:1021B0005BF83146FEF700F8139F0646284639467D
:1021C000FDF7FAFF002105463846C4F21011FEF76C
:1021D0004BF83146FDF7F0FF002106462846CCF2C9
:1021E0003421FEF741F8054630460026C4F2201699
:1021F0003146FEF739F82946FDF7DEFF5946FEF76E
:1022000065F88046E060099831463546FEF75EF88D
:10221000064614983146FEF721F80146FEF724F8E9
:10222000074617983146FEF719F80146FEF71CF8E5
:102230003946FDF7C1FF07461B983146FEF70EF8F9
:102240000146FEF711F83946FDF7B6FF0746169826
:102250003146FEF703F80146FEF706F83946FDF76A
:10226000ABFF07461E983146FDF7F8FF0146FDF724
:10227000FBFF3946FDF7A0FF07461D983146FDF7E5
:10228000EDFF0146FDF7F0FF3946FDF795FF0746E4
:102290001C983146FDF7E2FF0146FDF7E5FF3946A0
:1022A000FDF78AFF07461A983146FDF7D7FF01462A
:1022B000FDF7DAFF3946FDF77FFF074619983146EB
:1022C000FDF7CCFF0146FDF7CFFF3946FDF774FF60
:1022D000074618983146FDF7C1FF0146FDF7C4FFD8
:1022E0003946FDF769FF2946FDF7F0FF6060159854
:1022F0000021FEF7DBF9064650460021FEF7D6F92D
:1023000007460546002818BF4FF07C57404600217D
:10231000002E08BF3746FEF7C9F9064638464FF08B
:102320007C51FDF749FF002E08BF3846002D08BF3D
:10233000384620611FB0BDE8F04F70472DE9F047E7
:1023400086B00546B0F822030A2805D200252846A3
:1023500006B0BDE8F08700BF01A82946FFF7DAFC08
:10236000B5F820034BF652013130C0F21E51A0FBEC
:102370000112322102FB110A00214FEA0A1055F81E
:102380000080C4F20C214046FEF790F90021064679
:10239000CCF20C214046FDF70FFF0021C4F2822150
:1023A000FDF794FF4FF07A51FDF75EFF019C074661
:1023B00020464FF07E51002E08BF3746FEF74CF9FD
:1023C00058BB0021C4F220112046FDF77FFF4FF0DB
:1023D0007E510646FEF76AF943F23331002818BFF2
:1023E0004FF07E56C3F6B3613046FDF73DFF3946E8
:1023F000FDF7E2FE00210646C4F240012046FEF74A
:1024000055F94CF6CD410446C3F6CC513046FDF7A4
:10241000D3FE0746002C08BF3746029E40F2000953
:10242000C4F2A00930464946FEF740F900210446AF
:10243000C4F2C8113046FDF749FF49F69A11C3F6B8
:102440001961FDF711FF3946FDF7B6FE05EB0A15D8
:10245000D5F804A0064650464946002C08BF3E4623
:10246000FEF7FAF870BB0021CCF2A0015046FDF750
:10247000A3FE0021C4F2BE21FDF728FF4FF07E51DC
:102480000446FEF713F9002818BF4FF07E5420468B
:102490004FF07A51FDF7E8FE3146FDF78DFE0399C6
:1024A000044608464FF08041FEF700F94CF6CD4156
:1024B0000746C3F6CC512046FDF77EFE0646002FA8
:1024C00008BF2646AF6840F20009C4F2F01938464A
:1024D0004946FEF7EBF800210546CCF2F0113846EC
:1024E000FDF76AFE0021C4F22A31FDF7EFFE49F63E
:1024F0009A11C3F61961FDF7B7FE3146FDF75CFE90
:1025000000210446C4F234214046002D08BF344661
:10251000FEF7CCF800218046C4F2A0015046FEF739
:10252000A9F8064638464946FEF7A4F8074620466D
:102530004FF07C51FDF798FE0546002F08BF254659
:10254000002E08BF2546B8F1000F08BF25462846D3
:102550004FF07E51FEF7AAF8002818BF4FF07E55C5
:1025600028460021FEF786F8002818BF00252846D7
:1025700006B0BDE8F087000080B54FF44D71FDF75F
:10258000D8FD80BDF0B581B01D4616460F46044605
:1025900000F0FCFEB4F820134BF652030A01A750DA
:1025A000B4F82023C0F21E530132A2FB03373223BA
:1025B00007FB132204EB0113B4F82213C3E90165EE
:1025C000D8603129A4F820239CBF481CA4F822031A
:1025D0002046FFF7B3FED4F824130546FEF73CF877
:1025E00040B994F83013012084F82903481C84F87A
:1025F00030030DE049F69A110026C3F6996128468A
:1026000084F82963FEF744F8002808BF84F8306393
:102610004CF6CD41C3F64C612846C4F82453FEF76E
:1026200029F828B1002184F8281301B0F0BD00BFBB
:102630004CF6CD41C3F6CC612846FEF71BF828B115
:10264000012184F8281301B0F0BD00BF49F69A11AA
:10265000C3F619712846FEF70DF828B1022184F857
:10266000281301B0F0BD00BF4CF6CD41C3F64C714C
:102670002846FDF7FFFF0421002818BF032184F836
:10268000281301B0F0BD000070B582B004460020F0
:10269000019094F82400012804D10225284602B0B4
:1026A00070BD00BF012084F824002046FEF736FCF0
:1026B0002046FEF797FC0546002867D1A06A41F244
:1026C000021188430230A06240F21000C2F2000002
:1026D0000668022000F016FFB6FBF0F04000019003
:1026E0000198A0B1019801380190019878B1019842
:1026F00001380190019850B101980138019001987A
:1027000028B101980138019001980028EAD1206889
:10271000816841F00801816000F038FE21688A6814
:1027200012070DD4886840F00400886000F02EFE87
:1027300021688968490713D401206FF0030121E063
:10274000064602E088680007ECD500F01FFE801BFB
:1027500021680B28F6D388680007F3D50EE000BF88
:10276000064602E080684007E6D500F00FFE811BB8
:1027700020680B29F6D381684907F3D5012510207D
:102780006FF01201A26A11400843A062002084F891
:102790002400284602B070BD7047000010B581B01B
:1027A0000022009290F82420012A03D10221084639
:1027B00001B010BD4B680122062B80F8242033D8CD
:1027C000D0F800C003EB83035A1F1F23DCF834E06A
:1027D00003FA02F40B682EEA040403FA02F222431D
:1027E000CCF83420092B03EB430249D9DCF80CE088
:1027F0001E3A0724896894402EEA0404914023F08D
:1028000001022143102ACCF80C1043D142F20841B6
:10281000C4F20101A1F10802944543D0816A41F05C
:1028200020018162012136E0D0F800C00C2B03EBBF
:10283000830213D8233A1F23DCF830E003FA02F4B2
:102840000B682EEA040403FA02F22243CCF830208B
:10285000092B03EB4302C9D812E000BF413A1F2302
:10286000DCF82CE003FA02F40B682EEA040403FA05
:1028700002F22243CCF82C20092B03EB4302B5D8FB
:10288000DCF81030072489689440A3439140194331
:10289000CCF810100021002280F82420084601B056
:1028A00010BD00BF0A681202F4D40A68102B42F46B
:1028B00000020A60EED140F21001C2F20001096884
:1028C0004DF68362C4F21B32A1FB0212910C01EBA4
:1028D00081014900009100990029DBD0009901395C
:1028E000009100990029D5D00099013900910099F3
:1028F0000029CFD000990139009100990029C9D051
:10290000009901390091009900294FF00001E5D1AB
:10291000C1E7000040F29C41C2F20001884218BFAA
:10292000704740F21800C2F20000811D40F29C4046
:10293000C2F20000022200F089B9000070470000D6
:102940007047000070B50446006805684668B10627
:1029500027D515F0020124D0A16AC90603D4A16AC3
:1029600041F40071A162816801F46021B1F5602F2A
:1029700010D1217B71B9416821F020014160A06A2A
:1029800020F48070A062A06AC00403D4A06A40F062
:102990000100A0622046FFF7BDFF20686FF0120122
:1029A0000160310633D515F0040130D0A16AC906A3
:1029B00003D4A16A41F40051A162816801F4E041AD
:1029C000B1F5E04F10D1416821F080014160A06A6B
:1029D00020F48050A062A06AC00511D4A06A40F023
:1029E0000100A0620CE000BF4168490508D481687D
:1029F00001F46021B1F5602F02D1217B0029E2D0E2
:102A00002046FFF7C9FE20686FF00C0101607006D8
:102A10000ED515F0010008BF70BDA06A40F48030EB
:102A2000A062204600F0B6F820686FF00101016056
:102A300070BD0000002804BF01207047B0B50446F7
:102A4000806A28B121688868C0070CD115E000BFF2
:102A50000020E06284F82400204600F09DF8216800
:102A60008868C00709D0886820F00100886000F0FD
:102A70008DFC21688A68D20726D1A06AC0063AD4A4
:102A8000A06A41F2021290430230A062E069D4E9E8
:102A9000013240EA030C531EB3FA83F35D09134677
:102AA000B2F5807F18BF2B02207D257B01284CEAE0
:102AB000450030D135B3A56A45F02005A562E56A29
:102AC00045F00105E56226E0054602E08868C0079A
:102AD000D3D000F05BFC401B21680328F6D3886844
:102AE000C007F3D0A06A40F01000A062E06A40F096
:102AF0000100E062A06AA06A40F01000A06201201C
:102B0000B0BD00BFD4F818C04EF60005CFF6FF7573
:102B100005EB4C352B434D68B2F5807F25F46945B4
:102B200043EA05034B608B684FF2FD75CFF6E17504
:102B300003EA050343EA00038B6001D0012A07D1B1
:102B400022690023CFF6F07303EB025201E000BFCD
:102B50000022CB6A23F470031A43CA62896840F6E4
:102B6000FE62CFF61F721140814207D10020E06261
:102B7000A16A012262F30101A162B0BDA06A40F026
:102B8000100020F00200A062E06A40F00100E06264
:102B90000120B0BD7047000070B586B0044640F615
:102BA0000000C4F20100216800F5E05200269142C5
:102BB0000596049602D006B070BD00BF41F2180120
:102BC000C4F202010A6842F400720A600A6802F460
:102BD00000720192019A0A6842F004020A600968D0
:102BE00001F0040101910199442102910321039113
:102BF00002A900F0AFFA40F2CC450820C2F200056D
:102C0000C4F202004FF48072C5E9000605F110001D
:102C100080214FF480634FF0200C80E80C10284690
:102C2000C5E90261EE6100F0EDF9002818BFFFF779
:102C30005BF812200021002225626C6200F026FC65
:102C4000122000F011FC06B070BD000070B51546F2
:102C50000446006842F60002C4F2010290420E46A9
:102C600005D042F20041C4F2010188420AD142F289
:102C70000440C4F20100006810F4702F02D001205B
:102C800070BD00BF94F82400012804BF022070BD6D
:102C9000012084F824002046FEF7A4F920B100208A
:102CA00084F82400012070BD42F204402168A26A29
:102CB000C4F2010040F601739A4300F57F7302F5F8
:102CC00080729942A26243D0A06A20F48010A06270
:102CD0004868400504D5A06A012262F30D30A06265
:102CE000A26A0020D2044FF0000244BFE26A22F040
:102CF0000602E26284F82400206A40F67172C0F68F
:102D0000000240F6DD7340F6C57C00F1280EC0F6E7
:102D10000003C0F6000C8EE80C106FF002020A608F
:102D20008A682B4642F480728A604C31324600F049
:102D3000ADF92068816801F460228168B2F5602FE6
:102D40000CBF41F4A00141F480118160002070BDEE
:102D5000026812F4702FB7D0A26A42F48012A26205
:102D600000684005B7D4BBE7014690F8210002286F
:102D700016D10868D1E90FC3026822F00E02026082
:102D8000026822F001020260012000FA03F2CCF88E
:102D9000042081F821000020002281F820207047C3
:102DA000042088630120002281F820207047000061
:102DB00090F82110022923D10268116821F00E0138
:102DC00011602F211368C4F202018A4240F204010B
:102DD000C4F2020123F00103136015DD3023C4F2B5
:102DE00002039A421CD04423C4F202039A421BD02D
:102DF0005823C4F202039A421CD14FF4803321E0DD
:102E000004218163012070470823C4F202039A421F
:102E10000ED01C23C4F202039A420BD1102311E0FE
:102E20004FF480730EE000BF4FF480530AE000BF00
:102E3000012307E001F1680C4FF08073624508BF81
:102E40004FF480130B60012180F82110426B0021A8
:102E500080F8201022B180B590470021BDE8804065
:102E60000846704710B5D0E90FCE0168DCF8003095
:102E70000A6823FA0EF35C072AD512F0040427D05F
:102E80000A68920603D40A6822F004020A602F221C
:102E9000C4F20202914240F20402C4F202025BDD7B
:102EA0003023C4F20203994272D04423C4F20203D5
:102EB000994273D05823C4F20203994240F07A80B9
:102EC0004FF480231360C16A002940F098806FE0BE
:102ED0009C0727D512F0020424D00A68920606D473
:102EE0000A6822F00A020A60012280F821202F22BB
:102EF000C4F20202914240F20402C4F202023BDD3B
:102F00003023C4F20203994260D04423C4F2020386
:102F100099425FD05823C4F20203994260D14FF422
:102F2000003365E01B0743D512F0080208BF10BD4F
:102F30000A6822F00E020A60012101FA0EF2CCF8B2
:102F40000420816380F82110016B0022002980F8A1
:102F5000202054D12CE000BF0823C4F20203994280
:102F600022D01C23C4F20203994223D140231360D0
:102F7000C16A002943D11BE00823C4F2020399422D
:102F80002CD01C23C4F20203994229D120232FE024
:102F90004FF480631360C16A89BB09E04FF480433A
:102FA0001360C16A59BB03E004231360C16A31BBDB
:102FB00010BD00BF02F168044FF08063A14208BF5A
:102FC0004FF480031360C16AC9B9F1E74FF400738D
:102FD0000EE000BF4FF400530AE000BF022307E0F9
:102FE00002F168044FF00073A14208BF4FF40013D0
:102FF0001360816A0022002980F82020D8D0BDE823
:1030000010400847014600284FF0010008BF7047F4
:103010002DE9F0470A684FF6F873CBF6FD7302EB23
:10302000030C4CF6CD43CCF6CC43ACFB033C6FF029
:103030000307002607EA9C07C4F2020601F10C0A06
:10304000C1E90F670227D1E9013E9AE83004D1E9CE
:10305000069881F82170176843F6F076B7433B4332
:1030600043EA0E0323432B4343EA0A0343EA0903DB
:1030700043EA0803136000228A6381F8210081F883
:1030800020200020BDE8F0477047000090F820C0E5
:10309000BCF1010F04BF02207047F0B54FF0010EE4
:1030A00080F820E090F821C0BCF1010F26D14FF04C
:1030B000020C80F821C04FF0000CC0F838C0D0E9F5
:1030C00000C4C56AC66BDCF80070102C27F001073D
:1030D000CCF80070006C0EFA00F070600846CCF876
:1030E000043004BF10460A46CCF80800CCF80C2087
:1030F000DCF8000045B140F00E000DE0002180F842
:1031000020100220F0BD00BF20F00400CCF8000029
:10311000DCF8000040F00A00CCF80000DCF8000009
:1031200040F00100CCF800000020F0BDB0B504462E
:1031300000F02CF9054640F20800C2F200000078C9
:10314000611C18BF044400BF00F020F9401BA042DE
:10315000FAD3B0BD2DE9F04F82B00E68002E00F01A
:10316000FD8041F20042C4F20102042340F2004E0D
:10317000904208BF03234FF6FF7CC4F2010E009378
:1031800000240123C1F2100C4FF0000A4FF0000997
:1031900044E000BF012704F00C030F229A402BEA01
:1031A000020207FA03F34FEA9A051A4346F825206C
:1031B0004E6840F20C45F202DEF8082054BF22EAC5
:1031C000080242EA0802C4F20105CEF808202A6883
:1031D000B30254BF22EA080242EA08022A60B3039B
:1031E000DEF8042054BF22EA080242EA0802F30390
:1031F000CEF80420DEF800204FF0010354BF22EA8D
:10320000080242EA0802CEF800200E680AF1010A1C
:1032100036FA0AF204F1040400F0A08003FA0AFB73
:1032200016EA0B08F1D04E68664511DC122E55D80F
:10323000DFE806F0340A4448545454545454545467
:1032400054545454544C5000D1F80C9046E000BFF4
:103250004FF6FF72C1F2210296420FDC0022C1F24A
:10326000110296421AD00022C1F21202964215D0E3
:103270000022C1F22102964210D02FE00022C1F2BA
:10328000220296420AD00022C1F23102964205D0B3
:103290000022C1F23202964220D100BF8A684AB1B0
:1032A000012A14BFC0F814B0C0F810B04FF00809DC
:1032B00014E000BF4FF0040910E000BFCA6802F13B
:1032C00008090BE04FF0000908E000BFCA6802F1EE
:1032D000040903E0CA6802F10C0900BF2246064651
:1032E000B8F5807F24BF203A043637680F25954013
:1032F00027EA050509FA02F22A433260CA79D206A2
:103300007FF583AF41F21803C4F202031A68AEF5E9
:103310007E7642F001021A601A6802F00102019200
:10332000019A2AF0030256F802B040F60002C4F2F5
:103330000102904210D040F60042C4F201029042D5
:103340003FF428AF41F20002C4F20102009F904214
:1033500008BF02271FE700BF00271CE702B0BDE837
:10336000F08F00008068084018BF012070470000FF
:10337000C26802EA0103914341EA034101617047D7
:10338000002A08BF090401617047000040F68C0064
:10339000C2F200000068704740F2080040F68C015D
:1033A000C2F20000C2F2000100780A68104408600E
:1033B0007047000080B542F20000C4F202000168CC
:1033C00041F010010160032000F08CF80F2000F0A4
:1033D00005F800F027F8002080BD000070B540F22D
:1033E0000806C2F2000640F210013278C2F2000173
:1033F0004FF47A730968B3FBF2F20446B1FBF2F1C1
:10340000084600F087FC0F2C4FF0010508D838B9AA
:103410004FF0FF3021460022002500F037F874609D
:10342000284670BD82B041F21800C4F20200016863
:10343000022241F001010160016801F001010191E6
:103440000199416841F080514160406800F080502E
:10345000009000980420C4F20100016862F31A6130
:10346000016002B070470000002848BF704700F0BC
:103470001F01012202FA01F11C2202EAD0004EF2E1
:103480000012CEF2000281507047000010B54EF6D7
:103490000C5CCEF2000CDCF80030C3F3022E8EF090
:1034A0000704042C28BF0424BEF103034FF0FF3EA1
:1034B0000EFA04F438BF0023A14399400EFA03F337
:1034C0009A43114300F00F0200F160430901043AEE
:1034D00003F564436244002848BF02F10C031970ED
:1034E00010BD00004EF60C51CEF200010A684FF6F6
:1034F000FF031A4060F30A2242F0806040F0FD7042
:103500000860704701280FD002282DD0102808D15C
:1035100041F20401C4F202010A6851F8040CC0012E
:1035200034D40020704700BF41F20400C4F202000E
:10353000C16940F202320A40B2F5817F04BF4FF404
:103540000040704701F44071B1F5407F2AD0B1F5D9
:10355000007F1CBF00207047006A49F64041800789
:1035600001EAE070704700BF80B500F0BFF941F29A
:103570000401C4F2020109680222C1F3813102EBA5
:103580004101B0FBF1F0BDE880407047C2F38340D9
:1035900015A3185CD2030DD440F60012C0F23D0210
:1035A000504313E050F8040C4FF22441800301EA29
:1035B000E07070470A6810A3C2F340429A5C41F27F
:1035C0000023C0F27A03B3FBF2F2504309684902C8
:1035D00048BF70474AF6AB214000CAF6AA21A0FBBB
:1035E00001014808704700BF0203040506070809E7
:1035F0000A0B0C0D0E0F1010010200002DE9F04116
:1036000082B00446007841F21C06C007C4F20206EC
:103610004AD030685FEAC00808D4306840F0805073
:103620003060306800F080500190019847F2000748
:10363000C4F200073868C00512D4386840F48070BE
:103640003860FFF7A3FE05463868C00508D4FFF7C9
:103650009DFE401B6428F7D9032002B0BDE8F0812D
:10366000706810F4407012D0616801F440718842B3
:103670000DD0706840F24042C4F24222012320F48F
:10368000407113600023C0071360716026D1706819
:10369000616820F440700843B8F1000F706003D4F3
:1036A000306820F0805030602068810707D556F8D8
:1036B000181CA26821F44041114346F8181CC006AA
:1036C00007D556F8180CE16820F48000084346F846
:1036D000180C002002B0BDE8F08100BFFFF756FED5
:1036E000054641F2883700BF70688007CFD4FFF7E6
:1036F0004DFE401BB8424FF00300F5D9EAE7000049
:10370000002804BF012070472DE9F04381B042F248
:103710000008C4F202080446D8F800000D4600F084
:10372000070088420CD2D8F8000020F00700284398
:10373000C8F80000D8F8000000F00700A8426CD1DB
:10374000206841F204098107C4F2020917D5410734
:1037500005D5D9F8001041F4E061C9F8001001075F
:1037600005D5D9F8001041F46051C9F80010D9F816
:103770000010A26821F0F0011143C9F80010C00741
:1037800042D1D8F8000000F00700A8420CD9D8F8C0
:10379000000020F007002843C8F80000D8F8000017
:1037A00000F00700A84238D12068410707D5D9F8B2
:1037B0000010E26821F4E0611143C9F8001000072D
:1037C00008D5D9F80000216920F4605040EAC10012
:1037D000C9F80000D9F8002002F00C00082841F2D6
:1037E0000020C0F27A0051D147F28803C2F383412E
:1037F000C0F60003595CD2033CD440F60010C0F27E
:103800003D00484342E000BF606802280AD001281A
:103810002AD159F8041C890308D4012001B0BDE85D
:10382000F08300BF59F8041C8901F6D5D9F80010BF
:1038300021F003010843C9F80000FFF7A7FD064681
:1038400041F28837D9F80000616800F00C00B0EB55
:10385000810F96D0FFF79AFD801BB842F2D9032062
:1038600001B0BDE8F08300BF59F8041C8907D4D526
:10387000DCE700BFD9F8002046F65C03C2F3404203
:10388000C0F600039A5C4843B0FBF2F0D9F8001090
:1038900046F64402C1F30311C0F60002515C40F247
:1038A000100220FA01F140F20C00C2F200000068A0
:1038B000C2F200021160FFF791FD002001B0BDE8E7
:1038C000F083000040F2100041F20401C2F2000057
:1038D000C4F202010068096846F65402C1F30221ED
:1038E000C0F60002515CC8407047000040F2100072
:1038F00041F20401C2F20000C4F20201006809684A
:1039000046F65402C1F3C221C0F60002515CC84021
:1039100070470000002804BF012070472DE9F041E6
:1039200082B00446007841F20006C007C4F20206E5
:103930000CD0706800F00C00042840F081803068E2
:10394000800303D56068002800F04E81207880074E
:103950001BD5706810F00C0F09D0706800F00C00D7
:10396000082840F08B807068C00300F187803068C1
:10397000800703D52069012840F0368130686169ED
:1039800020F0F80040EAC10030602078000713D42E
:10399000207840072CD4E569002D00F02081706864
:1039A00000F00C00082840F0AF80012D40F00C81A1
:1039B000012002B0BDE8F081A069002800F08C80F1
:1039C0000020C4F242200121C0F88014FFF7DEFC81
:1039D000054600BF706A800700F1BA80FFF7D6FC89
:1039E000401B0228F6D9032002B0BDE8F08100BFD9
:1039F000F0695FEAC00808D4F06940F08050F061D7
:103A0000F06900F080500090009847F20007C4F27F
:103A100000073868C0054DD4386840F480703860BD
:103A2000FFF7B4FC054600BF3868C00542D4FFF775
:103A3000ADFC401B6428F7D9032002B0BDE8F0813B
:103A4000706800F00C00082803D17068C0033FF5CF
:103A500076AF6068002800F00981B0F5A02F00F073
:103A60001D81B0F5803F00F01D81306820F480306A
:103A70003060306820F4802017E100BF2069002802
:103A800040F20000C4F2422000F08C80012101606D
:103A9000FFF77CFC054600BF306880073FF56EAF3E
:103AA000FFF774FC401B0228F6D9032002B0BDE8E2
:103AB000F08100BFE068002800F09A80052800F03F
:103AC000B180012800F0B280306A20F0010030623D
:103AD000306A20F00400ACE00020C4F24220002153
:103AE000C0F88014FFF752FC054600BF706A8007DB
:103AF0007FF54EAFFFF74AFC401B0228F6D90320A2
:103B000002B0BDE8F08100BF0027C4F242270020C8
:103B10003866FFF73BFC022D05460DD13068800169
:103B200040F1D680FFF732FC401B02284FF0030023
:103B3000F4D902B0BDE8F081306880014FD5FFF7BD
:103B400025FC401B02284FF00300F5D9F1E700BF28
:103B500040F21000C2F20000006844F6D351C1F2F6
:103B60006201A0FB0101480A019000BF00BF01985B
:103B7000411E002801913FF40BAF00BF0198411E88
:103B8000002801913FF404AF00BF0198411E0028B6
:103B900001913FF4FDAE00BF0198411E0028019144
:103BA000E4D1F5E600210160FFF7F0FB054600BF18
:103BB000306880077FF5E9AEFFF7E8FB401B02287D
:103BC0004FF00300F4D9B4E77068216A00F4803242
:103BD0008A4209D1616A00F47010884204D1002041
:103BE00002B0BDE8F08100BF012002B0BDE8F08165
:103BF000306A20F001003062306A20F00400306248
:103C0000FFF7C4FB054641F2883700BF306A8007E2
:103C100022D5FFF7BBFB401BB8424FF00300F5D99C
:103C200087E700BF306A40F004003062306A40F03D
:103C300001003062FFF7AAFB054641F2883700BF5A
:103C4000306A800708D4FFF7A1FB401BB842F7D9C0
:103C5000032002B0BDE8F081B8F1000F3FF59BAE44
:103C6000F06920F08050F06195E600BF306820F4E4
:103C700080303060306820F480203060FFF786FBB1
:103C8000054600BF306880037FF560AEFFF77EFB1E
:103C9000401B64284FF00300F4D94AE7306840F431
:103CA00080203060306840F480303060FFF76EFB79
:103CB000054600BF306880033FF548AEFFF766FB5E
:103CC000401B6428F6D9032002B0BDE8F08100BF94
:103CD000206AB0F5803F05D17168A26821F40031F7
:103CE000114371607168626A21F4741111430843D1
:103CF000706001203866FFF749FB04463068800198
:103D00003FF56DAFFFF742FB001B02284FF00300A9
:103D1000F4D90EE7411E0020B0EB116F1CBF01204B
:103D200070474EF21002CEF2000251604EF623515F
:103D3000CEF20001F0230B700721906011607047F4
:103D40007047000070470000B0B582B004460068BC
:103D50000168C368426901F02F05202D03F020059A
:103D600006D12DB1204602B0BDE8B04001F000BF41
:103D70005FEA017C1EBF02F0010E03F4907212EBA9
:103D80000E0243D1226BCD0618D5012A16D113F0AD
:103D9000100213D000210191016801914168019145
:103DA0000199406940063BD4A08DE18DE28D002A47
:103DB00018BF884240F0F28102B0B0BD0A0640F15F
:103DC000E78013F0800200F0E38094F8411021298D
:103DD000F2D1A168B1F5805F03D12169002900F01B
:103DE0006382216A4A1C226209784160E18C0139B0
:103DF0000A04E184E0D1C16821F08001C160C1689A
:103E000041F04001C16002B0B0BD00BFCA0718BF99
:103E100013F4807240F0D0804A0700F1D380D8E0DC
:103E2000E06B016849688AB2002AC5D0A38D9A4226
:103E3000C2D2E1858069202800F09E80206850E889
:103E4000030F216820F4807041E80302DAB1206892
:103E500050E8030F216820F4807041E8030292B11A
:103E6000206850E8030F216820F4807041E80302C5
:103E70004AB1206850E8030F216820F4807041E8BF
:103E80000302002ADAD1206850E8050F216820F0EB
:103E9000010041E80502C2B3206850E8050F21681F
:103EA00020F0010041E805027AB3206850E8050FD0
:103EB000216820F0010041E8050232B3206850E893
:103EC000050F216820F0010041E80502002ADAD13F
:103ED0001BE000BF206850E8050F216820F040007B
:103EE00041E80502DAB1206850E8050F216820F0AA
:103EF000400041E8050292B1206850E8050F2168B2
:103F000020F0400041E805024AB1206850E8050F62
:103F1000216820F0400041E80502002ADAD1202083
:103F200084F8420000202063206850E8030F2168D5
:103F300020F0100041E80302DAB1206850E8030FD6
:103F4000216820F0100041E8030292B1206850E897
:103F5000030F216820F0100041E803024AB12068F5
:103F600050E8030F216820F0100041E80302002A06
:103F7000DAD1E06BFEF7F8FE02206063A08DE18DE0
:103F8000401A81B2204602B0BDE8B040FFF7D8BE6B
:103F900049067FF511AF13F040013FF40DAFC16842
:103FA00021F04001C1602021204684F8411002B078
:103FB000BDE8B04000F04EBB626C42F001026264AA
:103FC0004A0706D5BEF1000F03D0626C42F0020230
:103FD00062648A0706D5BEF1000F03D0626C42F01E
:103FE00004026264BCF1000F06D55EEA050203D04C
:103FF000626C42F008026264626C002A3FF4DCAE3C
:10400000890604D51DB1204601F0B2FD2068406943
:10401000616C00F0400001F00801401800F0B6802B
:10402000206850E8030F216820F4907041E80302F3
:10403000BAB3206850E8030F216820F4907041E87B
:10404000030272B3206850E8030F216820F49070D7
:1040500041E803022AB3206850E8030F216820F4E6
:10406000907041E80302002ADAD11AE0206850E893
:10407000050F216820F0010041E80502DAB120684F
:1040800050E8050F216820F0010041E8050292B1D7
:10409000206850E8050F216820F0010041E8050282
:1040A0004AB1206850E8050F216820F0010041E87E
:1040B0000502002ADAD1206B012824D1206850E8BB
:1040C000030F216820F0100041E80302DAB12068F4
:1040D00050E8030F216820F0100041E8030292B17C
:1040E000206850E8030F216820F0100041E8030227
:1040F0004AB1206850E8030F216820F0100041E821
:104100000302002ADAD1202084F842000020206334
:1041100020684069400640F1C180206850E8050FE2
:10412000216820F0400041E80502DAB1206850E83B
:10413000050F216820F0400041E8050292B1206897
:1041400050E8050F216820F0400041E805024AB11F
:10415000206850E8050F216820F0400041E8050282
:10416000002ADAD1E06B002800F0988045F665312E
:10417000C0F600014163FEF71BFE00283FF41CAEB1
:10418000E06B416B02B0BDE8B04008472046FFF746
:10419000D9FD0020606402B0B0BD00BF401A00BF6E
:1041A000216851E8031F226821F4907142E803134B
:1041B000BBB3216851E8031F226821F4907142E8E3
:1041C000031373B3216851E8031F226821F490712F
:1041D00042E803132BB3216851E8031F226821F43E
:1041E000907142E80313002BDAD11AE0216851E8FC
:1041F000051F226821F0010142E80513DBB12168A7
:1042000051E8051F226821F0010142E8051393B12E
:10421000216851E8051F226821F0010142E80513D9
:104220004BB1216851E8051F226821F0010142E8E5
:104230000513002BDAD1202184F8421000212163DC
:10424000216851E8031F226821F0100142E803139E
:10425000DBB1216851E8031F226821F0100142E818
:10426000031393B1216851E8031F226821F0100164
:1042700042E803134BB1216851E8031F226821F083
:10428000100142E80313002BDAD1022281B220464A
:10429000626302B0BDE8B040FFF752BD204602B0F5
:1042A000BDE8B040FFF74EBD216A31F8022B6FF335
:1042B0005F224260216299E5002804BF0120704717
:1042C00010B5044690F8410028B9002084F8400059
:1042D000204600F063F8242084F841002068D4E9E7
:1042E0000212C36823F40053C360036923F44053EC
:1042F0001A430261D4E904231143C268194341F20D
:104300000C639A431143C1604169A26921F4407171
:10431000114343F60002C4F201029042416103D00E
:10432000FFF7D0FA02E000BFFFF7E0FAD4E900237C
:10433000192148439900B0FBF1F048F21F5CC5F227
:10434000EB1CA0FB0C314FF69C734909C0F6FF73C0
:1043500001FB0300322303EB0010A0FB0C03F02051
:1043600000EA531000EB0110C3F3431108449060BE
:104370001069202120F490401061506920F02A003B
:104380005061D06840F40050D0600020606484F830
:10439000411084F84210606310BD000070B586B013
:1043A00040F60004C4F20104006804F54051002600
:1043B0008842049602D006B070BD00BF41F21800DA
:1043C000C4F20200016802AD41F48041016001685D
:1043D00001F4804101910199016841F004010160FB
:1043E0000068294600F00400019001984FF4007025
:1043F000029002200390032005902046FEF7AAFEBB
:104400004FF48060CDE90206204629460496FEF767
:10441000A1FE252000210022FFF738F82520FFF714
:1044200023F806B070BD000090F84230202B07D171
:1044300000294FF0010318BF002A05D11846704724
:1044400002231846704700BF0023036381622221C4
:104450008285C285436480F842100169006819B101
:10446000C16841F48071C160416941F0010141615D
:10447000C16841F02001C1601846704740F21051F8
:10448000C2F20001884218BF704710B540F218040C
:10449000C2F2000460783E2806D8013060702044E3
:1044A00000F1280104E000BF002004F12801607041
:1044B00040F21050C2F200000122FFF7B5FF607811
:1044C00040B1204490F827000D2801D00A2801D1DE
:1044D00001202070BDE81040704700002DE9F04138
:1044E000044690F8410020281CBF0220BDE8F0815E
:1044F0000D4600294FF0010000F0AA801646002A60
:1045000008BFBDE8F081002060642120984684F84F
:104510004100FEF73BFFA684E684A1680646B1F59C
:10452000805F02D12069002862D02F460025E08CF0
:10453000002861D018F1010018D0B8F1000F37D170
:10454000216808E017F8010B4860E08C0138E0842E
:10455000E08C002851D00868000673D5002FF1D1F7
:1045600035F8020B00276FF35F20EDE7216802E0CA
:104570000868000609D40868000606D40868000622
:104580005CBF08685FEA0060F2D51FB117F8010B45
:1045900005E000BF35F8020B00276FF35F2048608D
:1045A000E08C0138E084E08C0028E4D125E000BFF5
:1045B000216800BF0868000608D4FEF7E7FE801BEC
:1045C000404541D82168C868F4E700BF17B117F823
:1045D000010B04E035F8020B00276FF35F20486001
:1045E000E08C0138E084E08C0028E3D105E000BFD6
:1045F0000027E08C00289DD12168086840061FD460
:10460000B8F1000F1ED018F101000FD10868400664
:1046100016D40868400613D40868400610D4086809
:1046200040064FF00000F1D50FE000BFFEF7AEFEF0
:10463000801B404508D82068C16800684006F5D551
:10464000002002E0FEF7A2FE0320202184F84110A2
:10465000BDE8F08170470000FEE7000010B584B0AF
:1046600040F29C4042F20041C2F20000C4F201015B
:104670004FF4807C012400234FF4602280E80A106C
:10468000022104730375C2610161FEF7D3F90028AA
:1046900018BFFDF729FB0620CDE901040720039090
:1046A00040F29C40C2F2000001A9FEF777F8002812
:1046B00018BFFDF719FB0220CDE90100002003908F
:1046C00040F29C40C2F2000001A9FEF767F8002802
:1046D00018BFFDF709FB04B010BD000080B582B023
:1046E00041F21400C4F202000168002241F001010D
:1046F00001600068002100F00100019001980B208A
:10470000FEF7C4FE0B2002B0BDE88040FEF7ACBE51
:104710002DE9F04385B041F21800C4F202000168AF
:1047200040F6000441F0100101600168C4F2010488
:1047300001F01001019101990168002241F020016E
:1047400001600168012601F02001019101990168D1
:104750004FF0000941F004010160016801F004011B
:1047600001910199016841F008010160006801218F
:1047700000F00800019001982046FEF701FE204657
:10478000022100224FF00208FEF7FAFD1120CDE9C8
:104790000206032001AD0490204629460196FEF74B
:1047A000D9FC20462946CDF80480FEF7D3FC20270B
:1047B00020462946CDE90179CDF80C90FEF7CAFCD8
:1047C00004F580602946CDE90176CDE90368FEF75E
:1047D000C1FC05B0BDE8F08380B540F2105043F64F
:1047E0000001C2F20000C4F2010100234FF00C0CE2
:1047F0004FF4164280E80E00C0E90333C0E905C358
:10480000C361FFF759FD002808BF80BDBDE88040A7
:10481000FDF76ABAFEE70000FEE7000080B540F24F
:104820008000C2F200004FF48061FBF782FC80BD83
:1048300070B586B041F21800C4F20200016840F67B
:10484000000441F0100101600168C4F2010401F0AC
:10485000100101910199016801AD41F0040101606D
:104860000068012600F004000190019811200290D8
:104870000320049002200190204629460396FEF76B
:1048800069FC204629460196FEF764FC204601217A
:104890000122FEF775FD0025ADF81650BDF8160093
:1048A000022823D8BDF816000130ADF81600BDF877
:1048B000160002281AD8BDF816000130ADF816000F
:1048C000BDF81600022811D8BDF816000130ADF869
:1048D0001600BDF81600022808D8BDF816000130F1
:1048E000ADF81600BDF816000328DBD320460221E0
:1048F0000122FEF745FDADF81650BDF8160002285E
:1049000024D800BFBDF816000130ADF81600BDF880
:10491000160002281AD8BDF816000130ADF81600AE
:10492000BDF81600022811D8BDF816000130ADF808
:104930001600BDF81600022808D8BDF81600013090
:10494000ADF81600BDF816000328DBD306B070BD25
:10495000F0B583B040F600040546C4F20104002619
:10496000002703E00137082F00F0968005FA07F0D2
:10497000C0B2C20920460221FEF702FDADF8026076
:10498000BDF80200022823D8BDF802000130ADF8BE
:104990000200BDF8020002281AD8BDF8020001305A
:1049A000ADF80200BDF80200022811D8BDF80200DF
:1049B0000130ADF80200BDF80200022808D8BDF8A9
:1049C00002000130ADF80200BDF802000328DBD37D
:1049D000204601210122FEF7D3FCADF80460BDF8AA
:1049E0000400022824D800BFBDF804000130ADF84F
:1049F0000400BDF8040002281AD8BDF804000130F4
:104A0000ADF80400BDF80400022811D8BDF8040078
:104A10000130ADF80400BDF80400022808D8BDF844
:104A200004000130ADF80400BDF804000328DBD316
:104A3000204601210022FEF7A3FCADF80660BDF878
:104A4000060002288ED800BFBDF806000130ADF880
:104A50000600BDF8060002283FF684AFBDF8060048
:104A60000130ADF80600BDF8060002283FF67AAF27
:104A7000BDF806000130ADF80600BDF806000228BA
:104A80003FF670AFBDF806000130ADF80600BDF886
:104A900006000328D8D365E7204601210122FEF74E
:104AA0006FFC0025ADF80850BDF80800022823D897
:104AB000BDF808000130ADF80800BDF80800022874
:104AC0001AD8BDF808000130ADF80800BDF808009C
:104AD000022811D8BDF808000130ADF80800BDF873
:104AE0000800022808D8BDF808000130ADF8080019
:104AF000BDF808000328DBD3204601210022FEF781
:104B00003FFCADF80A50BDF80A00022824D800BFC7
:104B1000BDF80A000130ADF80A00BDF80A0002280D
:104B20001AD8BDF80A000130ADF80A00BDF80A0035
:104B3000022811D8BDF80A000130ADF80A00BDF80E
:104B40000A00022808D8BDF80A000130ADF80A00B2
:104B5000BDF80A000328DBD303B0F0BDB0B582B0C6
:104B600040F60004C4F20104204602210122FEF7AF
:104B700007FC0025ADF80050BDF80000022823D83E
:104B8000BDF800000130ADF80000BDF800000228BB
:104B90001AD8BDF800000130ADF80000BDF80000E3
:104BA000022811D8BDF800000130ADF80000BDF8B2
:104BB0000000022808D8BDF800000130ADF8000060
:104BC000BDF800000328DBD3204601210122FEF7B7
:104BD000D7FBADF80250BDF80200022824D800BF70
:104BE000BDF802000130ADF80200BDF80200022855
:104BF0001AD8BDF802000130ADF80200BDF802007D
:104C0000022811D8BDF802000130ADF80200BDF84D
:104C10000200022808D8BDF802000130ADF80200F9
:104C2000BDF802000328DBD3204602210022002524
:104C3000FEF7A6FBADF80450BDF80400022823D807
:104C4000BDF804000130ADF80400BDF804000228EE
:104C50001AD8BDF804000130ADF80400BDF8040016
:104C6000022811D8BDF804000130ADF80400BDF8E9
:104C70000400022808D8BDF804000130ADF8040093
:104C8000BDF804000328DBD3204601210022FEF7F3
:104C900077FBADF80650BDF80600022824D800BF07
:104CA000BDF806000130ADF80600BDF80600022888
:104CB0001AD8BDF806000130ADF80600BDF80600B0
:104CC000022811D8BDF806000130ADF80600BDF885
:104CD0000600022808D8BDF806000130ADF806002D
:104CE000BDF806000328DBD302B0B0BDB0B582B07A
:104CF00040F60004C4F201042046022100220025EF
:104D0000FEF73EFBADF80250BDF80200022823D8A2
:104D1000BDF802000130ADF80200BDF80200022823
:104D20001AD8BDF802000130ADF80200BDF802004B
:104D3000022811D8BDF802000130ADF80200BDF81C
:104D40000200022808D8BDF802000130ADF80200C8
:104D5000BDF802000328DBD3204601210122FEF723
:104D60000FFBADF80450BDF80400022824D800BFA2
:104D7000BDF804000130ADF80400BDF804000228BD
:104D80001AD8BDF804000130ADF80400BDF80400E5
:104D9000022811D8BDF804000130ADF80400BDF8B8
:104DA0000400022808D8BDF804000130ADF8040062
:104DB000BDF804000328DBD3204602210122FEF7C0
:104DC000DFFA0020ADF80600BDF80600022823D85F
:104DD000BDF806000130ADF80600BDF80600022857
:104DE0001AD8BDF806000130ADF80600BDF806007F
:104DF000022811D8BDF806000130ADF80600BDF854
:104E00000600022808D8BDF806000130ADF80600FB
:104E1000BDF806000328DBD302B0B0BD80B5FFF7B4
:104E200007FDFFF79BFE7820FFF792FD0020FFF7BC
:104E30008FFDAE20FFF78CFDFFF758FFFFF78EFECA
:104E40007820FFF785FD0020FFF782FDD520FFF7D2
:104E50007FFDFFF74BFFFFF781FE7820FFF778FD1E
:104E60000020FFF775FD8020FFF772FDFFF73EFF82
:104E7000FFF774FE7820FFF76BFD0020FFF768FD59
:104E8000A820FFF765FDFFF731FFFFF767FE7820E9
:104E9000FFF75EFD0020FFF75BFD3F20FFF758FDA9
:104EA000FFF724FFFFF75AFE7820FFF751FD00209F
:104EB000FFF74EFDD320FFF74BFDFFF717FFFFF77E
:104EC0004DFE7820FFF744FD0020FFF741FD002054
:104ED000FFF73EFDFFF70AFFFFF740FE7820FFF7E0
:104EE00037FD0020FFF734FD4020FFF731FDFFF7CD
:104EF000FDFEFFF733FE7820FFF72AFD0020FFF7C5
:104F000027FDA120FFF724FDFFF7F0FEFFF726FEA7
:104F10007820FFF71DFD0020FFF71AFDC820FFF7DE
:104F200017FDFFF7E3FEFFF719FE7820FFF710FDEE
:104F30000020FFF70DFDDA20FFF70AFDFFF7D6FE90
:104F4000FFF70CFE7820FFF703FD0020FFF700FDC0
:104F50001220FFF7FDFCFFF7C9FEFFF7FFFD7820E9
:104F6000FFF7F6FC0020FFF7F3FC8120FFF7F0FCD1
:104F7000FFF7BCFEFFF7F2FD7820FFF7E9FC002009
:104F8000FFF7E6FCCF20FFF7E3FCFFF7AFFEFFF7EC
:104F9000E5FD7820FFF7DCFC0020FFF7D9FCD920E5
:104FA000FFF7D6FCFFF7A2FEFFF7D8FD7820FFF74A
:104FB000CFFC0020FFF7CCFCF120FFF7C9FCFFF786
:104FC00095FEFFF7CBFD7820FFF7C2FC0020FFF72E
:104FD000BFFCDB20FFF7BCFCFFF788FEFFF7BEFD40
:104FE0007820FFF7B5FC0020FFF7B2FC3020FFF778
:104FF000AFFCFFF77BFEFFF7B1FD7820FFF7A8FCC1
:105000000020FFF7A5FCA420FFF7A2FCFFF76EFE2F
:10501000FFF7A4FD7820FFF79BFC0020FFF798FC2A
:10502000A620FFF795FCFFF761FEFFF797FD7820BC
:10503000FFF78EFC0020FFF78BFC8D20FFF788FC2C
:10504000FFF754FEFFF78AFD7820FFF781FC002070
:10505000FFF77EFC1420FFF77BFCFFF747FEFFF70E
:105060007DFD7820FFF774FC0020FFF771FCAF2076
:10507000FFF76EFCFFF73AFE40F28000C2F200003C
:105080004FF48061FBF755F8BDE8804000F086B929
:10509000B0B50C4640F0B005FFF760FD7820FFF793
:1050A00057FC0020FFF754FC2846FFF751FCFFF7A0
:1050B0001DFE200900F11005FFF750FD7820FFF7D5
:1050C00047FC0020FFF744FC2846FFF741FCFFF7B0
:1050D0000DFEFFF743FD7820FFF73AFC0020FFF7B5
:1050E00037FC04F00F00FFF733FCBDE8B040FFF7DA
:1050F000FDBD00002DE9F04F83B047B2002F01D471
:105100003F2903D903B0BDE8F08F00BF5F18402FDF
:10511000CDE9013188BFC1F14003DBB2002B5BD088
:105120001118802911466FF07F0788BF391ADDF802
:105130000890C9B203EB090EE1B340F2800801EB1D
:10514000000BC2F200084C4606E000BF09F101095D
:105150005FFA89F4A6453FD909F00703012101FA56
:1051600003F3DD434FEAD40A0746064608EBCA14A8
:10517000E35D03EA0501731CDBB29B45E155E5D90C
:10518000E15CB71CFFB22940BB45E154DED9E15DCB
:10519000F31C5FFA83FC2940E345E155D6D914F8A6
:1051A0000C100436F7B22940BB4504F80C10DDD8CA
:1051B000CCE700BF4F4600BF791CC9B28E450BD962
:1051C000B91CC9B28E4507D9F91CC9B28E4503D99D
:1051D0000437F9B28E45EFD80199002AA1F10101F7
:1051E0008BB201EB53314FEAE10B5DD003460299DC
:1051F000802828BF8023803B029340F28003C2F2C4
:10520000000318444FEAD10E01F0070100F18003BA
:1052100000F56070C1F10809009000204FF0000A0D
:10522000019306E00AF1010A5FFA8AF08345FFF470
:1052300069AF704407283FF665AF0C985FFA8AF3B0
:1052400002FB030010D1009D029E1346002EE9D000
:1052500010F8017B2C788F40274305F8017B013B38
:1052600006F10106F2D1DDE7019F734407EBC31697
:10527000029B1546002BD5D090F800C016F8808C04
:105280000CFA01F444EA080406F8804C10F8014BCB
:10529000377824FA09F4274306F8017B013D03F12E
:1052A0000103E7D1BEE700BF002000BF40F00101CD
:1052B000C9B28B45FFF426AF40F00201C9B28B455D
:1052C000FFF420AF40F00301C9B28B45FFF41AAFE1
:1052D0000430C1B28B45E9D214E700002DE9F04358
:1052E00081B014461278DAB389460646082B1FD0DF
:1052F000062B39D146F65E080027C0F6000800BF2D
:1053000007EB470002EB420106EB400008EB4101CE
:10531000A1F1C005C0B24946062208230095FFF757
:10532000E9FE0137F8B2225C002AE9D118E000BF9B
:1053300046F698280027C0F6000800BF06EBC70015
:1053400008EB0211A1F50075C0B2494608221023EE
:105350000095FFF7CFFE0137F8B2225C002AEDD1AD
:1053600001B0BDE8F08300BF002000BF40F00101A4
:10537000C9B2615C0029F3D040F00201C9B2615C9E
:105380000029EDD040F00301C9B2615C0029E7D0EB
:105390000430C1B2615C0029E8D1E1E72DE9F04FAA
:1053A00083B040F6000440F28008C4F201040025F6
:1053B000C2F200084FF0000908E000BFFFF796FCBA
:1053C00009F10109B9F1080F00F01A815FFA89F0BB
:1053D00000214FF0000BFFF75BFE08EBC91AFFF747
:1053E000BDFB7820FFF7B4FA4020FFF7B1FA04E0E4
:1053F0000BF1010BBBF1800FE0D01AF80B70002607
:1054000004E000BF0136082E00F0968007FA06F08F
:10541000C0B2C20920460221FDF7B2FFADF802502A
:10542000BDF80200022823D8BDF802000130ADF813
:105430000200BDF8020002281AD8BDF802000130AF
:10544000ADF80200BDF80200022811D8BDF8020034
:105450000130ADF80200BDF80200022808D8BDF8FE
:1054600002000130ADF80200BDF802000328DBD3D2
:10547000204601210122FDF783FFADF80450BDF85D
:105480000400022824D800BFBDF804000130ADF8A4
:105490000400BDF8040002281AD8BDF80400013049
:1054A000ADF80400BDF80400022811D8BDF80400CE
:1054B0000130ADF80400BDF80400022808D8BDF89A
:1054C00004000130ADF80400BDF804000328DBD36C
:1054D000204601210022FDF753FFADF80650BDF82C
:1054E000060002288ED800BFBDF806000130ADF8D6
:1054F0000600BDF8060002283FF684AFBDF806009E
:105500000130ADF80600BDF8060002283FF67AAF7C
:10551000BDF806000130ADF80600BDF8060002280F
:105520003FF670AFBDF806000130ADF80600BDF8DB
:1055300006000328D8D365E7204601210122FDF7A4
:105540001FFFADF80850BDF80800022824D800BF9E
:10555000BDF808000130ADF80800BDF808000228C9
:105560001AD8BDF808000130ADF80800BDF80800F1
:10557000022811D8BDF808000130ADF80800BDF8C8
:105580000800022808D8BDF808000130ADF808006E
:10559000BDF808000328DBD3204601210022FDF7D7
:1055A000EFFEADF80A50BDF80A0002283FF620AF22
:1055B000BDF80A000130ADF80A00BDF80A00022863
:1055C0003FF616AFBDF80A000130ADF80A00BDF88D
:1055D0000A0002283FF60CAFBDF80A000130ADF812
:1055E0000A00BDF80A0002283FF602AFBDF80A0023
:1055F0000130ADF80A00BDF80A000328D8D3F7E659
:1056000003B0BDE8F08F0000704700002DE9F04FB7
:10561000A7B040F21800C2F200004178002974D00F
:105620004A1E024492F828300D2B01D00A2B6CD16F
:105630000023022982F8283008D30239014491F866
:1056400028200D2A04BF002281F8282000F1280418
:105650002FA0214600F008FC2046FBF739FD18B1C9
:105660003AA001F0BDF815E02FA120460722FAF775
:1056700096FD78B12EA120460622FAF790FD38B1AA
:105680002DA0214627B0BDE8F04F00F0EDBB00BFD4
:10569000FBF700FD40F28041C2F2000191E8C10435
:1056A000FBF769F8804630468946FBF764F8064602
:1056B00038468B46FBF75FF8074650460C46FBF72B
:1056C0005AF80D46CDE9027447F2F20107AC049096
:1056D000C0F60001204642464B46CDE9006B0595D9
:1056E00000F0D2FB2046FAF745FD82B240F210509E
:1056F000C2F2000021466423FEF7F0FE47F2AE102E
:10570000C0F60000214600F0AFFB27B0BDE8F08FE7
:105710005B434D445D2052656365697665643A205C
:1057200025730D0A000000005354415455530000E6
:1057300052455345540000005B434D445D20556E77
:105740006B6E6F776E3A2025730D0A005B434D44F4
:105750005D205468726573686F6C64207570646155
:105760007465640D000000007047000080B5FBF711
:10577000A9FF4FF47A70FDF7D9FC40F29C40C2F2C9
:105780000000BDE88040FCF77FBF00002DE9F0433A
:1057900085B0FDF7FBFD40F21807C2F20007B969BA
:1057A0000446401AB0F5FA6F20D9B87801281CD108
:1057B000FBF72AFF0146013880B2B0F5547F11D8BB
:1057C0000846FAF781FF0021C4F22011FAF77EFDA6
:1057D000F860FAF7D0FF024633A00B4600F044FB16
:1057E00003E000BF28A000F03FFBBC61F88810B9BF
:1057F0003889002845D0F888FAF76FFF0025C4F2F1
:10580000C8252946FAF730FD4FF20004C4F27F5450
:105810002146FAF75BFD29460646FAF747FF0028BE
:105820001CBF0026C4F2C8263E613889FAF755FF2E
:105830000021C4F27A41FAF717FD2146FAF746FD36
:105840007861FDF7A3FDF969401A40F6B931884245
:1058500017D3B7F80680D7E90405FAF78CFF81461D
:105860003E8928460C46FAF786FFCDE9020114A0CE
:1058700041464A462346009600F0F6FAFDF786FDBB
:10588000F86105B0BDE8F08354656D7065726174B0
:105890007572652072656164206572726F723A205C
:1058A00025640D0A0000000054656D706572617416
:1058B0007572653A20252E3166C2B0430D0A00008C
:1058C0004144433A20536D6F6B653D256428252E76
:1058D000306625252920434F3D256428252E306636
:1058E00070706D290D0A0000FDF756BDB0B594B07B
:1058F00000240120CDE90F44CDE90D440A900E901B
:105900004FF4E0104FF48031022513900AA804945C
:10591000CDE90244CDE90B14CDE91151FDF7FAFFB1
:10592000A0B147F2571040F60044C0F60000C4F2A0
:10593000010400F055FFEFF3108072B620462021DD
:10594000FDF716FDC820FDF7F1FBF7E70F20CDE9C5
:1059500005054FF48060CDE9080405A802210794ED
:10596000FDF7CEFEA0B147F2571040F60044C0F656
:105970000000C4F2010400F033FFEFF3108072B6B0
:1059800020462021FDF7F4FCC820FDF7CFFBF7E708
:10599000022001904FF40040039001A8FDF72EFE75
:1059A000A0B147F2571040F60044C0F60000C4F220
:1059B000010400F015FFEFF3108072B6204620219D
:1059C000FDF7D6FCC820FDF7B1FBF7E714B0B0BD7A
:1059D0007047000010B540F25850C2F20000FCF7CA
:1059E000CBFDFBF757FBFFF719FAFEF717FF47F25E
:1059F000A112C0F60002002000210623FFF76EFC72
:105A000035A2002020210623FFF768FCFFF7C6FC23
:105A10004FF47A70FDF78AFB32A000F0E1FEFFF749
:105A2000A5FEFBF74FFEB0FA80F138A200283BA09C
:105A30003EA433A308BF1A4608BF044640F218002C
:105A40004909C2F200008170002030210623FFF7CF
:105A500045FC204600F0C4FEFFF7A0FC4FF4FA60BE
:105A6000FDF764FBFEF7DAFEFFF798FC40F6004016
:105A7000C4F2010020210122FDF782FCFEF7CEFED8
:105A800047F29012C0F60002002000210623FFF723
:105A900025FC47F2BF12C0F60002002010210623A9
:105AA000FFF71CFC47F29912C0F6000200202021EB
:105AB0000623FFF713FC47F2B112C0F600020020E4
:105AC00030210623FFF70AFCFFF768FC4FF4FA6069
:105AD000BDE81040FDF72ABB5374617274696E67AC
