:020000040800F2
:10000000380B0020B5010008B12A0008F9280008C3
:10001000AD2A000841040008393C00080000000037
:10002000000000000000000000000000153B000878
:100030007509000800000000113B0008193B00088A
:10004000CF010008CF010008CF010008CF01000850
:10005000CF010008CF010008CF010008CF01000840
:10006000CF010008CF010008CF01000845040008B7
:10007000CF010008CF010008CF010008CF01000820
:10008000CF010008CF010008BD020008CF01000821
:10009000CF010008CF010008CF010008CF01000800
:1000A000CF010008CF010008CF010008CF010008F0
:1000B000CF010008CF010008CF010008CF010008E0
:1000C000CF010008CF010008CF010008CF010008D0
:1000D000CF0100082D3C0008CF010008CF01000827
:1000E000CF010008CF010008CF01000800F002F89E
:1000F00000F050F814A696E8000CB244B344DA4578
:1001000001D100F047F8BAE80F000FA696E83000DA
:10011000A5EB040504EB0607AAEB0704A7F101070A
:100120004FEA15154FEA3414A4F10104AC4201D38F
:1001300000F030F813F0010F18BFFB1A43F0010371
:1001400000F001F8DBE71847B04E0000D04E000089
:10015000103A24BF78C878C1FAD8520724BF30C8F3
:1001600030C144BF04680C60704700007047000055
:100170000023002400250026103A28BF78C1FBD8B0
:10018000520728BF30C148BF0B6070471FB51FBD65
:1001900010B510BD00F05CF81146FFF7F7FF03F053
:1001A0004DFD00F07AF803B4FFF7F2FF03BC00F056
:1001B0007DF800000948804709480047FEE7FEE750
:1001C000FEE7FEE7FEE7FEE7FEE7FEE7FEE7FEE707
:1001D00004480549054A064B704700001D3B0008CE
:1001E000ED00000838050020380B002038070020FB
:1001F000380700204FF0000200B51346944696469B
:10020000203922BFA0E80C50A0E80C50B1F1200129
:10021000BFF4F7AF090728BFA0E80C5048BF0CC0D7
:100220005DF804EB890028BF40F8042B08BF704735
:1002300048BF20F8022B11F0804F18BF00F8012BA7
:1002400070477047704770470048704710000020A3
:100250007546FFF7F9FFAE4605006946534620F0A4
:100260000700854618B020B5FFF7B2FFBDE8204073
:100270004FF000064FF000074FF000084FF0000B62
:10028000AC46ACE8C009ACE8C009ACE8C009ACE8D1
:10029000C00921F007018D46704710B50446AFF341
:1002A00000802046BDE81040FFF77DBF01491820BF
:1002B000ABBEFEE7260002007047000040F274402B
:1002C000C2F2000000F0AABCB0B504460068816824
:1002D000C90709D0816821F00101816001F0C4F9EA
:1002E00021688968C90701D10020B0BD054602E038
:1002F0008068C007F8D001F0B7F9411B20680329D6
:10030000F6D38168C907F3D0A06A40F01000A0625C
:10031000E06A40F00100E0620120B0BD0146406AA1
:10032000826A12F0500F03D0006A026B0846104731
:100330000168826A42F400728262896801F4602175
:10034000B1F5602F01D1017B11B100F061BC00BF9C
:10035000816A21F480718162816AC90448BF00F01A
:1003600057BC816A41F00101816200F051BC00007C
:10037000406A816A41F040018162C16A41F0040132
:10038000C16200F049BC0000406A00F043BC0000BC
:10039000B0B582B004460020019021688A68D20777
:1003A0004BD1886840F00100886040F20800C2F23A
:1003B000000000684DF68361C4F21B31A0FB01010F
:1003C000880C01900198A0B1019801380190019822
:1003D00078B1019801380190019850B10198013825
:1003E0000190019828B101980138019001980028E6
:1003F000EAD101F039F921688968C9071CD105469D
:1004000003E000BF8068C00716D101F02DF9411B41
:1004100020680329F6D38168C907F3D1A06A40F0A8
:100420001000A062E06A40F00100E062002084F861
:100430002400012002B0B0BD002002B0B0BD000019
:10044000FEE7000040F2A440C2F2000000F080BECF
:1004500070B584B040F60004C4F2010400F0E6F97F
:100460000120019003202026039069462046009633
:1004700000F0E6FF204620210022002501F0EEF8E2
:1004800020462021012201F0E9F869462046CDE905
:10049000006500F0D5FF00BF204620212E4601F068
:1004A000D7F818B1C82E06F10105F5D3C72E0AD822
:1004B000002500BF2046202101F0CAF818B9F02D10
:1004C00005F10105F6D30020002500F0F1F9002028
:1004D00000F0EEF900F068F8044600F065F87028C6
:1004E00088BF4FF0FF3584EA05016840C9B241EA90
:1004F000002000B203F001FE0023C3F6E4730022E3
:1005000003F09EFE03F09CFD04B070BDF0B589B011
:1005100040F60004C4F2010420250126032701A9A6
:1005200020460195CDE90266049700F089FF05A9F0
:100530002046CDE90556089700F082FF204620218D
:100540000022002601F08AF820462021012201F035
:1005500085F805A92046CDE9055600F071FF00BFDA
:1005600020462021354601F073F818B1C82D05F159
:100570000106F5D3C72D03D9012009B0F0BD00BF96
:10058000002000BF05462046202101F061F818B97F
:10059000F02D05F10100F5D30020EF2D88BF0120DB
:1005A000400009B0F0BD00002DE9F04F85B00120FA
:1005B00040F6000402900320C4F201040DF1040887
:1005C000202504902046414601954FF001094FF047
:1005D000030B00F035FF204620210022002601F009
:1005E0003DF820462021012201F038F8CDE90156DE
:1005F00001AE204631464FF0000A00F021FF2046B0
:10060000202101F025F8074600282046414618BF62
:100610000127CDE90159CDF810B04FF0030B00F0E0
:100620000FFF20462021002201F018F8204620214B
:10063000012201F013F820463146CDE9015A4FF06E
:10064000000A00F0FDFE2046202101F001F80028FC
:1006500018BF0120C00140EA8719012002902046FE
:1006600041460195CDF810B04FF0030B00F0E8FEC5
:1006700020462021002200F0F1FF20462021012207
:1006800000F0ECFF20463146CDE9015A4FF0000A58
:1006900000F0D6FE2046202100F0DAFF07460028B1
:1006A0004FF0010018BF01270290204641460195F6
:1006B000CDF810B04FF0030B00F0C2FE2046202111
:1006C000002200F0CBFF20462021012200F0C6FFCF
:1006D00020463146CDE9015AB24600F0B1FE20462F
:1006E000202100F0B5FF4FEA9901002818BF012032
:1006F00041EA871141EAC01601272046414601958B
:100700000297CDF810B000F09BFE20462021002279
:1007100000F0A4FF20462021012200F09FFF4FF0AF
:100720000009204651460195CDF8089000F088FE5A
:100730002046202100F08CFF7821002818BF0120DE
:1007400001EA560141EAC0160320049020464146C2
:10075000CDE901574FF0010B00F072FE2046202139
:10076000002200F07BFF20462021012200F076FFCE
:1007700020465146CDE901594FF0000900F060FED6
:100780002046202100F064FF074600284FF00300B8
:1007900018BF0127049020464146CDE9015B00F0D7
:1007A0004FFE20462021002200F058FF2046202145
:1007B000012200F053FF20465146CDE901594FF088
:1007C000000B00F03DFE2046202100F041FFB10863
:1007D000002818BF012041EA871141EAC016012014
:1007E00002900320049020464146019500F028FE27
:1007F00020462021002200F031FF20462021012246
:1008000000F02CFF20465146CDE9015B00F018FEB8
:100810002046202100F01CFF002818BF0120C6F34D
:10082000460141EAC01005B0BDE8F08F70B584B054
:1008300040F600040120C4F20104019003202026A8
:10084000039069462046009600F0FAFD20462021DC
:100850000022002500F002FF20462021012200F0A6
:10086000FDFE69462046CDE9006500F0E9FD00BFC8
:10087000204620212E4600F0EBFE18B1C82E06F1CE
:100880000105F5D3C72E0AD8002500BF2046202138
:1008900000F0DEFE18B9F02D05F10105F6D30020B9
:1008A00000F006F8002000F003F804B070BD00006E
:1008B00010B584B020200090012040F60004019083
:1008C0000320C4F2010403906946204600F0B8FDFD
:1008D00020462021002200F0C1FE204620210122D6
:1008E00000F0BCFE20462021002200F0B7FE20468A
:1008F0002021012200F0B2FE20462021002200F03B
:10090000ADFE20462021012200F0A8FE2046202135
:10091000002200F0A3FE20462021012200F09EFECE
:1009200020462021002200F099FE204620210122AD
:1009300000F094FE20462021002200F08FFE204689
:100940002021012200F08AFE20462021002200F012
:1009500085FE20462021012200F080FE2046202135
:10096000002200F07BFE20462021012200F076FECE
:1009700004B010BD70470000EFF3108072B600BFE6
:10098000FEE7000070B582B004460020019094F8A4
:100990002400012804D10225284602B070BD00BF02
:1009A000012084F824002046FFF78EFC2046FFF744
:1009B000EFFC0546002867D1A06A41F20211884386
:1009C0000230A06240F20800C2F200000668022075
:1009D00000F006FFB6FBF0F0400001900198A0B1D6
:1009E000019801380190019878B10198013801907F
:1009F000019850B1019801380190019828B10198EF
:100A00000138019001980028EAD12068816841F0FE
:100A10000801816000F028FE21688A6812070DD461
:100A2000886840F00400886000F01EFE2168896834
:100A3000490713D401206FF0030121E0064602E0CC
:100A400088680007ECD500F00FFE801B21680B289A
:100A5000F6D388680007F3D50EE000BF064602E033
:100A600080684007E6D500F0FFFD811B20680B2958
:100A7000F6D381684907F3D5012510206FF01201E4
:100A8000A26A11400843A062002084F8240028468E
:100A900002B070BD7047000010B581B00022009216
:100AA00090F82420012A03D10221084601B010BD8C
:100AB0004B680122062B80F8242033D8D0F800C0E0
:100AC00003EB83035A1F1F23DCF834E003FA02F41C
:100AD0000B682EEA040403FA02F22243CCF8342015
:100AE000092B03EB430249D9DCF80CE01E3A07243A
:100AF000896894402EEA0404914023F001022143C6
:100B0000102ACCF80C1043D142F20841C4F2010182
:100B1000A1F10802944543D0816A41F0200181622D
:100B2000012136E0D0F800C00C2B03EB830213D870
:100B3000233A1F23DCF830E003FA02F40B682EEAB4
:100B4000040403FA02F22243CCF83020092B03EB11
:100B50004302C9D812E000BF413A1F23DCF82CE061
:100B600003FA02F40B682EEA040403FA02F22243A9
:100B7000CCF82C20092B03EB4302B5D8DCF810305D
:100B8000072489689440A34391401943CCF810107E
:100B90000021002280F82420084601B010BD00BFCB
:100BA0000A681202F4D40A68102B42F400020A60A8
:100BB000EED140F20801C2F2000109684DF68362ED
:100BC000C4F21B32A1FB0212910C01EB810149001E
:100BD000009100990029DBD000990139009100991A
:100BE0000029D5D000990139009100990029CFD072
:100BF00000990139009100990029C9D00099013963
:100C00000091009900294FF00001E5D1C1E70000F3
:100C100070470000704700007047000070B5044640
:100C2000006805684668B10627D515F0020124D092
:100C3000A16AC90603D4A16A41F40071A162816866
:100C400001F46021B1F5602F10D1217B71B94168A9
:100C500021F020014160A06A20F48070A062A06AA7
:100C6000C00403D4A06A40F00100A0622046FFF750
:100C7000CFFF20686FF012010160310633D515F007
:100C8000040130D0A16AC90603D4A16A41F400511D
:100C9000A162816801F4E041B1F5E04F10D14168F3
:100CA00021F080014160A06A20F48050A062A06A17
:100CB000C00511D4A06A40F00100A0620CE000BFA2
:100CC0004168490508D4816801F46021B1F5602FBD
:100CD00002D1217B0029E2D02046FFF7DBFE20680D
:100CE0006FF00C01016070060ED515F0010008BF11
:100CF00070BDA06A40F48030A062204600F0B6F8D3
:100D000020686FF00101016070BD0000002804BF81
:100D100001207047B0B50446806A28B12168886810
:100D2000C0070CD115E000BF0020E06284F8240069
:100D3000204600F09DF821688868C00709D08868BF
:100D400020F00100886000F08FFC21688A68D207DB
:100D500026D1A06AC0063AD4A06A41F2021290439A
:100D60000230A062E069D4E9013240EA030C531E6C
:100D7000B3FA83F35D091346B2F5807F18BF2B02E7
:100D8000207D257B01284CEA450030D135B3A56A8A
:100D900045F02005A562E56A45F00105E56226E01B
:100DA000054602E08868C007D3D000F05DFC401B18
:100DB00021680328F6D38868C007F3D0A06A40F002
:100DC0001000A062E06A40F00100E062A06AA06A40
:100DD00040F01000A0620120B0BD00BFD4F818C0E0
:100DE0004EF60005CFF6FF7505EB4C352B434D68ED
:100DF000B2F5807F25F4694543EA05034B608B68B3
:100E00004FF2FD75CFF6E17503EA050343EA0003EF
:100E10008B6001D0012A07D122690023CFF6F0733D
:100E200003EB025201E000BF0022CB6A23F47003FF
:100E30001A43CA62896840F6FE62CFF61F721140FB
:100E4000814207D10020E062A16A012262F3010120
:100E5000A162B0BDA06A40F0100020F00200A062C4
:100E6000E06A40F00100E0620120B0BD7047000080
:100E70002DE9F04186B040F600050446C4F20105B4
:100E8000006805F5E051002788420597049703D0D4
:100E900006B0BDE8F08100BF41F21800C4F20200C4
:100EA000016802AE41F40071016001684FF003086F
:100EB00001F4007101910199016841F004010160A0
:100EC0000068314600F00400019001984020029033
:100ED0002846CDF80C8000F0B3FA0220CDE90208D4
:100EE0002846314600F0ACFA40F2A4450820C2F290
:100EF0000005C4F202004FF48072C5E9000705F155
:100F0000100080214FF480632026CCC02846C5E91C
:100F1000027100F0EDF9002818BFFFF72DFD122037
:100F20000021002225626C6200F01EFC122000F0FD
:100F300009FC06B0BDE8F08170B5154604460068AE
:100F400042F60002C4F2010290420E4605D042F27F
:100F50000041C4F2010188420AD142F20440C4F2C5
:100F60000100006810F4702F02D0012070BD00BF96
:100F700094F82400012804BF022070BD012084F8E9
:100F800024002046FFF704FA20B1002084F8240052
:100F9000012070BD42F204402168A26AC4F201003F
:100FA00040F601739A4300F57F7302F5807299420F
:100FB000A26243D0A06A20F48010A0624868400575
:100FC00004D5A06A012262F30D30A062A26A00205B
:100FD000D2044FF0000244BFE26A22F00602E2624D
:100FE00084F82400206A40F21D32C0F6000240F26C
:100FF000893340F2713C00F1280EC0F60003C0F6C0
:10100000000C8EE80C106FF002020A608A682B4612
:1010100042F480728A604C31324600F0ADF92068AB
:10102000816801F460228168B2F5602F0CBF41F441
:10103000A00141F480118160002070BD026812F4AB
:10104000702FB7D0A26A42F48012A26200684005F5
:10105000B7D4BBE7014690F82100022816D10868F2
:10106000D1E90FC3026822F00E020260026822F08A
:1010700001020260012000FA03F2CCF8042081F89A
:1010800021000020002281F820207047042088637E
:101090000120002281F820207047000090F82110E4
:1010A000022923D10268116821F00E0111602F215D
:1010B0001368C4F202018A4240F20401C4F2020140
:1010C00023F00103136015DD3023C4F202039A42BA
:1010D0001CD04423C4F202039A421BD05823C4F20A
:1010E00002039A421CD14FF4803321E00421816332
:1010F000012070470823C4F202039A420ED01C2339
:10110000C4F202039A420BD1102311E04FF4807312
:101110000EE000BF4FF480530AE000BF012307E058
:1011200001F1680C4FF08073624508BF4FF48013E3
:101130000B60012180F82110426B002180F8201003
:1011400022B180B590470021BDE880400846704735
:1011500010B5D0E90FCE0168DCF800300A6823FA38
:101160000EF35C072AD512F0040427D00A68920611
:1011700003D40A6822F004020A602F22C4F2020299
:10118000914240F20402C4F202025BDD3023C4F259
:101190000203994272D04423C4F20203994273D0ED
:1011A0005823C4F20203994240F07A804FF480231E
:1011B0001360C16A002940F098806FE09C0727D532
:1011C00012F0020424D00A68920606D40A6822F0BB
:1011D0000A020A60012280F821202F22C4F20202B2
:1011E000914240F20402C4F202023BDD3023C4F219
:1011F0000203994260D04423C4F2020399425FD0B3
:101200005823C4F20203994260D14FF4003365E0E1
:101210001B0743D512F0080208BF10BD0A6822F070
:101220000E020A60012101FA0EF2CCF8042081635B
:1012300080F82110016B0022002980F8202054D171
:101240002CE000BF0823C4F20203994222D01C23E1
:10125000C4F20203994223D140231360C16A0029DA
:1012600043D11BE00823C4F2020399422CD01C2373
:10127000C4F20203994229D120232FE04FF4806366
:101280001360C16A89BB09E04FF480431360C16AEF
:1012900059BB03E004231360C16A31BB10BD00BF1A
:1012A00002F168044FF08063A14208BF4FF480034D
:1012B0001360C16AC9B9F1E74FF400730EE000BFD3
:1012C0004FF400530AE000BF022307E002F1680474
:1012D0004FF00073A14208BF4FF400131360816AFE
:1012E0000022002980F82020D8D0BDE8104008470F
:1012F000014600284FF0010008BF70472DE9F04774
:101300000A684FF6F873CBF6FD7302EB030C4CF64C
:10131000CD43CCF6CC43ACFB033C6FF00307002677
:1013200007EA9C07C4F2020601F10C0AC1E90F6743
:101330000227D1E9013E9AE83004D1E9069881F804
:101340002170176843F6F076B7433B4343EA0E0338
:1013500023432B4343EA0A0343EA090343EA08030E
:10136000136000228A6381F8210081F82020002088
:10137000BDE8F0477047000090F820C0BCF1010FB5
:1013800004BF02207047F0B54FF0010E80F820E056
:1013900090F821C0BCF1010F26D14FF0020C80F86B
:1013A00021C04FF0000CC0F838C0D0E900C4C56AB5
:1013B000C66BDCF80070102C27F00107CCF8007029
:1013C000006C0EFA00F070600846CCF8043004BFE0
:1013D00010460A46CCF80800CCF80C20DCF80000D7
:1013E00045B140F00E000DE0002180F820100220F1
:1013F000F0BD00BF20F00400CCF80000DCF80000D5
:1014000040F00A00CCF80000DCF8000040F00100D9
:10141000CCF800000020F0BDB0B5044600F024F97F
:10142000054640F20000C2F200000078611C18BFBF
:10143000044400BF00F018F9401BA042FAD3B0BD2D
:101440002DE9F04F82B00E68002E00F0FD8041F2D1
:101450000042C4F20102042340F2004E904208BF51
:1014600003234FF6FF7CC4F2010E009300240123F6
:10147000C1F2100C4FF0000A4FF0000944E000BF29
:10148000012704F00C030F229A402BEA020207FA0C
:1014900003F34FEA9A051A4346F825204E6840F2B6
:1014A0000C45F202DEF8082054BF22EA080242EAA4
:1014B0000802C4F20105CEF808202A68B30254BF1E
:1014C00022EA080242EA08022A60B303DEF8042096
:1014D00054BF22EA080242EA0802F303CEF80420CD
:1014E000DEF800204FF0010354BF22EA080242EA6E
:1014F0000802CEF800200E680AF1010A36FA0AF254
:1015000004F1040400F0A08003FA0AFB16EA0B08B9
:10151000F1D04E68664511DC122E55D8DFE806F092
:10152000340A444854545454545454545454545401
:10153000544C5000D1F80C9046E000BF4FF6FF72BB
:10154000C1F2210296420FDC0022C1F21102964242
:101550001AD00022C1F21202964215D00022C1F226
:101560002102964210D02FE00022C1F222029642C0
:101570000AD00022C1F23102964205D00022C1F207
:101580003202964220D100BF8A684AB1012A14BFB4
:10159000C0F814B0C0F810B04FF0080914E000BF54
:1015A0004FF0040910E000BFCA6802F108090BE01F
:1015B0004FF0000908E000BFCA6802F1040903E027
:1015C000CA6802F10C0900BF22460646B8F5807FC2
:1015D00024BF203A043637680F25954027EA0505D1
:1015E00009FA02F22A433260CA79D2067FF583AF44
:1015F00041F21803C4F202031A68AEF57E7642F097
:1016000001021A601A6802F001020192019A2AF09E
:10161000030256F802B040F60002C4F20102904202
:1016200010D040F60042C4F2010290423FF428AFCD
:1016300041F20002C4F20102009F904208BF02275B
:101640001FE700BF00271CE702B0BDE8F08F0000D5
:101650008068084018BF012070470000002A08BFBA
:10166000090401617047000040F23050C2F20000EE
:101670000068704740F2000040F23051C2F20000B2
:10168000C2F2000100780A68104408607047000048
:1016900080B542F20000C4F20200016841F010017E
:1016A0000160032000F08CF80F2000F005F800F036
:1016B00027F8002080BD000070B540F20006C2F29D
:1016C000000640F208013278C2F200014FF47A734A
:1016D0000968B3FBF2F20446B1FBF2F1084600F0F0
:1016E00087FC0F2C4FF0010508D838B94FF0FF30B8
:1016F00021460022002500F037F87460284670BDAE
:1017000082B041F21800C4F202000168022241F0E6
:1017100001010160016801F0010101910199416835
:1017200041F080514160406800F080500090009886
:101730000420C4F20100016862F31A61016002B082
:1017400070470000002848BF704700F01F010122C9
:1017500002FA01F11C2202EAD0004EF20012CEF28F
:10176000000281507047000010B54EF60C5CCEF2BE
:10177000000CDCF80030C3F3022E8EF00704042CBA
:1017800028BF0424BEF103034FF0FF3E0EFA04F419
:1017900038BF0023A14399400EFA03F39A43114343
:1017A00000F00F0200F160430901043A03F56443BD
:1017B0006244002848BF02F10C03197010BD0000FC
:1017C0004EF60C51CEF200010A684FF6FF031A40A4
:1017D00060F30A2242F0806040F0FD7008607047BC
:1017E00001280FD002282DD0102808D141F2040181
:1017F000C4F202010A6851F8040CC00134D400207C
:10180000704700BF41F20400C4F20200C16940F217
:1018100002320A40B2F5817F04BF4FF400407047A6
:1018200001F44071B1F5407F2AD0B1F5007F1CBFB3
:1018300000207047006A49F64041800701EAE070E5
:10184000704700BF80B500F0BFF941F20401C4F257
:10185000020109680222C1F3813102EB4101B0FBB0
:10186000F1F0BDE880407047C2F3834015A3185CD7
:10187000D2030DD440F60012C0F23D02504313E0F3
:1018800050F8040C4FF22441800301EAE0707047E5
:101890000A6810A3C2F340429A5C41F20023C0F2EE
:1018A0007A03B3FBF2F250430968490248BF70471C
:1018B0004AF6AB214000CAF6AA21A0FB0101480864
:1018C000704700BF02030405060708090A0B0C0D48
:1018D0000E0F1010010200002DE9F04182B0044605
:1018E000007841F21C06C007C4F202064AD03068F4
:1018F0005FEAC00808D4306840F08050306030683B
:1019000000F080500190019847F20007C4F20007F0
:101910003868C00512D4386840F480703860FFF72A
:10192000A3FE05463868C00508D4FFF79DFE401B9E
:101930006428F7D9032002B0BDE8F081706810F484
:10194000407012D0616801F4407188420DD0706817
:1019500040F24042C4F24222012320F4407113605D
:101960000023C0071360716026D17068616820F49D
:1019700040700843B8F1000F706003D4306820F065
:10198000805030602068810707D556F8181CA2687F
:1019900021F44041114346F8181CC00607D556F8FB
:1019A000180CE16820F48000084346F8180C002069
:1019B00002B0BDE8F08100BFFFF756FE054641F2D8
:1019C000883700BF70688007CFD4FFF74DFE401BFB
:1019D000B8424FF00300F5D9EAE70000002804BF41
:1019E000012070472DE9F04381B042F20008C4F2B3
:1019F00002080446D8F800000D4600F007008842AF
:101A00000CD2D8F8000020F007002843C8F80000E6
:101A1000D8F8000000F00700A8426CD1206841F21D
:101A200004098107C4F2020917D5410705D5D9F881
:101A3000001041F4E061C9F80010010705D5D9F89C
:101A4000001041F46051C9F80010D9F80010A268E4
:101A500021F0F0011143C9F80010C00742D1D8F8B5
:101A6000000000F00700A8420CD9D8F8000020F0D0
:101A700007002843C8F80000D8F8000000F007006D
:101A8000A84238D12068410707D5D9F80010E2688C
:101A900021F4E0611143C9F80010000708D5D9F816
:101AA0000000216920F4605040EAC100C9F800003C
:101AB000D9F8002002F00C00082841F20020C0F202
:101AC0007A0051D144F6E873C2F38341C0F60003B3
:101AD000595CD2033CD440F60010C0F23D004843AC
:101AE00042E000BF606802280AD001282AD159F8D4
:101AF000041C890308D4012001B0BDE8F08300BFB5
:101B000059F8041C8901F6D5D9F8001021F0030119
:101B10000843C9F80000FFF7A7FD064641F28837E1
:101B2000D9F80000616800F00C00B0EB810F96D08E
:101B3000FFF79AFD801BB842F2D9032001B0BDE83F
:101B4000F08300BF59F8041C8907D4D5DCE700BF37
:101B5000D9F8002044F2BC73C2F34042C0F600033F
:101B60009A5C4843B0FBF2F0D9F8001044F2A4723A
:101B7000C1F30311C0F60002515C40F2080220FAE2
:101B800001F140F20400C2F200000068C2F200025B
:101B90001160FFF791FD002001B0BDE8F083000067
:101BA00040F2080041F20401C2F20000C4F2020156
:101BB0000068096844F2B472C1F30221C0F6000261
:101BC000515CC8407047000040F2080041F2040137
:101BD000C2F20000C4F202010068096844F2B47263
:101BE000C1F3C221C0F60002515CC840704700003A
:101BF000002804BF012070472DE9F04182B004465F
:101C0000007841F20006C007C4F202060CD07068EA
:101C100000F00C00042840F081803068800303D578
:101C20006068002800F04E81207880071BD570681E
:101C300010F00C0F09D0706800F00C00082840F07C
:101C40008B807068C00300F187803068800703D5FF
:101C50002069012840F036813068616920F0F80081
:101C600040EAC10030602078000713D42078400794
:101C70002CD4E569002D00F02081706800F00C0084
:101C8000082840F0AF80012D40F00C81012002B007
:101C9000BDE8F081A069002800F08C800020C4F22B
:101CA00042200121C0F88014FFF7DEFC054600BF8A
:101CB000706A800700F1BA80FFF7D6FC401B02284B
:101CC000F6D9032002B0BDE8F08100BFF0695FEAF9
:101CD000C00808D4F06940F08050F061F06900F06D
:101CE00080500090009847F20007C4F2000738685F
:101CF000C0054DD4386840F480703860FFF7B4FCFC
:101D0000054600BF3868C00542D4FFF7ADFC401B54
:101D10006428F7D9032002B0BDE8F081706800F0B4
:101D20000C00082803D17068C0033FF576AF6068E7
:101D3000002800F00981B0F5A02F00F01D81B0F55A
:101D4000803F00F01D81306820F4803030603068C2
:101D500020F4802017E100BF2069002840F2000035
:101D6000C4F2422000F08C8001210160FFF77CFC6E
:101D7000054600BF306880073FF56EAFFFF774FC83
:101D8000401B0228F6D9032002B0BDE8F08100BF55
:101D9000E068002800F09A80052800F0B180012852
:101DA00000F0B280306A20F001003062306A20F02A
:101DB0000400ACE00020C4F242200021C0F88014EE
:101DC000FFF752FC054600BF706A80077FF54EAFF3
:101DD000FFF74AFC401B0228F6D9032002B0BDE8F9
:101DE000F08100BF0027C4F2422700203866FFF7C9
:101DF0003BFC022D05460DD13068800140F1D680B4
:101E0000FFF732FC401B02284FF00300F4D902B068
:101E1000BDE8F081306880014FD5FFF725FC401BFD
:101E200002284FF00300F5D9F1E700BF40F20800A7
:101E3000C2F20000006844F6D351C1F26201A0FB77
:101E40000101480A019000BF00BF0198411E00280F
:101E500001913FF40BAF00BF0198411E0028019192
:101E60003FF404AF00BF0198411E002801913FF4E8
:101E7000FDAE00BF0198411E00280191E4D1F5E6B6
:101E800000210160FFF7F0FB054600BF30688007C6
:101E90007FF5E9AEFFF7E8FB401B02284FF0030097
:101EA000F4D9B4E77068216A00F480328A4209D11B
:101EB000616A00F47010884204D1002002B0BDE8CD
:101EC000F08100BF012002B0BDE8F081306A20F04F
:101ED00001003062306A20F004003062FFF7C4FB7A
:101EE000054641F2883700BF306A800722D5FFF7E8
:101EF000BBFB401BB8424FF00300F5D987E700BF9A
:101F0000306A40F004003062306A40F00100306214
:101F1000FFF7AAFB054641F2883700BF306A800709
:101F200008D4FFF7A1FB401BB842F7D9032002B049
:101F3000BDE8F081B8F1000F3FF59BAEF06920F0ED
:101F40008050F06195E600BF306820F4803030604A
:101F5000306820F480203060FFF786FB054600BF24
:101F6000306880037FF560AEFFF77EFB401B64287E
:101F70004FF00300F4D94AE7306840F48020306025
:101F8000306840F480303060FFF76EFB054600BFDC
:101F9000306880033FF548AEFFF766FB401B6428BE
:101FA000F6D9032002B0BDE8F08100BF206AB0F589
:101FB000803F05D17168A26821F40031114371603E
:101FC0007168626A21F47411114308437060012042
:101FD0003866FFF749FB0446306880013FF56DAF76
:101FE000FFF742FB001B02284FF00300F4D90EE775
:101FF000411E0020B0EB116F1CBF012070474EF254
:102000001002CEF2000251604EF62351CEF20001D2
:10201000F0230B700721906011607047704700003B
:1020200070470000B0B582B0044600680168C3681C
:10203000426901F02F05202D03F0200506D12DB1B6
:10204000204602B0BDE8B04001F070BD5FEA017CFF
:102050001EBF02F0010E03F4907212EB0E0243D188
:10206000226BCD0618D5012A16D113F0100213D019
:102070000021019101680191416801910199406934
:1020800040063BD4A08DE18DE28D002A18BF884226
:1020900040F0F28102B0B0BD0A0640F1E78013F0D3
:1020A000800200F0E38094F841102129F2D1A16868
:1020B000B1F5805F03D12169002900F06382216AB4
:1020C0004A1C226209784160E18C01390A04E184EA
:1020D000E0D1C16821F08001C160C16841F04001D8
:1020E000C16002B0B0BD00BFCA0718BF13F4807250
:1020F00040F0D0804A0700F1D380D8E0E06B01685F
:1021000049688AB2002AC5D0A38D9A42C2D2E1851D
:102110008069202800F09E80206850E8030F216825
:1021200020F4807041E80302DAB1206850E8030F20
:10213000216820F4807041E8030292B1206850E8E1
:10214000030F216820F4807041E803024AB120683F
:1021500050E8030F216820F4807041E80302002A50
:10216000DAD1206850E8050F216820F0010041E82D
:102170000502C2B3206850E8050F216820F0010075
:1021800041E805027AB3206850E8050F216820F085
:10219000010041E8050232B3206850E8050F2168CC
:1021A00020F0010041E80502002ADAD11BE000BF5F
:1021B000206850E8050F216820F0400041E8050242
:1021C000DAB1206850E8050F216820F0400041E8AE
:1021D000050292B1206850E8050F216820F0400008
:1021E00041E805024AB1206850E8050F216820F057
:1021F000400041E80502002ADAD1202084F842009C
:1022000000202063206850E8030F216820F01000B0
:1022100041E80302DAB1206850E8030F216820F09A
:10222000100041E8030292B1206850E8030F2168D2
:1022300020F0100041E803024AB1206850E8030F83
:10224000216820F0100041E80302002ADAD1E06B97
:10225000FEF700FF02206063A08DE18D401A81B27D
:10226000204602B0BDE8B040FFF7D8BE49067FF572
:1022700011AF13F040013FF40DAFC16821F04001F0
:10228000C1602021204684F8411002B0BDE8B04072
:1022900000F030BB626C42F0010262644A0706D56E
:1022A000BEF1000F03D0626C42F0020262648A0742
:1022B00006D5BEF1000F03D0626C42F004026264E6
:1022C000BCF1000F06D55EEA050203D0626C42F055
:1022D00008026264626C002A3FF4DCAE890604D511
:1022E0001DB1204601F022FC20684069616C00F0BD
:1022F000400001F00801401800F0B680206850E866
:10230000030F216820F4907041E80302BAB32068FB
:1023100050E8030F216820F4907041E8030272B383
:10232000206850E8030F216820F4907041E8030210
:102330002AB3206850E8030F216820F4907041E828
:102340000302002ADAD11AE0206850E8050F21685C
:1023500020F0010041E80502DAB1206850E8050FDD
:10236000216820F0010041E8050292B1206850E8A0
:10237000050F216820F0010041E805024AB12068FC
:1023800050E8050F216820F0010041E80502002A0D
:10239000DAD1206B012824D1206850E8030F21688E
:1023A00020F0100041E80302DAB1206850E8030F82
:1023B000216820F0100041E8030292B1206850E843
:1023C000030F216820F0100041E803024AB12068A1
:1023D00050E8030F216820F0100041E80302002AB2
:1023E000DAD1202084F84200002020632068406970
:1023F000400640F1C180206850E8050F216820F0B8
:10240000400041E80502DAB1206850E8050F216874
:1024100020F0400041E8050292B1206850E8050F25
:10242000216820F0400041E805024AB1206850E8E8
:10243000050F216820F0400041E80502002ADAD1AA
:10244000E06B002800F0988043F62131C0F60001CF
:102450004163FEF723FE00283FF41CAEE06B416BA6
:1024600002B0BDE8B04008472046FFF7D9FD002084
:10247000606402B0B0BD00BF401A00BF216851E8DF
:10248000031F226821F4907142E80313BBB3216853
:1024900051E8031F226821F4907142E8031373B3DB
:1024A000216851E8031F226821F4907142E8031368
:1024B0002BB3216851E8031F226821F4907142E890
:1024C0000313002BDAD11AE0216851E8051F2268B6
:1024D00021F0010142E80513DBB1216851E8051F35
:1024E000226821F0010142E8051393B1216851E807
:1024F000051F226821F0010142E805134BB1216854
:1025000051E8051F226821F0010142E80513002B64
:10251000DAD1202184F8421000212163216851E89A
:10252000031F226821F0100142E80313DBB1216888
:1025300051E8031F226821F0100142E8031393B110
:10254000216851E8031F226821F0100142E80313BB
:102550004BB1216851E8031F226821F0100142E8C5
:102560000313002BDAD1022281B22046626302B04B
:10257000BDE8B040FFF752BD204602B0BDE8B04014
:10258000FFF74EBD216A31F8022B6FF35F224260E4
:10259000216299E5002804BF0120704710B5044668
:1025A00090F8410028B9002084F84000204600F04F
:1025B00063F8242084F841002068D4E90212C3683B
:1025C00023F40053C360036923F440531A430261A8
:1025D000D4E904231143C268194341F20C639A43BE
:1025E0001143C1604169A26921F44071114343F66E
:1025F0000002C4F201029042416103D0FFF7D0FA19
:1026000002E000BFFFF7E0FAD4E9002319214843B4
:102610009900B0FBF1F048F21F5CC5F2EB1CA0FB87
:102620000C314FF69C734909C0F6FF7301FB0300A0
:10263000322303EB0010A0FB0C03F02000EA531040
:1026400000EB0110C3F3431108449060106920218E
:1026500020F490401061506920F02A005061D06849
:1026600040F40050D0600020606484F8411084F889
:102670004210606310BD000070B586B040F60004E3
:10268000C4F20104006804F5405100268842049613
:1026900002D006B070BD00BF41F21800C4F20200C3
:1026A000016802AD41F480410160016801F480419C
:1026B00001910199016841F0040101600068294617
:1026C00000F00400019001984FF400700290022085
:1026D0000390032005902046FEF7B2FE4FF4806081
:1026E000CDE90206204629460496FEF7A9FE2520DC
:1026F00000210022FFF738F82520FFF723F806B065
:1027000070BD000090F84230202B07D100294FF017
:10271000010318BF002A05D1184670470223184646
:10272000704700BF00230363816222218285C28536
:10273000436480F842100169006819B1C16841F42E
:102740008071C160416941F001014161C16841F09E
:102750002001C1601846704740F2E841C2F2000112
:10276000884218BF704740F2E84040F27041C2F220
:102770000000C2F200010122FFF7C4BF2DE9F041C1
:10278000044690F8410020281CBF0220BDE8F081DB
:102790000D4600294FF0010000F0AA801646002ADD
:1027A00008BFBDE8F081002060642120984684F8CD
:1027B0004100FEF759FFA684E684A1680646B1F5FC
:1027C000805F02D12069002862D02F460025E08C6E
:1027D000002861D018F1010018D0B8F1000F37D1EE
:1027E000216808E017F8010B4860E08C0138E084AC
:1027F000E08C002851D00868000673D5002FF1D175
:1028000035F8020B00276FF35F20EDE7216802E047
:102810000868000609D40868000606D4086800069F
:102820005CBF08685FEA0060F2D51FB117F8010BC2
:1028300005E000BF35F8020B00276FF35F2048600A
:10284000E08C0138E084E08C0028E4D125E000BF72
:10285000216800BF0868000608D4FEF705FF801B4A
:10286000404541D82168C868F4E700BF17B117F8A0
:10287000010B04E035F8020B00276FF35F2048607E
:10288000E08C0138E084E08C0028E3D105E000BF53
:102890000027E08C00289DD12168086840061FD4DD
:1028A000B8F1000F1ED018F101000FD108684006E2
:1028B00016D40868400613D40868400610D4086887
:1028C00040064FF00000F1D50FE000BFFEF7CCFE50
:1028D000801B404508D82068C16800684006F5D5CF
:1028E000002002E0FEF7C0FE0320202184F8411002
:1028F000BDE8F08170470000FEE7000010B584B02D
:1029000040F2744042F20041C2F20000C4F2010100
:102910004FF4807C012400234FF4602280E80A10E9
:10292000022104730375C2610161FEF7EFF900280B
:1029300018BFFEF721F80620CDE9010440F27440EB
:102940000724C2F2000001A90394FEF7A5F80028AD
:1029500018BFFEF711F8012001900220CDE9020412
:1029600040F27440C2F2000001A9FEF795F8002879
:1029700018BFFEF701F804B010BD000080B582B0AA
:1029800041F21400C4F202000168002241F001018A
:1029900001600068002100F00100019001980B2007
:1029A000FEF7E2FE0B2002B0BDE88040FEF7CABE93
:1029B0002DE9F04784B041F21800C4F2020001682A
:1029C00040F6000541F0100101600168C4F2010504
:1029D00001F01001009100990168002241F02001EE
:1029E000016001680B2601F0200100910099016847
:1029F0004FF0000941F004010160016801F0040199
:102A000000910099016841F00801016000680B2104
:102A100000F00800009000982846FEF71FFE05F51C
:102A200080642046202101224FF020080127FEF774
:102A300015FE8DE8C0026E464FF0020A2846314668
:102A4000CDF80CA0FEF7FCFC28463146CDE9008904
:102A5000CDF80890FEF7F4FC20463146CDE900871A
:102A6000CDE9027AFEF7ECFC04B0BDE8F087000087
:102A700080B540F2E84043F60001C2F20000C4F223
:102A8000010100234FF00C0C4FF4164280E80E00B9
:102A9000C0E90333C0E905C3C361FFF77BFD00282C
:102AA00008BF80BDBDE88040FDF766BFFEE70000BF
:102AB000FEE7000070B586B041F21800C4F20200D3
:102AC000016840F6000441F0100101600168C4F2A1
:102AD000010401F0100101910199016801AD41F07B
:102AE000040101600068012600F0040001900198D3
:102AF00011200290032004900220019020462946D4
:102B00000396FEF79DFC204629460196FEF798FCA9
:102B1000204601210122FEF7A1FD0025ADF8165047
:102B2000BDF81600022823D8BDF816000130ADF814
:102B30001600BDF8160002281AD8BDF8160001309C
:102B4000ADF81600BDF81600022811D8BDF8160021
:102B50000130ADF81600BDF81600022808D8BDF8FF
:102B600016000130ADF81600BDF816000328DBD3BF
:102B7000204602210122FEF771FDADF81650BDF886
:102B80001600022824D800BFBDF816000130ADF8A9
:102B90001600BDF8160002281AD8BDF8160001303C
:102BA000ADF81600BDF81600022811D8BDF81600C1
:102BB0000130ADF81600BDF81600022808D8BDF89F
:102BC00016000130ADF81600BDF816000328DBD35F
:102BD00006B070BDF0B583B040F600040546C4F2FF
:102BE00001040026002703E00137082F00F096803B
:102BF00005FA07F0C0B2C20920460221FEF72EFDF9
:102C0000ADF80260BDF80200022823D8BDF802002A
:102C10000130ADF80200BDF8020002281AD8BDF854
:102C200002000130ADF80200BDF80200022811D800
:102C3000BDF802000130ADF80200BDF80200022824
:102C400008D8BDF802000130ADF80200BDF802005E
:102C50000328DBD3204601210122FEF7FFFCADF85B
:102C60000460BDF80400022824D800BFBDF80400A9
:102C70000130ADF80400BDF8040002281AD8BDF8F0
:102C800004000130ADF80400BDF80400022811D89A
:102C9000BDF804000130ADF80400BDF804000228BE
:102CA00008D8BDF804000130ADF80400BDF80400F8
:102CB0000328DBD3204601210022FEF7CFFCADF82C
:102CC0000660BDF8060002288ED800BFBDF80600D9
:102CD0000130ADF80600BDF8060002283FF684AFCB
:102CE000BDF806000130ADF80600BDF80600022868
:102CF0003FF67AAFBDF806000130ADF80600BDF82A
:102D0000060002283FF670AFBDF806000130ADF8AE
:102D10000600BDF806000328D8D365E72046012148
:102D20000122FEF79BFC0025ADF80850BDF8080015
:102D3000022823D8BDF808000130ADF80800BDF81E
:102D4000080002281AD8BDF808000130ADF80800C4
:102D5000BDF80800022811D8BDF808000130ADF810
:102D60000800BDF80800022808D8BDF808000130A6
:102D7000ADF80800BDF808000328DBD32046012188
:102D80000022FEF76BFCADF80A50BDF80A000228DD
:102D900024D800BFBDF80A000130ADF80A00BDF824
:102DA0000A0002281AD8BDF80A000130ADF80A005E
:102DB000BDF80A00022811D8BDF80A000130ADF8AC
:102DC0000A00BDF80A00022808D8BDF80A00013040
:102DD000ADF80A00BDF80A000328DBD303B0F0BD4C
:102DE000B0B582B040F60004C4F2010420460221CE
:102DF0000122FEF733FC0025ADF80050BDF80000BD
:102E0000022823D8BDF800000130ADF80000BDF85D
:102E1000000002281AD8BDF800000130ADF800000B
:102E2000BDF80000022811D8BDF800000130ADF84F
:102E30000000BDF80000022808D8BDF800000130ED
:102E4000ADF80000BDF800000328DBD320460121C7
:102E50000122FEF703FCADF80250BDF80200022883
:102E600024D800BFBDF802000130ADF80200BDF863
:102E7000020002281AD8BDF802000130ADF80200A5
:102E8000BDF80200022811D8BDF802000130ADF8EB
:102E90000200BDF80200022808D8BDF80200013087
:102EA000ADF80200BDF802000328DBD32046022162
:102EB00000220025FEF7D2FBADF80450BDF8040057
:102EC000022823D8BDF804000130ADF80400BDF895
:102ED000040002281AD8BDF804000130ADF804003F
:102EE000BDF80400022811D8BDF804000130ADF887
:102EF0000400BDF80400022808D8BDF80400013021
:102F0000ADF80400BDF804000328DBD320460121FE
:102F10000022FEF7A3FBADF80650BDF8060002281C
:102F200024D800BFBDF806000130ADF80600BDF89A
:102F3000060002281AD8BDF806000130ADF80600D8
:102F4000BDF80600022811D8BDF806000130ADF822
:102F50000600BDF80600022808D8BDF806000130BA
:102F6000ADF80600BDF806000328DBD302B0B0BD03
:102F7000B0B582B040F60004C4F20104204602213C
:102F800000220025FEF76AFBADF80250BDF80200F2
:102F9000022823D8BDF802000130ADF80200BDF8C8
:102FA000020002281AD8BDF802000130ADF8020074
:102FB000BDF80200022811D8BDF802000130ADF8BA
:102FC0000200BDF80200022808D8BDF80200013056
:102FD000ADF80200BDF802000328DBD32046012132
:102FE0000122FEF73BFBADF80450BDF804000228B7
:102FF00024D800BFBDF804000130ADF80400BDF8CE
:10300000040002281AD8BDF804000130ADF804000D
:10301000BDF80400022811D8BDF804000130ADF855
:103020000400BDF80400022808D8BDF804000130EF
:10303000ADF80400BDF804000328DBD320460221CC
:103040000122FEF70BFB0020ADF80600BDF80600DC
:10305000022823D8BDF806000130ADF80600BDF8FF
:10306000060002281AD8BDF806000130ADF80600A7
:10307000BDF80600022811D8BDF806000130ADF8F1
:103080000600BDF80600022808D8BDF80600013089
:10309000ADF80600BDF806000328DBD302B0B0BDD2
:1030A00080B5FFF707FDFFF79BFE7820FFF792FD45
:1030B0000020FFF78FFDAE20FFF78CFDFFF758FFD4
:1030C000FFF78EFE7820FFF785FD0020FFF782FDD9
:1030D000D520FFF77FFDFFF74BFFFFF781FE78203C
:1030E000FFF778FD0020FFF775FD8020FFF772FDE8
:1030F000FFF73EFFFFF774FE7820FFF76BFD00201F
:10310000FFF768FDA820FFF765FDFFF731FFFFF728
:1031100067FE7820FFF75EFD0020FFF75BFD3F2094
:10312000FFF758FDFFF724FFFFF75AFE7820FFF75F
:1031300051FD0020FFF74EFDD320FFF74BFDFFF7B9
:1031400017FFFFF74DFE7820FFF744FD0020FFF743
:1031500041FD0020FFF73EFDFFF70AFFFFF740FEAD
:103160007820FFF737FD0020FFF734FD4020FFF700
:1031700031FDFFF7FDFEFFF733FE7820FFF72AFD54
:103180000020FFF727FDA120FFF724FDFFF7F0FE49
:10319000FFF726FE7820FFF71DFD0020FFF71AFD40
:1031A000C820FFF717FDFFF7E3FEFFF719FE7820B1
:1031B000FFF710FD0020FFF70DFDDA20FFF70AFDF5
:1031C000FFF7D6FEFFF70CFE7820FFF703FD002087
:1031D000FFF700FD1220FFF7FDFCFFF7C9FEFFF728
:1031E000FFFD7820FFF7F6FC0020FFF7F3FC8120BD
:1031F000FFF7F0FCFFF7BCFEFFF7F2FD7820FFF7CA
:10320000E9FC0020FFF7E6FCCF20FFF7E3FCFFF727
:10321000AFFEFFF7E5FD7820FFF7DCFC0020FFF7AD
:10322000D9FCD920FFF7D6FCFFF7A2FEFFF7D8FDA7
:103230007820FFF7CFFC0020FFF7CCFCF120FFF750
:10324000C9FCFFF795FEFFF7CBFD7820FFF7C2FC26
:103250000020FFF7BFFCDB20FFF7BCFCFFF788FE78
:10326000FFF7BEFD7820FFF7B5FC0020FFF7B2FCAA
:103270003020FFF7AFFCFFF77BFEFFF7B1FD7820B2
:10328000FFF7A8FC0020FFF7A5FCA420FFF7A2FC95
:10329000FFF76EFEFFF7A4FD7820FFF79BFC0020F0
:1032A000FFF798FCA620FFF795FCFFF761FEFFF7FC
:1032B00097FD7820FFF78EFC0020FFF78BFC8D2018
:1032C000FFF788FCFFF754FEFFF78AFD7820FFF731
:1032D00081FC0020FFF77EFC1420FFF77BFCFFF74A
:1032E00047FEFFF77DFD7820FFF774FC0020FFF715
:1032F00071FCAF20FFF76EFCFFF73AFE40F2700062
:10330000C2F200004FF48061FCF774FFBDE880401A
:1033100000F0C8BAB0B50C4640F0B005FFF760FD4C
:103320007820FFF757FC0020FFF754FC2846FFF7F2
:1033300051FCFFF71DFE200900F11005FFF750FDBD
:103340007820FFF747FC0020FFF744FC2846FFF7F2
:1033500041FCFFF70DFEFFF743FD7820FFF73AFC35
:103360000020FFF737FC04F00F00FFF733FCBDE847
:10337000B040FFF7FDBD00002DE9F04F81B01D46C4
:1033800017468A46DDE90B68834610461946002237
:10339000002301F000FA88B1B8F1060F20D0B8F18F
:1033A000080F2BD144F6F810C0F6000000F1D0064B
:1033B00058465146082210231CE000BFB8F1060F02
:1033C00020D0B8F1080F2BD144F6F810C0F6000059
:1033D00000F1B00658465146082210231CE000BFF9
:1033E00044F2BE70C0F6000000F14E065846514649
:1033F0000622082300960B9E00F09AF885F00045FF
:103400000EE000BF44F2BE70C0F6000000F14206BC
:10341000584651460622082300960B9E00F088F875
:10342000DDF828903846294600F03AFE044600F0C0
:103430007BFE02460B463846294601F09BF80546BE
:103440000F463EB1042E06F0030005D20A21A0B9B2
:103450001DE000BF01261AE006F0FC01012642F241
:10346000107200BF3346043902FB06F6FAD148F267
:10347000A061C0F20101594348B1012806D064237C
:1034800001EB81025943022808BF51000E46304625
:1034900000F04AFE02460B462846394600F0D0FEB0
:1034A00000F094FC00F0FCFD0546B0FBF6F0514640
:1034B000021908EB0B00C0B24B46CDF8008000F0BB
:1034C0002BF909F1010000FB08B0B8F1060F11D08B
:1034D0000B9CB8F1080F1BD144F6F811C0F600019F
:1034E00001F1E007C0B2514608221023009700F016
:1034F0001FF80DE044F2BE71C0F6000101F154075F
:10350000C0B2514606220823009700F011F80B9C28
:1035100009F1020000FB08B05146C0B22A4623461A
:10352000CDF8008000F0F8F801B0BDE8F08F0000A1
:103530002DE9F04F83B047B2002F01D43F2903D9C2
:1035400003B0BDE8F08F00BF5F18402FCDE9013117
:1035500088BFC1F14003DBB2002B5BD0111880297A
:1035600011466FF07F0788BF391ADDF80890C9B29D
:1035700003EB090EE1B340F2700801EB000BC2F25D
:1035800000084C4606E000BF09F101095FFA89F422
:10359000A6453FD909F00703012101FA03F3DD43F2
:1035A0004FEAD40A0746064608EBCA14E35D03EA6D
:1035B0000501731CDBB29B45E155E5D9E15CB71C05
:1035C000FFB22940BB45E154DED9E15DF31C5FFA4F
:1035D00083FC2940E345E155D6D914F80C10043694
:1035E000F7B22940BB4504F80C10DDD8CCE700BF8A
:1035F0004F4600BF791CC9B28E450BD9B91CC9B260
:103600008E4507D9F91CC9B28E4503D90437F9B2E2
:103610008E45EFD80199002AA1F101018BB201EB8F
:1036200053314FEAE10B5DD003460299802828BF51
:103630008023803B029340F27003C2F200031844DF
:103640004FEAD10E01F0070100F1800300F5607030
:10365000C1F10809009000204FF0000A019306E034
:103660000AF1010A5FFA8AF08345FFF469AF7044FA
:1036700007283FF665AF0C985FFA8AF302FB030058
:1036800010D1009D029E1346002EE9D010F8017B58
:103690002C788F40274305F8017B013B06F101069A
:1036A000F2D1DDE7019F734407EBC316029B154679
:1036B000002BD5D090F800C016F8808C0CFA01F4DD
:1036C00044EA080406F8804C10F8014B377824FAD5
:1036D00009F4274306F8017B013D03F10103E7D11B
:1036E000BEE700BF002000BF40F00101C9B28B451A
:1036F000FFF426AF40F00201C9B28B45FFF420AFC2
:1037000040F00301C9B28B45FFF41AAF0430C1B2D7
:103710008B45E9D214E70000002B08BF70472DE964
:10372000F04F83B081460C981C4692468B46082881
:103730005ED0062840F0B280A01E01906042651E57
:10374000002642F21078029029E000BF0120BAFB67
:10375000F0F04CF6CD41CCF6CC41A0FB0112D208E2
:1037600002EB8202A0EB420006EB460140F01000A3
:1037700044F2BE7209EB410100EB4000C0F60002CA
:1037800002EB4007C8B25946062208230097FFF70C
:10379000CFFE0136A642A5F1010500F07F80029818
:1037A000F1438142D2D00198801B032802D201202C
:1037B00008E000BF25F00302012000BF043A00FB2F
:1037C00008F0FBD1214411F00301C0D0012903D13D
:1037D00000EB80004000BAE74FF47A7242430229BE
:1037E0004FF0640108BF00FB01F21046AFE700BFD5
:1037F000A01E01906042651E002642F210780290E1
:1038000024E000BF0120BAFBF0F04CF6CD41CCF62D
:10381000CC41A0FB0112D20802EB8202A0EB4200D5
:1038200044F6F812C0F6000209EBC60102EB0010E4
:1038300000F58077C8B25946082210230097FFF799
:1038400077FE0136A642A5F1010527D00298F14383
:103850008142D7D00198801B032801D2012007E0C4
:1038600025F00302012000BF043A00FB08F0FBD161
:10387000214411F00301C6D0012903D100EB8000DF
:103880004000C0E74FF47A72424302294FF06401CE
:1038900008BF00FB01F21046B5E700BF03B0BDE86A
:1038A000F04F70472DE9F04F83B040F6000440F22E
:1038B0007008C4F201040025C2F200084FF00009AC
:1038C00008E000BFFFF754FB09F10109B9F1080F47
:1038D00000F01A815FFA89F000214FF0000BFFF72A
:1038E00019FD08EBC91AFFF77BFA7820FFF772F988
:1038F0004020FFF76FF904E00BF1010BBBF1800FE3
:10390000E0D01AF80B70002604E000BF0136082E44
:1039100000F0968007FA06F0C0B2C20920460221E4
:10392000FDF79CFEADF80250BDF80200022823D836
:10393000BDF802000130ADF80200BDF80200022817
:103940001AD8BDF802000130ADF80200BDF802003F
:10395000022811D8BDF802000130ADF80200BDF810
:103960000200022808D8BDF802000130ADF80200BC
:10397000BDF802000328DBD3204601210122FDF718
:103980006DFEADF80450BDF80400022824D800BF35
:10399000BDF804000130ADF80400BDF804000228B1
:1039A0001AD8BDF804000130ADF80400BDF80400D9
:1039B000022811D8BDF804000130ADF80400BDF8AC
:1039C0000400022808D8BDF804000130ADF8040056
:1039D000BDF804000328DBD3204601210022FDF7B7
:1039E0003DFEADF80650BDF8060002288ED800BF97
:1039F000BDF806000130ADF80600BDF8060002284B
:103A00003FF684AFBDF806000130ADF80600BDF802
:103A1000060002283FF67AAFBDF806000130ADF887
:103A20000600BDF8060002283FF670AFBDF806009C
:103A30000130ADF80600BDF806000328D8D365E7CD
:103A4000204601210122FDF709FEADF80850BDF81E
:103A50000800022824D800BFBDF808000130ADF8E6
:103A60000800BDF8080002281AD8BDF80800013087
:103A7000ADF80800BDF80800022811D8BDF808000C
:103A80000130ADF80800BDF80800022808D8BDF8DC
:103A900008000130ADF80800BDF808000328DBD3AA
:103AA000204601210022FDF7D9FDADF80A50BDF8EE
:103AB0000A0002283FF620AFBDF80A000130ADF839
:103AC0000A00BDF80A0002283FF616AFBDF80A004A
:103AD0000130ADF80A00BDF80A0002283FF60CAF2D
:103AE000BDF80A000130ADF80A00BDF80A0002284E
:103AF0003FF602AFBDF80A000130ADF80A00BDF88C
:103B00000A000328D8D3F7E603B0BDE8F08F000021
:103B10007047000070470000FDF7ACBD7047000023
:103B2000406A0021C185C184FEF77ABA81B090F85D
:103B30004210222921D183680246B3F5805F09D162
:103B400052F8281F52F8183C002B63D003685B68BA
:103B50000AE000BF52F8281F13B90369002BF5D003
:103B600003685B6803F07F030B701168013111601B
:103B7000C18D01390A04C18502D001B0704700BF70
:103B80000168CA6822F02002CA60CA6822F4807202
:103B9000CA604A6922F001024A61202180F842107D
:103BA00000214163026B012A3CD10163016851E8A5
:103BB000031F026821F0100142E80313DBB1016822
:103BC00051E8031F026821F0100142E8031393B18A
:103BD000016851E8031F026821F0100142E8031355
:103BE0004BB1016851E8031F026821F0100142E85F
:103BF0000313002BDAD101680A68D20606D5002229
:103C000000920A680092496800910099818D01B084
:103C1000FEF704BA026852686FF35F2221F8022BA4
:103C20008162A5E701B0FEF797BD000040F2E840D1
:103C3000C2F20000FEF7F6B9FEE7000098B00024DB
:103C40000494FDF725FD0120CDE91344CDE911448D
:103C50000E9012904FF4E0104FF48031022517902F
:103C60000EA80894CDE90644CDE90F14CDE915510D
:103C7000FDF7BEFF20B1EFF3108072B6FEE700BF84
:103C80000F20CDE909054FF48060CDE90C0409A8A7
:103C900002210B94FDF7A2FE20B1EFF3108072B663
:103CA000FEE700BF022005904FF40040079005A8F2
:103CB000FDF712FE20B1EFF3108072B6FEE700BFF1
:103CC000FEF776FEFEF75AFEFEF718FEFEF7D0FE70
:103CD00040F60040C4F2010020210122FDF7BEFCA5
:103CE00040F27440C2F20000FCF74CFE4FF4FA6060
:103CF000FDF792FBFFF7D4F9FCF708FC0028FBD195
:103D000040F27440C2F2000004A90222FDF714F947
:103D10004FF0000906254FF0030B0DF1380A00BFE4
:103D2000FCF796FB044680B24CF6CD414843BDF803
:103D30001070BDF81260C00C00F0F6F902460B4698
:103D400001200121CDE900BB0295FFF715FB1420EE
:103D500014213A4606230095FFF7DEFC14202821A3
:103D6000324606230095FFF7D7FC5FFA89F214204C
:103D70001E21042309F101080095FFF7CDFCFF2067
:103D80008DF83800200A8DF83A00380A8DF83C008A
:103D9000300A8DF83E00FE208DF83F0040F2E840EA
:103DA000C2F20000514608224FF6FF738DF83940E9
:103DB0008DF83B708DF83D60FEF7E0FCFFF772FD7B
:103DC000C820FDF729FBC146AAE700002DE9F04D08
:103DD00007460E4600F068FB04460D463A46334659
:103DE00000F0BCFBDFF86CA0DFF86CB01B4B0746A3
:103DF000884616F0004F4FF000020AD000F0E4F9B8
:103E00000AD900225B463846414600F017FB1BD218
:103E100012E000F0D9F908D2002253462046294684
:103E200000F0A8FB04460D460EE000225B46384633
:103E3000414600F003FB07D800225346204629469E
:103E400000F00EF804460D463146204665F31E018B
:103E5000BDE8F08D0000F03F0000E03F0000E0BF53
:103E600010B591EA030F48BF83F0004300F18A8345
:103E7000841A71EB030C05D2121943EB0C03001BDF
:103E800061EB0C014FEA1154A4EB135CDFF81CE169
:103E90001EEA430F18BF9EEA445F00F0748021EAD7
:103EA000045123EA0E0343F48013DCF1200E32D3D5
:103EB00022FA0CFE10EB0E0023FA0CFE41EB0E0171
:103EC000CCF1200E03FA0EFE10EB0E00CCF1200E0A
:103ED00051F10001B1F5801F32D201EB045112FA09
:103EE0000EF2BDE8104058BF7047401C38BF5FEA73
:103EF000420218BF7047002814BF20F0010041F1B2
:103F000000014FEA410313F5001F38BF7047A1F1CC
:103F1000C04100F08DBA012A43EB0302ACF1200C42
:103F2000DCF11F0E32BF4FF0000E23FA0CF310EB42
:103F3000030041EB0451B4EB115FD0D0A1EB04516D
:103F400001F58011490801EB04515FEA30000ED3FE
:103F500050F1000038BF12FA0EFE08D1BDE8104043
:103F6000C9E7401C38BF5FEA4202CAD1C3E7BDE8D7
:103F700010404FEA410313F5001F38BF7047A1F10D
:103F8000C04100F055BA9EEA445F08D011EA5E0FC6
:103F9000BDE8104004BF01F0004100207047BDE8BB
:103FA000104070B500F0F6F964FBBE3E0000E0FF83
:103FB000491058BFC1F140415B1058BFC3F14043A5
:103FC0008B42EFF30080704751EA030C17D41CF5C5
:103FD000801F58BFBCF5801F00F10680994218BFB2
:103FE000704708BF9042704707D711F5801F58BF30
:103FF00013F5801F19D499427047894270471CF508
:10400000801F08D5BCF5801FF7D58B4218BF7047BD
:1040100008BF824270474FF4001C1CEB410F38BFB1
:104020001CEB430F01D28B42704770B500F0B2F920
:10403000922449004FF000514FF08053FFF7B8BF72
:104040004FEA41034FEA5353A3F58063D3F11E03B4
:10405000C8BFD3F1210C0CDD4FF0004242EAC1226F
:1040600042EA505232FA03FC8CEAE17CACEBE1709C
:104070007047102BC4BF0020704703F5787CBCF15B
:10408000FF3F04D06FF0004282EA2100704770B514
:1040900000F080F94992248000207047F2E7000088
:1040A0004FEA1153A3F58063D3F11E03A8BFD3F1E8
:1040B000200C08DB4FF0004242EAC12252EA505283
:1040C00032FA03F0704709420BD4102BC4BF002012
:1040D000704703F5787CBCF1FF3F05D04FF0FF300F
:1040E00070474FF00000704770B500F053F900BF03
:1040F0004992248000207047F0E710F0004248BF4A
:104100004042B0FA80F310FA03F10AD0C3F11D0364
:1041100003F5806302EB03524FEA415002EBD121D9
:1041200070474FF000007047B0FA80F310FA03F1C7
:104130000AD0C3F11D0303F580634FEA03524FEA2F
:10414000415002EBD12170474FF000007047000052
:1041500051EA030C17D41CF5801F58BFBCF5801F13
:1041600000F10680994218BF704708BF904270471F
:1041700007D711F5801F58BF13F5801F19D4994236
:104180007047894270471CF5801F08D5BCF5801F19
:10419000F7D58B4218BF704708BF824270474FF473
:1041A000001C1CEB410F38BF1CEB430F01D28B42AC
:1041B000704770B500F0EEF8922449004FF080513E
:1041C0004FF00053FFF7F4BE51EA030C17D41CF56F
:1041D000801F58BFBCF5801F00F10680994218BFB0
:1041E000704708BF9042704707D711F5801F58BF2E
:1041F00013F5801F19D499427047894270471CF506
:10420000801F08D5BCF5801FF7D58B4218BF7047BB
:1042100008BF824270474FF4001C1CEB410F38BFAF
:104220001CEB430F01D28B42704770B500F0B2F81F
:10423000922449004FF000514FF08053FFF7B8BE71
:1042400070B5DFF848C11CEA111E1EBF1CEA131529
:104250009EEA0C0F95EA0C0F00F06F8081EA0304D0
:104260004EEAD47EAE4421EA4C1123EA4C1341F4C9
:10427000801143F48013AEF17F7EA1FB024CA0FBC2
:104280000365361955EB0C05A1FB034C4CF10003FB
:10429000A0FB021C16EB0C06654153F1000309421A
:1042A00018BF46F0010613F4007F0BD14FEA03312B
:1042B0004FEA053041EA155140EA165034036FF0D9
:1042C00003020AE04FEAC3214FEAC52041EA5551F3
:1042D00040EA5650F4026FF0020202EB2E4201EB6C
:1042E000025585EACE710AD05FEA440C18BF24F06B
:1042F000004450F1000041F1000120EAD47040F286
:10430000FE7C624500D270BDA84214BF4FF08044CD
:104310004FF04044002E08BF0024BEF1806FA8BFBC
:10432000A1F1C041BDE8704080F2828001F1C0413E
:1043300001F000414FF0000070470CEA13159EEAAF
:104340000C0F18BF95EA0C0F06D081EA030E4FF050
:1043500000000EF0004170BD00F01CF88900013E25
:1043600000F007B800F009B84FEA430C5FEA5C5C64
:1043700008D081EA030100F05BB84FEA410C5FEA24
:104380005C5CF6D102494FF0000070470000FF0767
:104390000000F87F0EF1020E2EF0030E5EF8046BA3
:1043A000364205D4012A43EB030515F5001F12D848
:1043B000012841EB010C1CF5001F0CD80ED14FEA6F
:1043C000D17C0CEB4C0C0CF1020C15F5001F08BF56
:1043D0004CEBD37C04E04FF0080C01E04FEAD37CB7
:1043E0000CEB4C0526FA05F606F00706B6F1040CB0
:1043F00006D20EEB860CBDE870404CF0010C604715
:10440000DFE80CF0090B02024FF00041A1F500219A
:104410004FF0000070BD19461046012851EB010411
:1044200018BFD4F5001484BF002001F0004170BD16
:104430000808A0F500114FEA3101704753EA010C5A
:1044400017D41CF5801F58BFBCF5801F00F10680F3
:104450008B4218BF704708BF8242704707D713F5D9
:10446000801F58BF11F5801F19D48B4270479B42A3
:1044700070471CF5801F08D5BCF5801FF7D5994201
:1044800018BF704708BF904270474FF4001C1CEBE8
:10449000430F38BF1CEB410F01D2994270470FB454
:1044A0000CBC03BCFFF7C1BE5FEA410C5FEA5C5C79
:1044B000ACF580635B1C39D4D3F1340240F3458002
:1044C000B2F1200314DA4FF0010C0CFA02FCACF14B
:1044D0000103034020EA0300B3EB5C0208BF10EACB
:1044E0000C0F98BF704710EB0C0041F100017047B2
:1044F0000AD0C3F1200201FA02FC01284CF10000AD
:1045000021FA03F101FA03F14FF0010C0CFA03FC5C
:10451000ACF1010321EA0301B0F1004F08BF11EA39
:104520000C0F4FF0000088BF61447047B3F1FF3FAC
:1045300028BF50EAC12C01F000414FF0000084BFB9
:1045400041F07C5141F470017047B3F5806FB8BF02
:10455000704770B5FFF71EFF40DBB6BE10B591EA9D
:10456000030F81F000413FF583AC83F0004300F07E
:1045700009B8000010B591EA030F48BF83F000436B
:104580003FF576AC841A71EB030C07D28CF0004C2B
:10459000121943EB0C03001B61EB0C014FEA1154A1
:1045A000A4EB135CDFF8A4E11EEA430F18BF9EEAF8
:1045B000445F00F0B48021EA045123EA6E035242C2
:1045C000C3EB6E0338BF5B1EDCF1200E25D322FA4D
:1045D0000CFE10EB0E0043FA0CFE41EB0E01CCF189
:1045E000200E03FA0EFE10EB0E00CCF1200E51F15E
:1045F000000129D401EB045112FA0EF2BDE810407B
:1046000058BF7047401C1CBFB2F1004F70470028D4
:104610000CBF491C20F00100704712EB020E43EB67
:10462000030218BF4FF0010E4EEA4202ACF1200C1B
:10463000DCF11E0E56D943FA0CFE10EB0E00CCF145
:104640001E0E51F1FF31D5D50EF1010E12FA0EFEFC
:10465000404141EB010101EB445C5FEA5C5C10D935
:1046600001EB045110EBDE7038BFBEF1004FBDE826
:10467000104018BF704700280CBF491C20F00100F3
:10468000704734D24FEAD42C24F4006411F50011A1
:104690001BD0B1FA81F20B3AA41AA41ED2F1200366
:1046A000914030FA03F31943904001EBCC7101EBD8
:1046B0000451002CBDE81040A8BF704701F1C04173
:1046C00001F000414FF000007047B0FA80F310FA9B
:1046D00003F102D1BDE810407047E41A173C4805C9
:1046E000C90AE2E701EB0451BDE8104070474910E8
:1046F0004FEA300001EB0451BDE8104002E04FF0FA
:10470000000170474A0008BF0042F8D0B2F5001F10
:1047100028BF704701F000414FF0000070479EEA4B
:10472000445F07D011EA5E0FBDE8104004BF0021CE
:1047300000207047BDE8104070B5FFF72BFE00BFAA
:1047400040DFF63E104683F0004170470000E0FF76
:1047500010B5FFF739FC0CBF0120002010BD10B5CB
:10476000FFF732FC14BF0120002010BD10B5FFF789
:10477000EFFC8CBF0120002010BD10B5FFF7E8FC56
:104780002CBF0120002010BD10B5FFF71DFD94BF08
:104790000120002010BD10B5FFF716FD34BF012029
:1047A000002010BD00000000000000000102030412
:1047B00006070809000000000102030401020000CE
:1047C000000000000000002F0000000007000700AC
:1047D00000147F147F1400242A7F2A120023130858
:1047E00064620036495522500000000700000000B6
:1047F0001C224100000041221C000014083E081445
:104800000008083E0808000000A060000008080832
:104810000808000060600000002010080402003E4C
:104820005149453E0000427F4000004261514946E7
:10483000002141454B31001814127F1000274545D7
:104840004539003C4A4949300001710905030036E9
:104850004949493600064949291E000036360000FC
:104860000000563600000008142241000014141401
:104870001414000041221408000201510906003EF0
:104880004955592E007C1211127C007F4949493646
:10489000003E41414122007F4141221C007F4949A5
:1048A0004941007F09090901003E4149497A007FD9
:1048B0000808087F0000417F4100002040413F017F
:1048C000007F08142241007F40404040007F020CDE
:1048D000027F007F0408107F003E4141413E007F7F
:1048E00009090906003E4151215E007F0919294648
:1048F0000046494949310001017F0101003F404024
:10490000403F001F2040201F003F4038403F0063D1
:1049100014081463000708700807006151494543F3
:1049200000007F41410000020408102000004141C6
:104930007F000004020102040040404040400000AB
:1049400001020400002054545478007F4844443845
:1049500000384444442000384444487F00385454CC
:10496000541800087E0901020018A4A4A47C007F4A
:10497000080404780000447D4000004080847D00ED
:10498000007F102844000000417F4000007C041894
:104990000478007C0804047800384444443800FC5F
:1049A000242424180018242418FC007C080404087B
:1049B00000485454542000043F444020003C4040F0
:1049C000207C001C2040201C003C4030403C004427
:1049D00028102844001CA0A0A07C004464544C442F
:1049E0000000087F41000000007F00000000417FC0
:1049F0000800000804081008000000000000000083
:104A00000000000000000000000000F800000000AE
:104A1000000000333000000000160E00160E0000EB
:104A2000000000000000000040C07840C078400056
:104A3000043F04043F040400007088FC08300000B8
:104A4000001820FF211E0000F008F000E018000010
:104A500000211C031E211E0000F0088870000000C9
:104A60001E21232419272110000000160E0000002B
:104A70000000000000000000000000E01804020038
:104A8000000000071820400000020418E0000000A9
:104A90000040201807000000404080F080404000A7
:104AA0000202010F01020200000000F000000000FD
:104AB0000101011F010101000000000000000000D1
:104AC00000B07000000000000000000000000000C6
:104AD00000010101010101010000000000000000CF
:104AE000003030000000000000000000806018046A
:104AF000006018060100000000E010080810E00047
:104B0000000F102020100F00001010F8000000000F
:104B10000020203F20200000007008080888700056
:104B200000302824222130000030088888483000D6
:104B30000018202020110E000000C02010F80000F6
:104B400000070424243F240000F80888880808008F
:104B50000019212020110E0000E0108888180000A4
:104B6000000F112020110E0000380808C838080076
:104B70000000003F000000000070880808887000F6
:104B8000001C222121221C0000E010080810E00077
:104B90000000312222110F00000000C0C000000000
:104BA0000000003030000000000000C0C000000025
:104BB000000080B07000000000008040201008005D
:104BC00000010204081020004040404040404000E6
:104BD00004040404040404000008102040800000C1
:104BE0000020100804020100007048080808F000C6
:104BF0000000003036010000C030C828E810E00096
:104C00000718272423140B000000C038E000000020
:104C1000203C23020227382008F88888887000008A
:104C2000203F202020110E00C0300808080838005E
:104C3000071820202010080008F808080810E000D5
:104C4000203F202020100F0008F88888E808100076
:104C5000203F20202320180008F88888E80810004A
:104C6000203F200003000000C03008080838000082
:104C700007182020221E020008F808000008F80883
:104C8000203F210101213F20000808F8080800000A
:104C90000020203F2020000000000808F80808003D
:104CA000C08080807F00000008F888C028180800B5
:104CB000203F20012638200008F8080000000000EE
:104CC000203F20202020300008F8F800F8F80800E5
:104CD000203F003F003F200008F830C00008F808DF
:104CE000203F200007183F00E01008080810E000EF
:104CF0000F10202020100F0008F808080808F00006
:104D0000203F210101010000E01008080810E00028
:104D10000F18242438504F0008F8888888887000BD
:104D2000203F2000030C302000708808080838005D
:104D30000038202121221C00180808F80808180053
:104D40000000203F2000000008F808000008F808D4
:104D5000001F202020201F000878880000C8380885
:104D6000000007380E010000F80800F80008F800FD
:104D7000033C0700073C0300081868808068180897
:104D800020302C03032C30200838C800C838080015
:104D90000000203F2000000010080808C838080064
:104DA0002038262120201800000000FE0202020008
:104DB0000000007F40404000000C30C000000000B8
:104DC000000000010638C00000020202FE000000E0
:104DD000004040407F000000002010080408102020
:104DE00000000000000000000000000000000000C3
:104DF00080808080808080800002040800000000A5
:104E000000000000000000000000808080800000A2
:104E10000019242222223F2008F800808000000090
:104E2000003F112020110E00000000808080000053
:104E3000000E112020201100000000808088F80062
:104E4000000E112020103F20000080808080000094
:104E5000001F222222221300008080F088888818F8
:104E60000020203F20200000000080808080800003
:104E7000006B94949493600008F800808080000098
:104E8000203F210000203F20008098980000000073
:104E90000020203F202000000000008098980000A3
:104EA00000C08080807F000008F8000080808000C3
:104EB000203F24022D302000000808F800000000E8
:104EC0000020203F202000008080808080808000A3
:104ED000203F20003F20003F0080800080800000B5
:104EE00000203F2100203F200000808080800000C3
:104EF000001F202020201F008080008080000000F4
:104F000080FFA12020110E00000000808080800022
:104F1000000E112020A0FF80808080008080800013
:104F200020203F2120000100000080808080800040
:104F30000033242424241900008080E080800000B5
:104F40000000001F20200000808000000080800002
:104F5000001F202020103F20808080000080808063
:104F600000010E30080601008080008000808080F3
:104F70000F300C030C300F00008080008080800018
:104F80000020312E0E312000808080000080808043
:104F900080818E70180601000080808080808000F3
:104FA0000021302C2221300000000000807C020211
:104FB00000000000003F404000000000FF00000033
:104FC00000000000FF0000000002027C80000000E2
:104FD0000040403F00000000008040408000008012
:104FE0000000000000010100020304050607080993
:104FF0000A0B0C0D0E0F10101850000800000020B6
:105000001000000050010008285000081000002087
:10501000280B0000700100080100000010000000D3
:0850200000127A0000000000FC
:04000005080000ED02
:00000001FF
